:020000021000EC
:10B0000000800020DD0902001D0A02001F0A020064
:10B010000000000000000000000000000000000030
:10B02000000000000000000000000000210A0200F3
:10B030000000000000000000230A0200250A0200B0
:10B04000270A0200270A020069D30100270A02002A
:10B05000270A02000000000009D80100270A0200A8
:10B06000DDDC010091DD010045DE0100270A020060
:10B07000270A0200270A0200270A0200270A020004
:10B08000270A020001CB0100270A0200270A02005A
:10B09000DDCB0100270A02004D090200270A020049
:10B0A000270A0200270A020000000000000000003A
:10B0B0000000000000000000000000000000000090
:10B0C00010B5064C2378002B07D1054B002B02D07E
:10B0D000044800E000BF0123237010BD7428002045
:10B0E00000000000540F020008B5084B002B03D0ED
:10B0F0000748084900E000BF07480368002B00D15B
:10B1000008BD064B002BFBD09847F9E70000000074
:10B11000540F020078280020702800200000000052
:10B12000164B002B00D1144B9D46402292029A1AD6
:10B13000924600218B460F461348144A121A00F01B
:10B1400067F80F4B002B00D098470E4B002B00D018
:10B1500098470020002104000D000D48002802D06F
:10B160000C4800E000BF00F02DF82000290000F09E
:10B1700059F800F011F8C0460000080000800020D7
:10B18000000000000000000074280020502E002065
:10B190000000000000000000084B10B5041C002B4C
:10B1A00002D0002100E000BF054B1868836A002B25
:10B1B00000D09847201C00F033F8C0460000000083
:10B1C000680D02000E4B70B500251E1C0D4CE41AD4
:10B1D000A410A54204D0AB00F35898470135F8E716
:10B1E00005F0B4FD084B00251E1C084CE41AA41001
:10B1F000A54204D0AB00F35898470135F8E770BD7D
:10B200006828002068280020682800206C2800207A
:10B21000031C8218934202D019700133FAE7704779
:10B22000FEE7C04608B500200521104A002301F0C2
:10B23000F9FE002816D100F097F80D4800F0C4FB85
:10B24000002806D100F016FC00F03CF900F08CFC60
:10B25000FCE700F039FB0028F4D000F035FB0028B3
:10B26000F7D1EFE701F0F2FBE5E7C04690280020B8
:10B270006C0D020073DF704776DF704778DF704730
:10B280007ADF70477CDF70477FDF7047A9DF704748
:10B2900008B501F0DBFB08BD10B5041C05F0C4F9CE
:10B2A0002148211C00F06CF92388103B9BB2452BF0
:10B2B0000CD81E4A9B00D3589F461D4B132118885B
:10B2C000FFF7DAFF002801D001F0C0FB10BD237AA0
:10B2D000002B06D11748FFF7CDFF002801D001F061
:10B2E000B5FBA288124B1A80F0E7114B0021188899
:10B2F00000220023FFF7CAFF0028E7D0E4E701227D
:10B300000B4B52420B481A80FFF7B4FF0028DDD0E8
:10B31000DAE7074B8521188800220023FFF7B4FFE6
:10B320000028D3D0D0E7C046282B0020900D020083
:10B3300064280020102B002008B5002000F0DEFB60
:10B3400008BDC04608B50378002B00D008BD054BEA
:10B350003B211888FFF790FF0028F7D001F076FB1B
:10B36000F4E7C0466428002030B589B04C49042277
:10B37000684605F0DBFC68464A494822002305F090
:10B3800093FA002800D087E001AC00200121221CA4
:10B3900005F0F4FA002800D07BE0434805F006FBF6
:10B3A000002800D072E0201C05F00AFB00286AD1BA
:10B3B0003E4805F0B7FA002801D001F047FB6B4684
:10B3C0000F2101221B783A4D8B43134310220B406F
:10B3D00013436A46281C137005F0B1FC291C82B285
:10B3E0006846FFF74FFF00284AD1C0208000FFF7D2
:10B3F00045FF002841D1201C00210822FFF708FF4B
:10B4000050232380503363800023A3809133FF3384
:10B41000201CE380FFF734FF002801D001F016FB69
:10B420000021201C0422FFF7F3FE224B2248211C9E
:10B43000019300F0D5F8002801D001F007FB1C2291
:10B44000201C0021FFF7E4FEA02292026260F0229D
:10B4500000231203A26003220193E3812374174B9C
:10B46000201C6361164B2273A36105F0A1F800282C
:10B4700001D001F0EBFA09B030BD01F0E7FABAE70C
:10B4800001F0E4FAB1E701F0E1FA91E701F0DEFA48
:10B4900089E701F0DBFA80E701F0D8FA74E7C046EB
:10B4A000A80E0200902A0020E81F002099B2010097
:10B4B000AC0E020039B30100282B002045B3010077
:10B4C00091B20100F0B589B06B46DD1DF823234C25
:10B4D0002B70234B00213822201C012602930527C4
:10B4E000FFF796FE0223656003AD281C02A9042223
:10B4F0002370A670E77005F019FC2E710795194AA4
:10B50000194D05AB1A800021281C38229F806362E8
:10B51000FFF77EFE154B201C291C2E826B6104F068
:10B520003BFD002801D001F091FA114C0021201CB4
:10B530001822FFF76DFE0023237063602372E3601F
:10B5400064332382201C50336382FFF793FE00286C
:10B5500001D001F07BFA09B0F0BDC046582A0020A6
:10B5600078895612FE0F0000D82A0020602800209B
:10B57000102B0020A0DF7047A2DF704763DF704709
:10B5800038B5002808D0002906D00B88112B1AD016
:10B59000502B02D0102B13D038BD0A8A002AFBD0C2
:10B5A0000D1C041CCB888088123598420FD0A089CE
:10B5B0009842F1D1D2B2291C052000F08FF9EBE7B7
:10B5C0008B888382E8E701235B428382E4E7D2B27F
:10B5D000291C002000F082F9A369201C9847DBE7B2
:10B5E000F0B54D46564644465F461023F0B495B03C
:10B5F000041C0D1C04A87249102299460E2605F061
:10B6000095FB002C0CD0002D0AD001235B42A382B5
:10B610002B6804A8A361211CFFF7B0FF061E07D00A
:10B62000301C15B03CBC90469946A246AB46F0BDD6
:10B63000237802A98B700123A21C012098460B805D
:10B64000FFF798FF061EEBD10DAD00211C22281C30
:10B65000FFF7DEFD02222B7800211343DBB2063216
:10B660001343043A13436A462B70237801A893735B
:10B6700005239B466B465A469A8103226E60EE6014
:10B680002E616E61AE61FFF7C3FD0F226B469246DD
:10B690001B7908AF93430E3A1343524613400132CD
:10B6A00013436A4613715379524693430E3A134338
:10B6B00052461340013213436A465371937906226E
:10B6C0009343023A1343DBB2043293434A46934313
:10B6D000424693436A4600219371381C1422FFF7B7
:10B6E00097FD03AB089301AB7B605B463B81BB815D
:10B6F000344B60883B619B46291C231D3A1C7E818C
:10B70000FFF73AFF061E00D08AE700211C22281C02
:10B71000FFF77EFD02222B7800211343DBB20632B5
:10B720001343043A13436A462B70237801A893739A
:10B730000A23938103226E60EE602E616E61AE611A
:10B74000FFF766FD6B4652461B79002193430E3A84
:10B75000134352461340013213436A46137153791F
:10B76000524693430E3A1343524613400132134359
:10B770006A465371937906229343023A1343DBB22C
:10B78000043293434A469343424693436A46381CE5
:10B7900093711422FFF73CFD03AB089301AB7B6070
:10B7A0001E233B81BB815B4605333B61231C6088C4
:10B7B0000C33291C3A1C7E81FFF7DEFE061C2FE7A6
:10B7C000B40E0200D42D002038B502291CD012D9A5
:10B7D00003290AD004290DD1002A08D12F4C23783F
:10B7E000052B07D10123237004E0002A1AD02B4C2B
:10B7F0000023237038BD0129FCD1284C002AF7D141
:10B800002378042BF6D1EDE7002AF0D1234C2378DE
:10B81000022B23D0032BEDD121492322214805F00F
:10B8200085FADFE71D4C2378062BE3D11C4D1E4B18
:10B8300023221968281C05F079FA281C1B490422C8
:10B84000243005F073FA042319482370291C282298
:10B85000002303F00FFF0028CAD1CBE7154B1A686D
:10B86000154B9A420ED0104B0E481968232205F052
:10B870005DFA062311482821237003F0D7FF002822
:10B88000B6D1B7E7032306482370094928220023CD
:10B8900003F078FF0028ABD1ACE7C0466628002053
:10B8A000442B0020D42D00207C2B0020C40E02004D
:10B8B0006C2B0020802B002055332211742B00208C
:10B8C00008B503F0ABFC08BD034B18780138431EE4
:10B8D0009841C0B27047C04666280020F8B5374E80
:10B8E000002A51D000231F1C041D3419A1425F41BE
:10B8F00035183C1C0F1DBD425B4123430924944273
:10B90000A44164421C424DD02B1C0B439B0749D1E0
:10B910000F68131FDBB29B082F6001334F689C0038
:10B92000E4B26F60022B1DD08F68AF60032B19D07B
:10B93000CF68EF60042B15D00F692F61052B11D054
:10B940004F696F61062B0DD08F69AF61072B09D04E
:10B95000CF69EF61082B05D00F6A2F62092B01D048
:10B960004B6A6B62A2420FD00B5D35182B55631CDE
:10B97000DBB29A4208D9CF5C0234F318E4B21F5408
:10B98000A24201D90B5D2B5505220D4B311C1A70BB
:10B990000C482332002303F0B1FE031C58425841E7
:10B9A000C0B2F8BD0023551EEDB20135CC5C321893
:10B9B000D4540133AB42F9D1E6E7C046442B002012
:10B9C00066280020742B002070B5041C82B01A4831
:10B9D00004F0B2FF00282BD103F006FD002802D0AE
:10B9E000002002B070BD28236A46144D9380273B87
:10B9F000D380134B6846291C009303F09BFD00285D
:10BA0000EED1104E281C0021321C03F00BFE002842
:10BA1000E6D102220C4B0D481C600D4B311C1A70F4
:10BA20002423023203F0AEFE43425841C0B2D8E7AD
:10BA300001F00CF8D0E7C046C1B80100742B00201B
:10BA4000C9B701006C2B00207C2B0020802B00202C
:10BA500066280020002805D0012800D07047034B3D
:10BA60001870FBE70122024B1A70F7E7892B0020C0
:10BA70008E2B0020F0B51B4B8BB0181C6A4670C88B
:10BA800070C230C830C205AC221C143361CB61C215
:10BA9000694621CB21C20023134E144F301C3A1C9F
:10BAA0000B724B722372637200F002FD002816D1F4
:10BAB0000F4D211C281C3A1C00F0FAFC002801D074
:10BAC00000F0C4FF301C00F05BFF281C00F058FFA2
:10BAD0000123084A1370084A13700BB0F0BD00F040
:10BAE000B5FFE5E7C80E0200000F020055BA0100DD
:10BAF000080F02008E2B0020892B0020F8B5830050
:10BB0000C418134FE4B23E1935796420291C05F09E
:10BB10001BF8104B64211870385D684305F014F869
:10BB20000D4B642118707078684305F00DF80B4BCD
:10BB300064211870B078684305F006F8084B64215A
:10BB40001870F078684304F0FFFF064B1870F8BDDA
:10BB5000D42D00208D2B0020842B0020882B00204A
:10BB60008A2B0020852B0020F8B55F4656464D46AF
:10BB70004446F0B44A4B1B78002B00D18AE0494B75
:10BB8000494F9846494B4A4E99464A4B4A4D9A4628
:10BB90004A4B4B4C9B464B4B1A7843461B78D2186A
:10BBA0004346D2B21A703B78002BFCD092B2301CC4
:10BBB000002100F08BFB112808D143461A78301C75
:10BBC00092B2002100F082FB1128F6D03E4B1A7889
:10BBD0004B461B78D2184B46D2B21A703B78002BDA
:10BBE000FCD092B2301C012100F070FB112808D16A
:10BBF0004B461A78301C92B2012100F067FB1128E5
:10BC0000F6D0324B1A7853461B78D2185346D2B22C
:10BC10001A702B78002BFCD092B2201C002100F06F
:10BC200055FB112808D153461A78201C92B20021E6
:10BC300000F04CFB1128F6D0254B1A785B461B7898
:10BC4000D2185B46D2B21A702B78002BFCD092B27D
:10BC5000201C012100F03AFB112808D15B461A781C
:10BC6000201C92B2012100F031FB1128F6D0642093
:10BC700001F04EFC0A4B0A4A1B78013BDBB2137001
:10BC8000002B88D1424613704A46137052461370F7
:10BC90005A4613703CBC90469946A246AB46F8BD46
:10BCA0008D2B0020872B00208E2B0020862B002040
:10BCB000000F02008B2B0020892B00208C2B0020F2
:10BCC000080F0200842B0020882B00208A2B0020E4
:10BCD000852B0020F0B5474680B4234D4C002B5DEA
:10BCE0000E1C002B20D02B5D013BDBB22B552B5DB6
:10BCF000002B12D02C196378002B22D06378013BE3
:10BD0000DBB263706378002B1BD1184BB200D358A1
:10BD1000301C1B68DB69984713E0144B8F00DB591C
:10BD2000081C1B68DB6998472C196378002B0BD122
:10BD30000E4BB70098464346DB590221586801F084
:10BD4000C3FF04BC9046F0BD6378013BDBB2637077
:10BD50006378002BF5D1054BB7009846DB59301CB2
:10BD60001B68DB699847E6E7402E0020902B0020F7
:10BD7000F8B55F4656464D4644462223F0B4066861
:10BD8000051CF75C023BF05C884692469B4602F03D
:10BD90005DF92123F05C02F059F943465C002B6801
:10BDA00044449946A400A1444B46187A02F04EF947
:10BDB0004B46587A02F04AF95246002368684146D9
:10BDC00001F034FF391C394802F0D4F901231A1C60
:10BDD0003419607A391C8240101C227A934018432F
:10BDE00002F0F4F96368002B35D05B46F05C6B68B9
:10BDF000FF0019682E4B4931FA18FF3102F0E8F8BC
:10BE0000686803210122002301F010FF00216B6804
:10BE1000284A1B799B0099506B681A682123111CD2
:10BE20004931F05CFF314C3202F0D2F82023F05C53
:10BE300002F0F2F82123F05C02F0EEF85346032101
:10BE400063606B681C4A1B79D1543CBC9046994690
:10BE5000A246AB46F8BD43469900A0235B00994635
:10BE60005B46F05C6B6889441968114BFF00FA1857
:10BE7000494402F0ADF8686803210022002301F074
:10BE8000D5FE6B681A79196843465133FF339B001E
:10BE900059589300074A99506B681A682123F05C3F
:10BEA0004B46D1184C3202F093F8BFE7FF3F000039
:10BEB00000F00140A02B00209C2B0020F8B55F462D
:10BEC00056464D4644462223F0B40568071CEE5CF6
:10BED000023BE85C0C1C93469A4602F0B7F821231B
:10BEE000E85C994602F0B2F8311C3F4802F042F992
:10BEF00063001A1998460123191C9200AA18507A57
:10BF0000127A81409340081C311C184302F05EF9FC
:10BF10005B46002B3CD0AB69F6009B465346E85C81
:10BF20007B681968314B4931F218FF3102F050F843
:10BF3000786803210122002301F078FE00217B684C
:10BF40002B4A1B799B0099507B681A684B46111C41
:10BF50004931E85CFF314C3202F03AF85B461E048E
:10BF6000360C2023E85C02F057F82123E85C02F04D
:10BF700053F803214444A4002C1966607B681D4AD1
:10BF80001B79D1543CBC90469946A246AB46F8BDBD
:10BF90004133FF339B465346E85C7B68A1008B44EA
:10BFA0001968124BF600F218594402F011F878683B
:10BFB00003210022002301F039FE7A68002613795C
:10BFC0001168221C5132FF3292005158084A9B00DE
:10BFD00099507B681A684B46E85C5B46D1184C3236
:10BFE00001F0F6FFBDE7C046FF3F000004F001404E
:10BFF000A02B00209C2B0020F0B55F4656464D46F6
:10C0000044462223F0B42024056883B0EB5C061C70
:10C01000285D0F1C90469A4602F018F821239B4693
:10C02000E85C02F013F851462F4802F0A3F85B4693
:10C03000E85C203B994683404A46181C2B5D5146DC
:10C040009A40104302F0C2F873683A1C1B68103221
:10C05000191C92004D31D2B29A18285DFF3101F0BF
:10C06000B7FF73687C001B68E4191A1C0193A223B4
:10C07000DB00D358A400DAB2534253412C19626852
:10C080004344934223D35B46E85C4B46834051468E
:10C09000181C02F06FF84346636042467068032143
:10C0A000002301F0C3FD504602F04CF8414673688E
:10C0B0000E4A1B799B00995073680D4A1B79D7541F
:10C0C00003B03CBC90469946A246AB46F0BD5B46E9
:10C0D0002068ED5C01F06CFB0199021C4D31FF31D1
:10C0E000281C01F075FFD6E7FF3F0000A02B0020C1
:10C0F0009C2B0020F0B55F46444656464D46F0B4B2
:10C10000041C036823201F5C83B01B38022F06D059
:10C1100003B03CBC90469946A246AB46F0BD161C07
:10C1200091464A000192521892009A180D1C5168CB
:10C130008E4241D067683A7994466046604A90469C
:10C14000125CD2B2FF2A13D0FE2A00D184E0513211
:10C150003868FF3292001258924662469000594A5F
:10C16000825811209245D3D1FF2240466746C255DE
:10C17000FE2240466746C255002925D09A69914261
:10C1800022D2201C291C002E02D0964200D293E01D
:10C19000321CFFF793FE2368DB69002B0AD00222D2
:10C1A000636802211B795B005D19474BEA546068A4
:10C1B00001F078FD0020ABE7DB69002BFAD0626864
:10C1C000107998470020A3E7002E47D09B699E4234
:10C1D0006CD323689A4620235246D05C01F036FF88
:10C1E00021235246D05C01F031FF019B22685B198C
:10C1F0009B009C4662449346107A1F1C01F026FF68
:10C200005B46587A01F022FF53469B699B469E424B
:10C210000FD35246B85822683B1C94466344997A1F
:10C220004B1E9941C9B201F0D3FA5B461B041B0CAB
:10C230009946291C4A460023606801F0F7FC019BDF
:10C240004A465F19BF003B1C53445A604146FF22D7
:10C2500063681B79CA549EE7112059E723689A4600
:10C2600020235246D05C01F0F1FE52462123D05CDF
:10C2700001F0ECFE019B5E192368B6009946B144BB
:10C280004B46187A01F0E2FE4B46587A01F0DEFE8A
:10C290005346985923689C466644B37A594259419B
:10C2A000C9B201F095FA00239946C2E7201C291C67
:10C2B000321CFFF75DFD6EE7321CFFF79DFE6AE75B
:10C2C0009C2B0020A02B0020402E0020F0B55F46C4
:10C2D000564644464D462323F0B4066883B0F45CCA
:10C2E000B7691B3B022C07D0181C03B03CBC90461E
:10C2F0009946A246AB46F0BD041C3804000C0D1C48
:10C300005043642104F090FB030401931B0C9846F6
:10C310006B0000935B199B00F318596888453FD068
:10C3200063681A799C465F4B99469B5CDBB2FF2B96
:10C3300014D0FE2B74D0664651333668FF339B0011
:10C340009B599B4693009C466646574BF3589C4628
:10C350001123E345C8D14E46EE33B35483B24E4663
:10C36000FE20B054002923D08F4221D9201C291C43
:10C370001A1E02D0474500D991E0FFF79FFD2368C0
:10C38000DB69002B0AD00222636802211B795B0063
:10C390005D19464BEA54606801F084FC0023A3E772
:10C3A000F369002BFAD062681079984700239BE765
:10C3B000002B37D047456CD823689A462023524635
:10C3C000D05C01F043FE21235246D05C01F03EFEDA
:10C3D000009B22685B199B009C4662449346107A3E
:10C3E0001E1C01F033FE5B46587A01F02FFE5346C7
:10C3F0009B699B4698453CD2019B1F0C291C3A1C0B
:10C400000023606801F012FC009BFF225E19B60059
:10C41000331C494653445F6063681B79CA54AEE7D6
:10C42000112361E723689A4620235246D05C01F02D
:10C430000DFE52462123D05C01F008FE009B5F19DF
:10C440002368BF009846B8444346187A01F0FEFDC1
:10C450004346587A01F0FAFD5346D85923689C4662
:10C460006744BB7A002759425941C9B201F0B0F97B
:10C47000C4E75246B0582268331C94466344997A04
:10C480004B1E9941C9B201F0A3F95B461F043F0C52
:10C49000B4E7201C291C1A1CFFF76AFC6FE7FFF7A2
:10C4A000ABFD6CE79C2B0020A02B0020402E002031
:10C4B000F0B55F4656464D464446F0B48BB0002971
:10C4C0000DD0232305680824EB5C002B09D0201C29
:10C4D0000BB03CBC90469946A246AB46F0BD0B243F
:10C4E000F5E793468946071C01F006FD002802D0B7
:10C4F000043C8528EBD101F0A3F8002800D17AE1B3
:10C50000FF23212220260021281CAB55AB540132E9
:10C51000AB54233AE9722B726B722A60E9752A7563
:10C520006B75EA60203001F0F3FC002800D0A6E132
:10C53000281C213001F0ECFC002800D09FE1281CD1
:10C54000223001F09BFD002800D01FE1002680462C
:10C55000AA46F3B203934B46B5005C59631C00D165
:10C56000A6E04B469B191B7A04933B681A1C029366
:10C570002323D35C002B00D1B3E1161C0824202315
:10C58000F05CFF2801D001F001FD2123F05CFF28C1
:10C5900001D001F0FBFC2223F05CFF2801D001F068
:10C5A000A9FD18239946193B98460023FF259A4672
:10C5B000B144307AFF2802D001F0E8FC3572707A7D
:10C5C000FF2802D001F0E2FC75723068431C03D0F2
:10C5D00001F0AEF8434633605346F3720C364E45D5
:10C5E000E7D1786801F0E4FA71E7059B1C60049BD1
:10C5F000002B00D1BAE10123A340A0221C1CD54B83
:10C60000D205D450069B9C19A400029B201C9C467A
:10C610000830604401F07CFC002800D080E1029BDF
:10C62000201C9C460930604401F072FC04900028F4
:10C6300000D075E1029B41359C46082364449C462A
:10C64000A4446346207A069301F000FD607A01F06D
:10C65000FDFC7B68FF351B68227A5D19059B029201
:10C660001968081C079101F0A3F8291C021C029804
:10C6700001F0AEFC7B68647A1D68059B493518683B
:10C6800001F096F8FF35021C291C201C01F0A0FCCB
:10C6900001236946069A097CD3707B68AE4A1B79F0
:10C6A000381C5B009B19995403990022FFF722FD67
:10C6B000012E69D14B46A94A1B694446554693420F
:10C6C00000D830E15908914200D834E199089142EC
:10C6D00000D82DE1D908914200D826E119099142EC
:10C6E00000D831E15909914200D82AE199099142D3
:10C6F00000D823E1D909914200D828E11B0A9342CE
:10C7000000D8B9E095495B0809228B4200D8B4E013
:10C71000002308A94B708B700333CB707B680A70C1
:10C720001B7978688E4A4B6001F0CEF9061E69D1FC
:10C730007B681A68A223DB00D6584B46FF221B6990
:10C7400016401B01F340AB61786891461E1C01F056
:10C7500069FA01230093321C98467868033302215A
:10C7600001F07AFA0221786801F0AEFA5B46EB61DB
:10C770007B687C4A1B7999008F5049467A4AD1548C
:10C7800023234246EA54A2E60126E2E63C68A05D85
:10C79000FF2801D001F0FAFB2123E05CFF2801D043
:10C7A00001F0F4FB2223E05CFF2801D001F0A2FCA1
:10C7B00018239946193BFF2598460026A144207A64
:10C7C000FF2802D001F0E2FB2572607AFF2802D038
:10C7D00001F0DCFB65722068431C03D000F0A8FF69
:10C7E00043462360E6720C344C45E8D1786801F08A
:10C7F000DFF904246BE600F0E9FE0324002800D0F2
:10C8000065E67DE620233C68E05CFF2801D001F06E
:10C81000BDFB2123E05CFF2801D001F0B7FB222300
:10C82000E05CFF2801D001F065FC18239A46E7334D
:10C830009846013BFF3B99460025A244207AFF28F9
:10C8400003D001F0A3FB43462372607AFF2803D094
:10C8500001F09CFB434663722068431C03D000F048
:10C8600067FF4B462360E5720C345445E6D1786887
:10C8700001F09EF9341C2AE60822D2B248E72023B0
:10C880003C68E05CFF2801D001F080FB2123E05CE4
:10C89000FF2801D001F07AFB2223E05CFF2801D0C1
:10C8A00001F028FC18239946193BFF2698460025DD
:10C8B000A144207AFF2802D001F068FB2672607A3A
:10C8C000FF2802D001F062FB66722068431C03D08F
:10C8D00000F02EFF43462360E5720C344C45E8D14E
:10C8E00084E7111C8C4672000692921992009444BF
:10C8F00061464B606B461B7C05918B72032308A934
:10C900000B703B68201C9C466244927A5342534110
:10C910004B7001238B7000F09DFE002800D164E66F
:10C920003E6804242BE60022F2E60322D2B2EFE6B0
:10C930000222D2B2ECE60122D2B2E9E60622D2B25B
:10C94000E6E60522D2B2E3E60422D2B2E0E607220E
:10C95000D2B2DDE60C050000402E0020FF0F0000E3
:10C96000D5BC0100902B00209C2B00200123A3406C
:10C97000A1221C1CA023D200DB059C5042E6C0462D
:10C98000F8B500274368294E1B7905685B00F7540A
:10C99000EB7A041C002B20D163681B795B00F31831
:10C9A00000265E70EB7D002B24D1FF216068204AB9
:10C9B0000379D15403681F4A93422DD01E4A9342F3
:10C9C0002FD01E4A934222D001F02CF9606801F06A
:10C9D0001BF902222323EA54F8BD036828689B7AD6
:10C9E00059425941C9B200F0F3FE286800F0C4FE74
:10C9F0006F60D1E72368E8689B7D59425941C9B20D
:10CA000000F0E6FEE86800F0B7FE2E61CDE70122F7
:10CA10000B4B1A606068D7E701220A4B1A60606806
:10CA2000D2E70122084B1A606068CDE7402E002053
:10CA30009C2B0020008000400090004000A000409F
:10CA40000CAC00400C8C00400C9C0040002300B556
:10CA500085B001AA9060002103481380536000F064
:10CA600005F805B000BDC04601400000BFF34F8F80
:10CA7000034A044BDA60BFF34F8FC046FDE7C04660
:10CA80000400FA0500ED00E080218023184A8902A5
:10CA9000D1508022D221174B520289005A5040397E
:10CAA0005A5001222F205A600138C046C046C04665
:10CAB000C046C046C046C046C046C046C046C04646
:10CAC000C046F1D19A6000230B4A2F201360013831
:10CAD000C046C046C046C046C046C046C046C04626
:10CAE000C046C046C046C046F1D1044A13707047E4
:10CAF00000E100E000100140AC2B0020CC2B002016
:10CB0000A021F0B5002347462B4A490080B453507A
:10CB10000431535004315350043153504C39535065
:10CB200004315350254B1B68002B35D02449002677
:10CB300052582449244F0C68141B00222402240A52
:10CB4000904602E0002D18D02B1C1A68A24214D87F
:10CB5000A41AB6181A7CDD69002AF3D042469969F6
:10CB60001A745A693B68002B19D0101C984700288A
:10CB7000E8D0FFF76BFF002DE6D1144B14491A786B
:10CB80000B789A420ED0134A9B009E50802180233E
:10CB9000114A49035B00D15004BC9046F0BD081C0B
:10CBA0009047CFE70132D3B2022B01D00B70EAE7F6
:10CBB00000230B70E7E7C04600100140B02B0020B7
:10CBC00004050000AC2B0020B42B0020C02B00205B
:10CBD000C12B0020C42B002000E100E0F0B55F462F
:10CBE00056464D464446F0B4B44BB54A1B68B54969
:10CBF00089B0019309781378994200D1B1E10133EA
:10CC0000DBB2022B00D100231370AF4A9B009B586C
:10CC1000AA4A9946019B4B441B021B0A136001233D
:10CC20000493AA4B00241B689B46A94BD8461B784B
:10CC30001A1C0293A74B944607931B6803939F4BC0
:10CC40001B680693A44B1B7805935B466646013E22
:10CC5000F2B29446FF2A4FD06246D000039A924621
:10CC6000504401784578A942F0D04A00521887789C
:10CC700001314668C9B27F1AB2467E1EB741D20062
:10CC80007F42524439401778022F0AD0032FEAD14D
:10CC9000002BE8D01C74DB69002BFBD1457898464B
:10CCA000E1E75668002B25D09E421AD01F1C00E0F9
:10CCB000171CFA69002AD6D09642F9D1321C3D1CC5
:10CCC000BE4200D1EBE01768D269EA61002A06D0C3
:10CCD00013689A465744176045784346C3E745783A
:10CCE000C1E7DE691A1C002E00D1DDE0B046331C1E
:10CCF000151CE8E70023B6E76946774A097D181C4A
:10CD000011706E4A06990393116041466F4A116093
:10CD1000049A002A00D028E15B461B1A5A1E934150
:10CD20000025DBB20493079B00271B68039E069334
:10CD3000624B1B689C46654B1B689A46664B1B788A
:10CD40000593664B019301239846029B013BDBB29E
:10CD50000293FF2B00D18FE0069ADB0093469B44A1
:10CD6000002D27D06968AB68281CED696246019CDC
:10CD70008A1A1202120AA24250D8D31842460360FD
:10CD8000476087600274C761002E56D03168341C3A
:10CD9000994204D35FE01168994263D2141CE2699E
:10CDA0005B1A002AF7D10360331CC261E0611E1CCC
:10CDB000002DD7D15B465A461B7852789A42C4D090
:10CDC000594649685A0089465946D2180133DBB2A0
:10CDD0000B708978D2004A4499424AD01178506841
:10CDE000331C0129E3D1037C99464946331C0029B1
:10CDF000DDD191684160D36883601469C460526971
:10CE00008261059A002AB1D04A46002142606246FA
:10CE1000019C8A1A1202120AA242AED96246511A23
:10CE20000902090A99420CD242465B1A0360476024
:10CE300087600274C761002EA8D1031C82461E1CA5
:10CE4000B6E743460760476087600374C761002EFA
:10CE5000F3D000233168CB1A3360031CC6618246CD
:10CE60001E1CA5E7C91A11600360C261331CE06192
:10CE70009DE75B461D70B1E75246144B1A60039B59
:10CE8000B3422FD1049B002B2CD10023124A1370E4
:10CE900009B03CBC90469946A246AB46F0BDDE695F
:10CEA0003A1C002E00D021E701250D4B9D60002388
:10CEB000069601369846151C059604E7AC2B002013
:10CEC000C02B0020C12B0020C42B0020B02B002041
:10CED000B82B0020BC2B0020C22B0020FEFF7F00BF
:10CEE00000100140002E63D0484B49493568CC58AA
:10CEF000484B494E1B683078E21A1202120A03327C
:10CF00009046002861D04246AA4200D22A1CA8209E
:10CF1000D21812023E49130AC0003C4D0B504A5928
:10CF20001B1B121B1202120A1B0203321B0A9A421B
:10CF3000ABD94B590B502F200138C046C046C046D4
:10CF4000C046C046C046C046C046C046C046C046B1
:10CF5000C046F1D180218023304A89025B00D15044
:10CF600093E70023994604935BE600250021002403
:10CF70004846464613E01A6882421CD8DE68801A8A
:10CF800089181C60DF69002E07D0DD611D1C019A25
:10CF90009E608A181202120A5A603B1C3E1C002B2B
:10CFA000E9D11F4B1E600023039301330493BAE6BB
:10CFB000FFF76AFD69E78146194903930E60494608
:10CFC000521A1A6001230493ADE68020D127400253
:10CFD000BF00C851403FC851C02280270F48BF0240
:10CFE00052008750076001272F200F600138C0468C
:10CFF000C046C046C046C046C046C046C046C04601
:10D00000C046C046C046F1D137707CE70405000039
:10D0100000100140AC2B0020CC2B002000E100E0F0
:10D02000B02B0020F8B54F464646C0B40326351C49
:10D0300080460F1C141C994615400720002D03D074
:10D040000CBC90469946F8BD002A44D0FFF71CFD61
:10D050004A46224B80201A60221C214B18321E7037
:10D06000204B62601C607B00DB19DB00D218E260A1
:10D07000D318C022636125706570A7702572657230
:10D08000A77225746574A774C524FF21164B40034D
:10D090001D60164B52001D70154BA4001D70154BE2
:10D0A00098501A598A433F390A431A51A1221860ED
:10D0B00040461149D2008850C42080001C580F4AB5
:10D0C0002240C024240222431A500D4B0020CA588B
:10D0D0000C4B1A60B4E7034B1A60B1E7B42B002085
:10D0E000B82B0020BC2B0020B02B0020C02B002030
:10D0F000C12B002000E100E000100140FF00FFFF15
:10D1000004050000AC2B002010B50B4B1B68002B56
:10D110000BD0002A07D0002805D0036808201C7C0B
:10D12000002C04D010BD0720FCE70820FAE7597452
:10D130005A610020F6E7C046BC2B0020F0B54746F8
:10D1400080B4374B1C68002C08D0002806D0072379
:10D15000042905D8181C04BC9046F0BD0823F9E743
:10D160004369002BFAD00025437CA846012B2FD021
:10D17000EFF30583DB05DB0D1025002B2CD16419A3
:10D180006378A5785E1CF6B2AD1B6F1EBD416D4283
:10D190002E402578B5421DD05D00EB186568DB0098
:10D1A000ED180423002DD5D0033B2B7068601D4B78
:10D1B0001D48C358E960AB60434680212B61802342
:10D1C0006A611A4A5B0049036670D1500023C1E7C7
:10D1D0008846CDE70423BDE7103BDEB275B2002DD3
:10D1E00013DBAD08114EC035AD00AD5903263340F9
:10D1F000DB00DD402B069B0FDBB20025012BBED0F0
:10D200000835032BBBD00835B9E70F23084D334051
:10D21000AC46083B9B089B0063445D680323E6E73C
:10D22000BC2B0020040500000010014000E100E0DC
:10D2300018ED00E030B52E4A031C12680820002AC1
:10D240002ED0002B2CD05969002929D00021197427
:10D25000EFF30581C905C90D1025002923D1551902
:10D260006A78A978541CE4B2091B481E81414942DE
:10D270000C402978A14214D051008A186968D20064
:10D280008C4662440420002A0AD0022153601170A7
:10D29000802380210020174A49035B006C70D15025
:10D2A00030BD0420FCE71039CCB260B2002813DB9B
:10D2B0008008104CC0308000005903242140C90070
:10D2C000C8400106890FC9B200250129C7D0083519
:10D2D0000329C4D00835C2E70F21074821408446FE
:10D2E000083989088900614448680321E6E7C04697
:10D2F000BC2B002000E100E018ED00E0F0B5EFF3FA
:10D30000108172B60A4B5A68002A0DD1012480257B
:10D31000084E5C607459084F3C401C6077510270A5
:10D32000002900D162B6F0BD01230370F8E7C046C2
:10D33000482E002000E100E0FC06FFBC10B5084BC1
:10D340005A68002A0BD0002809D1EFF3108272B678
:10D3500004491C680C605860002A00D162B610BDF8
:10D36000482E002000E100E0C12210B5604B920081
:10D370009A5884B092054DD55E4A1168002949D06B
:10D38000002111608121C2228900920099505A4BDC
:10D390009A7E002A02D10121584A11600222694670
:10D3A0000A7090215248C90042584250694603927F
:10D3B000DA7D68460A72DA68196801920022DA7525
:10D3C0001A765B6898474E4A1368002B10D04A4B78
:10D3D000988A997D81424FD9002111609A8A996873
:10D3E000895C9A8A013292B29A82464B404AD15065
:10D3F000454B1A68002A0BD000221A603E4B9A7ED9
:10D40000002A02D001213A4A1160DA7D002A42D175
:10D4100004B010BDC123364A9B00D3585B07D2D558
:10D420003A490B68002BCED0334BD87D00283FD132
:10D430000860A321C90052585A7ED97D9142C2D1B9
:10D440001A7E002A41D19A7E002A02D101212B4A5C
:10D4500011608120C222264980009200885000225B
:10D4600068460121DA755A7E01700272DA6819681D
:10D4700001925B689847A6E7002010600029B7D0AA
:10D480006A46107011729A689875196801925B6803
:10D4900068469847ACE7002268460121DA755A7E53
:10D4A00001700272DA68196801925B689847AFE709
:10D4B00000200860A320C000597E1258D86842544A
:10D4C0005A7E0132D2B25A76B6E7DA751A69D9684D
:10D4D000DA6000226C46587E1A765A760132207243
:10D4E00001912270196868465B6898476BE7C046EF
:10D4F0000020004024210040D02B002004200040C8
:10D500001C2100401C05000044210040082100406F
:10D5100082B00190019B002B14D0019B0A48013B73
:10D5200001930138C046C046C046C046C046C0460A
:10D53000C046C046C046C046C046C046F1D1019B69
:10D54000002BEAD102B07047E7030000F0B50028D5
:10D5500020DBFF271B4B03229C463B1C8408C02674
:10D56000C0B20240D2009340A4006444B600A55962
:10D570009D438B013B409340191C2943A1511F231C
:10D5800018401E3B8340C022181C0E4B520098507E
:10D590001860F0BDFF260C4A03249446321C0F236A
:10D5A000C0B20440E400A2400340083B9B089B003B
:10D5B0006344DD6995438A013240A240111C29432E
:10D5C000D961DCE700E100E000ED00E038B54E2570
:10D5D000194C0820635D002B00D038BD4822FF2184
:10D5E000013BA3540132A1540132A3540132A3548C
:10D5F0000132A354A3620132E36223636363A36332
:10D60000E363236463640238FE39A35423606360D8
:10D61000A360E36023616361A361E36123626362EA
:10D62000FFF794FF8021C123044A9B000906D150D3
:10D63000012300206355D0E7EC2B00200060004060
:10D640004E23034AD05C431E9841C0B27047C04687
:10D65000EC2B0020F0B50025314C021C2318283398
:10D660005D570820013500D0F0BD8878002835D0FE
:10D67000236801334DD0636801334CD0A368013374
:10D680004BD0E36804200133EED10323A018254DCD
:10D6900028300370AC460020A2279B00FF00E0501A
:10D6A0006344DE59204D0C78354080264878DD51A2
:10D6B000DD5976030005AC4630402504C0262C1CFD
:10D6C000B60234402043F824051C640110020440D3
:10D6D000281C204364462043D85101E0FE201870E6
:10D6E0004B78012B0ED00123A02093400F49C00599
:10D6F0004350A0230321C132FF329200DB05D150F9
:10D700000020B1E7A121A0209340C900C0054350EB
:10D71000EFE70023BAE70123B8E70223B6E7C046E4
:10D72000EC2B002000600040FFE0ECFF0C05000047
:10D7300010B50F4B1A1828321278D1B203290AD823
:10D74000012489006442CC50002452B24532FF3299
:10D75000084992005450FF221B1828331A70A02346
:10D76000C130FF308000FD3ADB05C25010BDC0461D
:10D77000EC2B0020006000400A4B10B5181828233D
:10D78000094AA2219446C35603209B006344C90062
:10D790005A58064C104322435A50C046C046C04611
:10D7A000585010BDEC2B002000600040031F00000B
:10D7B000054B1818054B28309C46007840B2800075
:10D7C000C0B260447047C046EC2B002000600040AF
:10D7D0000A4B30B518182823C356081C411E88412F
:10D7E000074AA22494460005011C9B006344E40000
:10D7F0001D59044A2A401143195130BDEC2B002019
:10D8000000600040FFFFEFFFF0B544465F4656461C
:10D810004D46F0B4A24A87B013680024012B00D112
:10D82000B8E0A04B1A68012A00D1C1E09E4B1A68EB
:10D83000012A00D1CCE09D4B1A68012A00D1D7E023
:10D8400000229B4B02921A68012A00D1E2E02307D2
:10D850000BD0E30700D5F5E0A30700D501E163078E
:10D8600000D50CE1230700D5E0E0002C06DB07B073
:10D870003CBC90469946A246AB46F0BD01235B42B4
:10D88000984600238B4E0493371CC03399464E377D
:10D8900000230393331C341C012546469846483424
:10D8A00021784BB201332FD0C9B24B46081C9843A4
:10D8B000331CC3401D4227D08B0901934346424687
:10D8C0001B1828331B785BB29B00D3589C46002B57
:10D8D00038D02B1C83409A46019B032B38D0A023C1
:10D8E000DB059B46E02382005A44DB00D3580592B7
:10D8F000C022920213401B0C191C53469346029AF5
:10D900001A4214D1032928D00134BC42C8D1039B48
:10D910004646002BABD0A223A022DB00D205D35871
:10D92000029A9A42A3D0049A02939046B0E7022941
:10D93000EAD1019B032B16D06346002BE4D001995A
:10D94000E047E1E7019B032BDED12B1C83409A4685
:10D950005246049B13430493C1E7019B032BEBD175
:10D9600080239B029B46E0230599DB00CB589A4617
:10D970005246514B1340E022D2008B508B585A46EE
:10D980001A43131CE022D2008B50039B0133DBB2FD
:10D990000393D1E7C1214948890041580B4200D186
:10D9A0003FE7404B14601A680134012A00D03DE77C
:10D9B000C12242499200895802220A4200D135E729
:10D9C00000211960384B14431A68012A00D032E74D
:10D9D000C1223A499200895804220A4200D12AE71A
:10D9E00000211960314B14431A68012A00D027E73F
:10D9F000C12232499200895808220A4200D11FE709
:10DA00000021144300221960294B02921A68012A4E
:10DA100000D01CE700221A6080231B061C43A022B2
:10DA2000A223D205DB00D358029310E7234A244BEC
:10DA3000204ED058D158C0048903C00E890FF36816
:10DA4000984712E7A2231D4ADB00D058D158194E3F
:10DA5000C00489033368C00E890F9847A30700D418
:10DA6000FDE6184B154A134ED058D158C00489030F
:10DA70007368C00E890F9847630700D4F2E6A323AA
:10DA80000E4ADB00D058D1580A4EC0048903B3684F
:10DA9000C00E890F9847230700D4E6E6C6E7C046C4
:10DAA0000061004004610040086100400C610040DA
:10DAB0007C610040EC2B0020FFFFFCFF0060004079
:10DAC0001C05000014050000F0B5454657464E46BB
:10DAD000E0B40579334E6B0098465B199B00F31850
:10DAE0001B7A041C0F1C0820002B04D01CBC904681
:10DAF0009946A246F0BD002A4ED000294ED043469A
:10DB00005B199B00F2507A68F3185A60627900231F
:10DB10000021002A0BD020689A0084464132FF324F
:10DB20006244116001336279DBB29A42F3D8236810
:10DB3000F978180B40B2FFF709FD012223681A4952
:10DB400078785B5810409343034320684544435022
:10DB5000A123DB009A4651460320236881465B5887
:10DB6000B8789C464B466146994318400B1C514679
:10DB700003432068AD0043500F218C46A220397822
:10DB800067462468C00023583940BB430B437619CD
:10DB9000235032720020A9E70720A7E7034FEB00CC
:10DBA000FF18ACE73C2C002004050000100F020019
:10DBB00001210A1C036830B5DB03DB0E9A40131CFD
:10DBC00080220F4CA350802302689B00D45800246D
:10DBD000D4500122056809335242FF33EA500368EA
:10DBE000084D1961027953009A189200AA1811720F
:10DBF00003795A00D3189B00EB181C7230BDC04645
:10DC000000E100E03C2C0020012203681A60037947
:10DC10005A00D318024A9B00D31802221A72704786
:10DC20003C2C002001220368DA60704730B5802464
:10DC300064028C40002B09D1C22305689B00EC5084
:10DC400051310368FF318900CA5030BDC1230568D6
:10DC50009B00EC50F4E7C046F0B5022605AC2778EF
:10DC60008024FF368E400568A4002D59B543066810
:10DC70003551066835592B43335180235B028B4065
:10DC8000002F09D1C2240568A4002B51513103682B
:10DC9000FF318900CA50F0BD05340568FF342B51AF
:10DCA000F4E7C0460B1C02685033944600229B00E8
:10DCB0009BB263441A6080235B028B40191CC12312
:10DCC00002689B00D150704780235B028B40191C77
:10DCD000C22302689B00D1507047C04608B5264B4E
:10DCE0001A68002A05D0C122244992008A58D2031A
:10DCF00027D4234B1A68002A05D0C1221F4992005D
:10DD00008A58920326D41F4B1A68002A05D0C122D4
:10DD10001A4992008A58520325D41B4B1A68002ACC
:10DD200005D0C122154992008A58120300D408BDBB
:10DD30000022A6201A60154B400059681B689847BE
:10DD4000F5E70022A0201A60104B400059681B68BC
:10DD50009847CEE70022A2201A600C4B4000596879
:10DD60001B689847CFE70022A4201A60074B4000A9
:10DD700059681B689847D0E7408100400080004008
:10DD800044810040488100404C8100403C2C0020F0
:10DD900008B5264B1A68002A05D0C12224499200F2
:10DDA0008A58D20327D4234B1A68002A05D0C122EF
:10DDB0001F4992008A58920326D41F4B1A68002AE2
:10DDC00005D0C1221A4992008A58520325D41B4B10
:10DDD0001A68002A05D0C122154992008A581203F8
:10DDE00000D408BD0022A6201A60154B4000196916
:10DDF000DB689847F5E70022A0201A60104B40002E
:10DE00001969DB689847CEE70022A2201A600C4B04
:10DE100040001969DB689847CFE70022A4201A6008
:10DE2000074B40001969DB689847D0E740910040F4
:10DE30000090004044910040489100404C910040C7
:10DE40003C2C002008B5264B1A68002A05D0C122B8
:10DE5000244992008A58D20327D4234B1A68002AF7
:10DE600005D0C1221F4992008A58920326D41F4B25
:10DE70001A68002A05D0C1221A4992008A58520312
:10DE800025D41B4B1A68002A05D0C12215499200DF
:10DE90008A58120300D408BD0022A6201A60154B30
:10DEA0004000D9699B699847F5E70022A0201A60D5
:10DEB000104B4000D9699B699847CEE70022A22009
:10DEC0001A600C4B4000D9699B699847CFE7002244
:10DED000A4201A60074B4000D9699B699847D0E796
:10DEE00040A1004000A0004044A1004048A10040E3
:10DEF0004CA100403C2C0020044B85201A78002ABD
:10DF000000D0704701321A700020FAE7602C002020
:10DF1000F0B556464D4644465F46F0B483B06B4676
:10DF2000DE1D0023984601339B46164B8246164D54
:10DF30000024994607E030780134FFF7FFF9BD432C
:10DF4000E4B2002D16D05F464346A740301C337024
:10DF5000FFF7D4F93D42EED04B461B683B42EAD175
:10DF60004A463B431360534630781C70FFF7E6F98E
:10DF7000002000E0042003B03CBC90469946A24635
:10DF8000AB46F0BD642C0020FF3F0000012383401E
:10DF900030B507201C1C83B09B0401D103B030BDF9
:10DFA000A123094ADB00D4506B46DD1D0023281C49
:10DFB0002B70FFF7A3F9054A28781368A343136071
:10DFC000FFF7BCF90020E9E700F00140642C0020D5
:10DFD00030B5002908D0002A06D001238340072449
:10DFE0009D0403D1201C30BD0E24FBE7074C25689F
:10DFF00008241D42F6D0064BC0009C46A223604474
:10E00000DB00C150034B0024C250EBE7642C00201E
:10E0100000F001401405000001238340980B8003A9
:10E0200001D007207047002B05D0054A12681A421C
:10E0300001D10820F6E7034A03498B50F2E7C046B6
:10E04000642C00200405000000F0014001238340FF
:10E05000980B800301D007207047002B05D0054A9C
:10E0600012681A4201D10820F6E7A1220249D20023
:10E070008B50F1E7642C002000F00140F0B55F46C2
:10E080004D4644465646F0B483B06B46DF1D002330
:10E090009B4601339846164B824600240325994639
:10E0A00007E038780134FFF749F9B543E4B2002DB1
:10E0B00016D046465B46A640381C3B70FFF71EF95B
:10E0C0003542EED04B461B783342EAD11E434B46D5
:10E0D0001E70534638781C70FFF730F9002000E0BE
:10E0E000042003B03CBC90469946A246AB46F0BD26
:10E0F000612C0020012270B5141C844082B00723DB
:10E10000A10702D1181C02B070BD0C4D0133297853
:10E110002142F7D00A4BC0009C466B46DE1D00230F
:10E1200060444260301C3370FFF7E8F82B78307899
:10E13000A3432B70FFF702F90023E3E7612C0020D3
:10E1400000F0014001210A1C824010B5072394070A
:10E1500001D1181C10BD054B1C7808231442F8D0BF
:10E16000034BC000C1500023F3E7C046612C0020E0
:10E1700000F0014001238B40F0B5072483B09A07DB
:10E1800002D1201C03B0F0BD0E4A013412781A42AD
:10E19000F7D0840BA40301D00724F2E76B460D1CD3
:10E1A000DE1D071C301CDC71FFF7A8F8064BA90028
:10E1B000CB18802109015A583078BA435A50FFF7DA
:10E1C000BDF8DEE7612C002000F0014001238B4008
:10E1D000F0B5072483B09A0702D1201C03B0F0BD2C
:10E1E0000E4A013412781A42F7D0840BA40301D0EE
:10E1F0000724F2E76B46DE1D0D1C071C301CDC718A
:10E20000FFF77CF88022064BA900CB181201985822
:10E21000384398503078FFF791F8DEE7612C002002
:10E2200000F0014029DF704728DF704730B583B028
:10E23000002806D0112806D108230F4A11680B4385
:10E24000136003B030BD021C0C4801788B005B18D2
:10E250009B00C518281CE9686B694C006418297973
:10E26000074DA4002D680C300095064D6459A04759
:10E270000422054B1A70E4E7502D0020682C002082
:10E28000582D00203C2D0020552D0020F0B55F4674
:10E290004D4644465646F0B45E4F85B03C785E4DE0
:10E2A000012C00D188E0002C00D16DE0022C16D0AA
:10E2B000032C0DD1594B1868FFF7B6FF021E07D08B
:10E2C000112800D080E00823554A11680B431360E1
:10E2D00005B03CBC90469946A246AB46F0BD504BBB
:10E2E00099461B6803932B789E00F3189B00EE1849
:10E2F0003369984680235B05196940460904090C77
:10E300009B4602F091FB454B824618605B461969BB
:10E310004346581EF3880904C018090C02F084FB18
:10E3200082454CD00323039C9C434B461C603D4BD1
:10E330001B68002B02D10233234262D000223A4BE9
:10E340001A703A4B5869431C54D080235B051969F5
:10E350000904090C02F068FB031C802252051069B5
:10E3600011690004013B000C09045843090C02F038
:10E370005BFBFFF759FF021EAAD0112824D1082306
:10E380001C434B461C60A3E7294B1C60294B1C60B7
:10E390006B78002B9CD02B789A00D3189B00ED183B
:10E3A000EA88254B1A602B79032B27D0042B25D024
:10E3B000012B00D08CE73B7000F000FC88E70123C4
:10E3C000039A9A431443B0E72B789800C018800052
:10E3D0002E18301C184DF3682D685C00E418317954
:10E3E00073690095154DA4000C306459A0470423AF
:10E3F0003B706DE780235B055B69AEE700F020F8BA
:10E4000066E7094A50461370FFF70EFFFFF70EFF4D
:10E410005EE7C046552D0020682C0020642D0020AA
:10E42000502D0020602D0020542D002000100010E1
:10E430005C2D0020342D0020582D00203C2D002084
:10E44000F0B55F4656464D464446F0B45B4B5C48DB
:10E450001A78802791008A1892009B18DD681E693F
:10E460006A005219920082181489508952686043D8
:10E4700080469044DA881B89141C9946514B924679
:10E480009B4600235A467F05396983B009044C44F2
:10E490001360090C301CA41902F04CFB002924D194
:10E4A0003B699BB29A4537D044456CD0022D33D09E
:10E4B000301C3969484489B202F03CFB424B890860
:10E4C00019603969201C0904090C02F033FB00298A
:10E4D00032D102223D4B1A70FFF7D8FE03B03CBC8C
:10E4E00090469946A246AB46F0BD022D14D0301C92
:10E4F000396948440904090C02F01CFB324B8908B5
:10E50000196039694445E4D00904090C201C02F063
:10E5100011FB0029DDD00FE080235B051969301C59
:10E520000904090C02F080FA0322294B1860274BDA
:10E530001A70FFF7ABFED1E780256D0529692B69BD
:10E540006A4699464346D380D08889B202F06CFA75
:10E550006A464B46A6B2D380071CD188301C02F015
:10E5600063FABFB280B287421DD02C692969301C82
:10E5700089B202F0DFFA5B462404240C89B2641AE3
:10E58000A4081C60A5E74B46002BC5D0022DC3D0C4
:10E59000301C3969484489B202F0CCFA0A4B890828
:10E5A00019603B6995E7434624041B041A0C240CAC
:10E5B000131B5A469B0813608BE7C046682C00204B
:10E5C0003C2D0020382D0020602D0020552D0020EE
:10E5D000642D0020F8B546464F46C0B41D4D08AC2A
:10E5E00024886E78A44604240A2E2DD02C78A046C8
:10E5F000A419092C00DD0A3C14277C432C19626104
:10E60000221C20710C32B94681C981C2E380634665
:10E6100023810024104B01361A786E70A24213D168
:10E6200042464F465743ED190C4AE98811602A7952
:10E63000032A07D0042A05D0012A05D11A70FFF752
:10E6400025FE01E0FFF7FCFE201C0CBC904699461D
:10E65000F8BDC046682C0020552D0020582D002004
:10E66000082170B50C1C244A82B013681C4009D0E4
:10E670008B431360214B224A1B789B009B58984781
:10E6800002B070BD1F4D2B789800C3189B00EE1888
:10E69000317904292AD0F268736950008218301C3D
:10E6A000194E920036680C300096184E965900228A
:10E6B000B04701202A7893009B189B00EB181C712F
:10E6C000DC80D8601C615C611C816B780132013B8D
:10E6D000D2B26B700A2A06D02A7000220C4B1A7034
:10E6E000FFF7D4FDCCE700232B70F6E70122084B9F
:10E6F0001A70FFF7CBFDC3E7502D0020542D0020EA
:10E700003C0F0200682C0020582D00203C2D0020DA
:10E71000552D002030B5244B83B05869431C3ED0A2
:10E7200080235B0519690904090C02F07DF9041CBA
:10E7300080235B051869196900041A69000C631EBF
:10E7400058431A4B09041B68090C92B292085943AA
:10E75000FFF768FD021E06D0112806D10823144ACF
:10E7600011680B43136003B030BD12490B78980059
:10E77000C01880000D18281CEB6829795C00E4188B
:10E780006B690D4DA4002D680C3000950B4D64593C
:10E79000A04704220A4B1A70FFF778FDE3E78023B5
:10E7A0005B055C69C4E7C04600100010642D0020C2
:10E7B000502D0020682C0020582D00203C2D0020DA
:10E7C000552D0020802230B55205146921492404BA
:10E7D000230C0C6883B0013C5C431F4B5869431CFD
:10E7E00035D011690904090C02F01EF980235B057C
:10E7F00019691A4B09040138090C41431A68201C95
:10E80000FFF710FD021E06D0112806D10823144A76
:10E8100011680B43136003B030BD12490B789800A8
:10E82000C01880000D18281CEB6829795C00E418DA
:10E830006B690D4DA4002D680C3000950B4D64598B
:10E84000A04704220A4B1A70FFF720FDE3E7506946
:10E85000CCE7C046642D002000100010602D002081
:10E86000502D0020682C0020582D00203C2D002029
:10E87000552D0020082330B51E4D83B02C6823424F
:10E8800014D1A30702D501231C432C6002221A4B8A
:10E890001A701A4B1868FFF7C7FC021E04D0112823
:10E8A0000DD108231C432C6003B030BD9C43124B98
:10E8B000134A1B782C609B009B589847F4E711493A
:10E8C0000B789800C01880000D18281CEB68297977
:10E8D0005C00E4186B690C4DA4002D680C300095A9
:10E8E0000A4D6459A0470422094B1A70FFF7CEFC69
:10E8F000DAE7C046502D0020542D0020642D002062
:10E900003C0F0200682C0020582D00203C2D0020D8
:10E91000552D0020F0B58027274C7F0523783969D5
:10E920009A00D3189B00E3181A89DD881B69AD187B
:10E93000ED18090483B0090C281C02F0FBF81F4BEA
:10E940000E1C5869431C35D039690904090C02F0C2
:10E950006BF880235B05196901380904090C4143F0
:10E96000174B89191A68281CFFF75CFC021E06D099
:10E97000112806D10823134A11680B43136003B012
:10E98000F0BD23789800C01880002618301C0E4C6B
:10E99000F36824685D003179ED18736900940B4CBD
:10E9A000AD000C302C59A0470422094B1A70FFF718
:10E9B0006DFCE4E77869CCE7682C002000100010BB
:10E9C000382D0020502D0020582D00203C2D0020F7
:10E9D000552D002030B5154B83B01868FFF724FC87
:10E9E000021E06D0112806D10823114A11680B43D4
:10E9F000136003B030BD0F490B789800C018800039
:10EA00000D18281CEB6829795C00E4186B690A4D25
:10EA1000A4002D680C300095084D6459A0470422CD
:10EA2000074B1A70FFF732FCE3E7C046642D002065
:10EA3000502D0020682C0020582D00203C2D002057
:10EA4000552D0020082370B52A4D82B02C68234232
:10EA500009D09C43284B294A1B782C609B009B586B
:10EA6000984702B070BD0122234B1A70244B58699D
:10EA7000431C3BD080235B0519690904090C01F094
:10EA8000D3FF061C80235B051869196900041A6905
:10EA9000000C731E58431B4B09041B68090C92B2EF
:10EAA00092085943FFF7BEFB021EDAD0112803D1AA
:10EAB00008231C432C60D4E713490B789800C01836
:10EAC00080000D18281CEB6829795C00E4186B693C
:10EAD0000E4DA4002D680C3000950D4D6459A047D3
:10EAE00004220C4B1A70FFF7D1FBBAE780235B05B9
:10EAF0005E69C7E7502D0020542D00203C0F020016
:10EB000000100010642D0020682C0020582D0020DB
:10EB10003C2D0020552D002030B5224B83B0586984
:10EB2000431C3AD080235B0519690904090C01F0E4
:10EB30007BFF031C80225205106911690004013B10
:10EB4000000C09045843090C01F06EFFFFF76CFB41
:10EB5000021E06D0112806D10823134A11680B4360
:10EB6000136003B030BD11490B789800C0188000C5
:10EB70000D18281CEB6829795C00E4186B690C4DB2
:10EB8000A4002D680C3000950A4D6459A04704225A
:10EB9000094B1A70FFF77AFBE3E780235B055B699B
:10EBA000C8E7C04600100010502D0020682C00203F
:10EBB000582D00203C2D0020552D0020F0B5802739
:10EBC000404D7F052C783969A60033199B00EB185E
:10EBD000DA8889B283B08A4218D8196918898C46B4
:10EBE000920860445969FFF71DFB021E06D01128E8
:10EBF0002DD10823344A11680B4313603419A40043
:10EC00002C19E288314B1A6003B0F0BD19693869DC
:10EC10008C460004000C121A18893C69596960443A
:10EC200080188918A2B29208FFF7FCFA021E06D0DB
:10EC3000112827D10823244A11680B43136080232D
:10EC40005B051B69214A1B041B0C1360DCE72B7856
:10EC50009800C01880002918CB68081C5F00FF18B6
:10EC60000B79BF009C464B6919490C30096800912B
:10EC700018497F586146B8470422174B1A70FFF7AE
:10EC800005FBBBE72B789800C01880002E18301CBD
:10EC90000F4DF3682D685C003179E41873690095B5
:10ECA0000C4DA4000C306459A04704220A4B1A7082
:10ECB000FFF7ECFA80235B051B69044A1B041B0C5D
:10ECC0001360A1E7682C0020502D0020342D002077
:10ECD000582D00203C2D0020552D00200823F0B594
:10ECE0004D4644465F4656461A1CF0B4774D85B0F3
:10ECF0002C68224091465FD1754F3E78B300039354
:10ED00009B199B00FB181A69511EDA881B898A1807
:10ED1000D318029380235B059B4619696D4B1B68D2
:10ED20009846002B57D16C4B1B689A4680235B0595
:10ED3000196902980904090C01F076FE824500D297
:10ED400085E0434600D17AE0002B00D079E0039BB8
:10ED50009C466644B600BC192179042900D1AFE075
:10ED6000201CE3680C305A00D21863695B4C920097
:10ED7000246800945A4C14590022A04741460120AF
:10ED80003A7893009B189B00FB181971D860414694
:10ED90004046D9801861586118817B780132013B67
:10EDA000D2B27B700A2A00D17BE03A7000224D4B30
:10EDB0001A70FFF76BFA07E09C434B4B4B4A1B78EA
:10EDC0002C609B009B58984705B03CBC90469946E8
:10EDD000A246AB46F0BD404B09041B68090C0298E3
:10EDE0009A4601F021FE5045A0D14A46404B1A6098
:10EDF00001234A4623432B603B4B1A703D4B586915
:10EE0000431C51D05B4619690904090C01F00CFE42
:10EE1000031C80225205106911690004013B000C9B
:10EE200009045843090C01F0FFFDFFF7FDF9021E2C
:10EE3000CAD011283BD109231C432C60C4E7002B06
:10EE400005D00322284B1A70FFF764FDBCE70022AF
:10EE5000274B50461A60244B02321A70FFF7E4F930
:10EE6000021EB1D0112818D03B789900CB189B0016
:10EE7000FD18E9684C006418281C29796B69174D46
:10EE8000A4002D680C300095154D6459A04704224C
:10EE9000144B1A70FFF7FAF996E708231C432C600D
:10EEA00092E700233B7081E75B465B69B1E73B7803
:10EEB0009800C01880003D18EB685C00E418DBE7A0
:10EEC0000122084B1A70FFF7E1F97DE7502D002071
:10EED000682C0020382D0020642D0020582D0020A3
:10EEE0003C2D0020552D0020542D00203C0F020009
:10EEF000602D002000100010F0B54E4657464546E4
:10EF00000823E0B48C4E82B03468234200D093E0F2
:10EF10008A4B1A68571C1F60894B1D68002D50D101
:10EF2000884B802299461B7852059D00ED18AB0056
:10EF3000984608234D469A464544AA4453469B6842
:10EF40001169581EEB880904C0182B89090CC018D8
:10EF500001F06AFD874200D282E07B4B00D17BE06A
:10EF60001F68002F00D19CE001231A1C224000D012
:10EF70008DE023433360754B1A70754B5869431C01
:10EF800000D1BEE080235B0519690904090C01F07A
:10EF90004BFD031C80225205106911690004013BDE
:10EFA000000C09045843090C01F03EFDFFF73CF941
:10EFB000021E49D0112800D0A7E009231C43346069
:10EFC00042E00421614B197080235B051F693F04F7
:10EFD0003F0C57435E4A5069421C3BD019690904F3
:10EFE000090C01F021FD80235B0519690138090432
:10EFF000090C41432A1C381CFFF714F9021E23D0C8
:10F0000011284AD04F4801788B005B189B00C51827
:10F01000281CE9684C006418A40029796B694D4DDF
:10F020000C302D6800954C4D6459A04704224B4B81
:10F030001A70FFF72BF907E09C43444B484A1B78B2
:10F0400034609B009B58984702B01CBC9046994680
:10F05000A246F0BD5869C6E71B68002B00D083E7C5
:10F0600002223A4B381C1A70FFF7DEF8021EEBD072
:10F07000112812D04B461B789900CB1849469B00AB
:10F08000CD18E968281C4C006418A400C5E70322C9
:10F090002E4B1A70FFF73EFCD6E708231C43346062
:10F0A000D2E7297904293DD053464046294C5B6874
:10F0B00024685A00D2186B690094274C9200484487
:10F0C0000C3014590022A0474B4601201A784946BB
:10F0D00093009B189B004B441F71DF80D8601F6119
:10F0E0005F611F814B465B780132013BD2B24B70AE
:10F0F0000A2A1DD00A700022184B1A70FFF7C6F8B2
:10F10000A2E780235B055B6944E74B461B789800C8
:10F11000C0184B4680001D18EB68281C5C00E418E2
:10F12000A4007AE701220D4B1A70FFF7AFF88BE7C6
:10F1300000230B70DFE7C046502D0020642D002017
:10F14000602D0020682C0020382D0020542D002038
:10F1500000100010582D00203C2D0020552D0020BF
:10F160003C0F020070B5274C82B023789800C0187D
:10F1700080002518281CEB6829795A00D2186B6981
:10F18000214D92002E680C300096204E9659002298
:10F19000B04700210126227893009B189B00E318BA
:10F1A0001971D980DE601961596119816378013262
:10F1B000013BDBB2D2B263700A2A0BD0227000216D
:10F1C000134E14483160144E01703160002B05D18C
:10F1D00002B070BD002222700022F0E793009A185E
:10F1E0009200A418E3882B602379032B07D0042B0B
:10F1F00005D0012BECD10370FFF748F8E8E7FFF7E3
:10F200001FF9E5E7682C0020582D00203C2D002038
:10F210005C2D0020552D0020342D0020F0B54746F0
:10F2200080B4654D04262C7882B0231CB3430ED0E5
:10F23000022810D003280AD10821604A1368194215
:10F2400058D0022C4FD0032C48D0012C46D002B00D
:10F2500004BC9046F0BD022C45D0032C59D0012CA3
:10F26000F5D10821554A1368194237D1544F5549F1
:10F270003B780E689A00D3189B00FA18D1888E1B31
:10F28000B6B2D680002E6ED1D168137948004118ED
:10F290009846101C53694C4A890012680C30009241
:10F2A0004A4A8A58414694460022E0473A789300F9
:10F2B0009B189B00FB181E71DE80DC601E615E6186
:10F2C0001E817B780132013BD2B27B700A2A66D064
:10F2D0003A7000232B70FEF7D9FFB8E78B43136019
:10F2E000FEF7D4FFB3E73A4B3A4A1B789B009B5892
:10F2F0009847ACE7384A136801331360032B35D0C5
:10F30000022CEDD1324B354A1B789B009B58984715
:10F310009DE70821294A13681942DFD1304B284E56
:10F320001A683478571C1F6080235B051969A30095
:10F3300098461B199B00F3181A690904501EDA88B5
:10F340001B898018C018090C01F06EFB8742C7D3D7
:10F350002CD0231C43449B00F3181B79042B20D092
:10F36000FFF700FF73E7FFF729FC70E71448027806
:10F3700093009B189B00C418201CE268636951002D
:10F380008A182179104C920024680C3000940F4C9C
:10F3900014590D22A0472E70FEF778FF57E73E70F4
:10F3A00097E701232B70FEF771FF50E70D4B1B68A9
:10F3B000002BCED194E7C046552D0020502D0020C3
:10F3C000682C0020342D0020582D00203C2D0020DA
:10F3D000542D0020280F02005C2D00203C0F02005D
:10F3E000642D0020382D002010B500202C24002290
:10F3F0000121464B18551434185502341A5302345F
:10F400001A531034185502341A530234D96018763E
:10F41000196259639964D9651A705A701A71DA8041
:10F420001A615A611A815A835A629A629A83DA85FA
:10F430009A63DA631A86DA641A651A665A661A5388
:10F440001034185502341A5302341A531034185514
:10F4500002341A530634195104341A5104341A511F
:10F460000C3C1A531034185502341A5306341951EF
:10F4700004341A5104341A510C3C1A5310341855E0
:10F4800002341A530634195104341A5104341A51EF
:10F490000C3C1A5310341855BA201A520630195021
:10F4A0001967C3315A5004315A500C395A525A67AD
:10F4B0009A67174B1A80174B5869431C22D0802338
:10F4C0005B0519690904090C01F0AEFA80235B059C
:10F4D0001B6902381B041B0C58430F4B002118609A
:10F4E00000230E4A002013600D4A136013815381DC
:10F4F0000C4A11700C4A13600C4A136004220C4B26
:10F500001A6010BD80235B055869DFE7682C002076
:10F51000482D0020001000104C2D0020642D0020EC
:10F520003C2D0020552D00205C2D0020342D002086
:10F53000502D0020F0B557464E464546E0B4344BBA
:10F540001A680823520705D4181C1CBC904699461B
:10F55000A246F0BD002857D0002955D00368002BE3
:10F5600052D080277F053A69868892B20723964257
:10F57000EAD80F2EE8D9C288002AE5D0254B72437D
:10F5800099461B68041C9846234B424458690D1C3D
:10F590009246431C3AD039690904090C01F044FA37
:10F5A00080225205136901381B041B0C58430723A2
:10F5B0008245C9D8B107C7D1184F033B3E88012EF9
:10F5C000C2D043466B600C232E60454673431448FB
:10F5D0000136C1184D6025681D50A5880D81E08851
:10F5E00048816843136911699BB21469C0180138D6
:10F5F00089B2A4B201F0A8FA231C4A46434343440B
:10F6000013603E8000239FE70E239DE77869C7E7DC
:10F61000502D00204C2D002000100010482D0020FF
:10F620003C2D002030B5114B1C680823640701D421
:10F63000181C30BD002806D0002A04D00368002B17
:10F6400003D00723F4E70E23F2E7094C2568002DC9
:10F65000F7D0258940686943091860896468684360
:10F6600000198142EDD213605160E1E7502D002076
:10F670003C2D0020F0B5474680B41E4C051C246884
:10F6800082B00820640703D402B004BC9046F0BDE9
:10F6900000292CD0002D2AD02C680138002CF3D161
:10F6A000154C2668002EEFD06E686789B046268913
:10F6B0007743B4466668BC19A045E5D2002AE3D07A
:10F6C0009445E1D3D418A445DEDB09308C07DBD1A7
:10F6D00003242342D8D146462642D5D1181C131CF8
:10F6E00000900A1C0120291CFEF774FFCCE70E20B5
:10F6F000CAE7C046502D00203C2D0020F0B54746FB
:10F7000080B41E4C051C246882B00820640703D412
:10F7100002B004BC9046F0BD00292CD0002D2AD0A8
:10F720002C680138002CF3D1154C2668002EEFD040
:10F730006E686789B04626897743B4466668BC1907
:10F74000A045E5D2002AE3D09445E1D3D418A445DE
:10F75000DEDB09308C07DBD103242342D8D14646B7
:10F760002642D5D1181C131C00900A1C0420291C09
:10F77000FEF730FFCCE70E20CAE7C046502D002030
:10F780003C2D0020F0B54F464646C0B4254C83B012
:10F79000256808246D0705D4201C03B00CBC9046D6
:10F7A0009946F0BD002906D0002804D00C68002C32
:10F7B00003D00724F0E70E24EEE71B4D2E68002E41
:10F7C000F7D04E682F89B4466E897E43B1466E6885
:10F7D000B0464E464644B445EBD2002AE9D09742A3
:10F7E000E7D3D618B742E4DB860701D01024D3E76D
:10F7F00003263342FAD167463E40F7D18846634438
:10F80000191C171C814601F091FA42460C2312681C
:10F81000009753434046ED580221321C4B46A847FF
:10F82000BAE7C046502D00203C2D0020F0B54F46D1
:10F830004646C0B4204A83B012680824530705D452
:10F84000201C03B00CBC90469946F0BD002830D077
:10F850000368013C002BF3D1184B1A68002AEFD043
:10F860001D895E895A686E434768B618B742E7D269
:10F870000934BB07E4D188468146291CB81A01F037
:10F8800059F9093C0029DBD14046291C01F052F905
:10F8900089B20029D4D14346002BD1D04744BE427F
:10F8A000CED30022032000924946FEF793FE041CAB
:10F8B000C6E70E24C4E7C046502D00203C2D002092
:10F8C00071DF704772DF704779DF70477DDF704707
:10F8D00065DF7047F0B50488051C83B00720012C54
:10F8E00004D01488A01C984202D90C2003B0F0BDAB
:10F8F0002E78012E04D16E7802363619B342F4D335
:10F90000023B1C1B6B460F1CA4B20818991D161C49
:10F91000DC80FFF7DBFF0028E8D12B78022B18D022
:10F92000012B11D0231C0821FE2BDED83288581C55
:10F93000B85432880020013292B23280B9543288F1
:10F9400001329B183380D1E76B789C42EBD2231CA9
:10F95000E9E76B46DB8809219C42E5D2231CE2E7FC
:10F96000F0B55F46564644464D46F0B485B09A46DB
:10F970000EAB80CB061C1B8800919B463B889046B3
:10F9800001930388002B5BD00023994602AB00242F
:10F99000DD1C03E033880134A3422ADD7368A10033
:10F9A0009C460422614403A801F0C0F903A8291C65
:10F9B0000022FFF78DFF002826D12B784345E9D19F
:10F9C0004B46002B27D043463A88D3185B4539DC99
:10F9D000524403A8291CFFF77BFF002814D13B8861
:10F9E0002A780134D3183B80012399463388A342F7
:10F9F000D4DC4B46002B23D03B88019A013B9B1A59
:10FA00009BB20C20FF2B18D905B03CBC9046994600
:10FA1000A246AB46F0BD42463B889A1802325A4590
:10FA200010DC69465246013309789BB23B80D154C1
:10FA30003A88013292B23A80CAE7111C52465354B6
:10FA40000020E1E70C20DFE7F0B55F4656464D4663
:10FA50004446031C0020F0B417881080586B87B010
:10FA6000002800D16FE10478022F18D90220112557
:10FA700008701088013080B210800D541088013059
:10FA800080B210800C5414880134A4B21480186B16
:10FA9000002800D177E0251C1235BD4207D90C2083
:10FAA00007B03CBC90469946A246AB46F0BD112536
:10FAB0000D551488013D0134A4B214800D551488ED
:10FAC0000134A4B21480C57B0D5514880134A4B24E
:10FAD0001480857B0D5514880134A4B21480457BB5
:10FAE0000D5514880134A4B21480057B0D5514887B
:10FAF0000134A4B21480C57A0D5514880134A4B21F
:10FB00001480857A0D5514880134A4B21480457A86
:10FB10000D5514880134A4B21480057A0D5514884B
:10FB20000134A4B21480C5790D5514880134A4B2EF
:10FB3000148085790D5514880134A4B21480457958
:10FB40000D5514880134A4B2148005790D5514881C
:10FB50000134A4B21480C5780D5514880134A4B2C0
:10FB6000148085780D5514880134A4B2148045782A
:10FB70000D5514880134A4B21480007808551488F7
:10FB80000134A4B214802E201D5C002D00D0DCE0D6
:10FB90001E1C2D23F35C151C8846002B00D0F7E0BB
:10FBA000B378002B00D024E1F378002B16D0E21CB0
:10FBB000BA4200D973E70222414640460A55012164
:10FBC0002A88013292B22A8081542A88013292B264
:10FBD0002A8083542C880134A4B22C807368002BB3
:10FBE00016D01A78E31CBB4200D958E702234146DD
:10FBF00040460B550A212B8801339BB22B80C15400
:10FC00002B8801339BB22B80C2542B8801332B806D
:10FC10003389002B00D010E1338A002B00D076E12D
:10FC2000338B002B00D08BE1336A002B4AD02A881B
:10FC30000C20911DB94200D932E7198805388B464E
:10FC4000052900D82CE7CC4C5C44A4B2A146CB4C8F
:10FC5000A446A14500D823E75C88A246052C00D81D
:10FC60001EE7C54C6946A146D1444C46CC81CC899F
:10FC7000644500D814E7C24CA34504D0A24502D085
:10FC8000D34500D90CE70521404681542A880D311F
:10FC9000013292B22A8081542A88013292B22A809B
:10FCA000198842441170090A51702A88023292B2AE
:10FCB0002A805988131C43441970090A59702B88EB
:10FCC00002332B80746A002C32D0A2882988131D3D
:10FCD0005B180C20BB4200D9E2E6931CFE2B00D936
:10FCE000DEE6434603325A54FF2241462B88013355
:10FCF0009BB22B80CA542B8801339BB22B80228865
:10FD000043441A70120A5A702B8802339BB22B801C
:10FD1000A288002A0CD0A1680538002900D1BFE6CE
:10FD20004344181C01F002F82A88A388D3182B80BA
:10FD30002C23F35C002B00D098E03378002B00D00C
:10FD4000DEE00020ACE60024A1E6E61C2238BE423C
:10FD500000D9A5E602260E551C241088013080B279
:10FD600010800C541088013080B21080022D00D118
:10FD70000FE100D806E1032D00D108E1042D00D0E9
:10FD8000F7E003240C5414880134A4B21480FFE675
:10FD900009340C20BC4200D982E604A8FFF790FD8C
:10FDA000002800D07CE6414608222B88CA542B88C4
:10FDB000133201339BB22B80CA5402AB9C460921FB
:10FDC0002888153A013080B228806144404400F010
:10FDD000ADFF2B8802AA0633127A9BB22B80002A31
:10FDE00000D001224146CA542C880134A4B22C8090
:10FDF000D6E604340C20BC4200D951E604A8FFF733
:10FE000063FD002800D04BE6032241462B88CA54EC
:10FE10002B88163201339BB22B80CA542B8802AA3E
:10FE200001339BB212892B8043441A70120A5A7014
:10FE30002C880234A4B22C80B6E6341C0834009519
:10FE40000197201C022102224346FFF789FD00286A
:10FE500000D025E600950197201C0621102243467C
:10FE6000FFF77EFD002800D01AE6D5E6B46A002C24
:10FE700000D17EE0A3880233FE2B00D90FE60022DA
:10FE80009146163292461632288893460BE04B462E
:10FE90005C00B36A4C449C46A4006444A3880233CB
:10FEA000FE2B00D9FBE542465146013313542B8803
:10FEB00001339BB22B80D1542B8801339BB22B8012
:10FEC000228843441A70120A5A702888023080B27D
:10FED0002880A288002A0AD0A168002949D040447D
:10FEE00000F024FF2888A388C01880B228804B46E1
:10FEF0000133DBB299465B46F35C4B45C7D81CE740
:10FF0000301C41462A1C3B1CFFF7E4FCC8E5341CAE
:10FF1000103400950197201C032102224346FFF76D
:10FF20001FFD002800D0BBE500950197201C07218C
:10FF300010224346FFF714FD002800D0B0E56FE61D
:10FF4000341C183400950197201C142102224346CA
:10FF5000FFF706FD002800D0A2E500950197201CC0
:10FF6000152110224346FFF7FBFC002800D097E53F
:10FF70005AE6072094E5C0467FF3FFFF7DF30000BB
:10FF8000FFFF0000012DF4D100240C54FBE60E54B9
:10FF9000F9E601240C54F6E6F0B54E4657464546C0
:10FFA0001F23E0B496B002AA041C0E1CD3810028C3
:10FFB00000D171E0C3785B0767D5002302AA938163
:10FFC000436B002B00D13EE11B78022206ADAB70E3
:10FFD00003230327052104202A700F326A7002AA26
:10FFE0009381226B002A3AD0112306ADEB55013BD9
:10FFF0002B54D37B6B54907B4B1CE854507B8B1C55
:020000022000DC
:10000000E854107BCB1CE854D07A0B1DE854907A4E
:100010004B1DE854507A8B1DE854107ACB1DE854E0
:10002000D0790133E85490790133E85450790133A1
:10003000E85410790133E854D0780133E8549078CB
:100040000133E854013302A883815078E854013326
:1000500002A883811278EA54013383819BB22E2255
:10006000A25C002A00D0F1E12D22A25C002A00D07F
:1000700011E1A278002A00D03DE1E278002A35D0D3
:10008000D91C1F2925D90C2000E0072016B01CBC64
:1000900090469946A246F0BD002502AB9881002EFD
:1000A00000D1D4E0F378002BEFD102AA94460E23BE
:1000B0006344301C0EA91A1CFFF7C6FC0028E5D1CA
:1000C00002AB9B7B0EAA02A9097B281CFFF7FAFB57
:1000D000DCE70220012706ADE854581C02339BB22E
:1000E00080B22F54EA548BB202AA93816268002A2C
:1000F0000FD01078DA1C1F2AC5D802210A2706ADB6
:10010000E954591C02339BB289B26F54E85402ABD4
:100110009A812389002B00D09EE0238A002B00D0F7
:100120000AE1238B002B00D025E1236A002B43D06A
:1001300002AA92890C20911D1F29A7D818888246EF
:1001400055460720052DA1D9D24D5544ADB2AC4638
:10015000D14DA846AC4599D95D88A946052D00D852
:1001600094E7CC4D6F46AC46CC446546FD81FD8995
:10017000454500D88AE7C94DAA4504D0A94502D013
:10018000CA4500D982E70520122706ADA854501CA5
:1001900080B22F54901C80B202AFB8811F882818FB
:1001A00007703F0A477004325B8892B2AD182B701B
:1001B0001B0A6B7002AB9981676A002F2FD0BB8836
:1001C0000C20991C02AB9B899A1C55181F2D00D935
:1001D0005CE7FE2900D959E706AD0131E954591C05
:1001E00089B2F330685492B202A98A813988AA1878
:1001F0000433117098B2090A02AB51709881BA8821
:10020000002A0CD0B968002900D13EE7281800F078
:100210008DFD02ABBA889B89D31802AA93812C2347
:10022000E15C002900D0C5E006AD2378002B00D1A9
:1002300035E7201C291C05AA1F23FFF74BFB0028CC
:1002400000D12CE722E7002702210120C9E602ABFA
:10025000DE810022002336E705AB271C00931F2315
:10026000083706AD98460193381C022102222B1C48
:10027000FFF776FB002800D008E705AB0093434664
:10028000381C0193062110222B1CFFF769FB002864
:1002900000D0FBE641E709330C201F2B00D9F5E61F
:1002A0000EA8FFF70DFB002800D0EFE6082202ABF6
:1002B0009B8906ADEA545A1C023398B21B2102AB4B
:1002C0009C4692B2A954163198816144062228189E
:1002D00000F02CFD302002AB02A99B890918097897
:1002E0009A1D92B2002900D001210733A9549BB274
:1002F00002AA9381BDE604330C201F2B00D9C5E66A
:100300000EA8FFF7E1FA002800D0BFE6032219216A
:1003100002AB9B8906ADEA545A1C92B2A95402AAB8
:10032000118E9A1C92B2AD18043329709BB2090A3F
:1003300002AA69709381A0E605AB271C00931F23D6
:10034000103706AD98460193381C032102222B1C5E
:10035000FFF706FB002800D098E605AB0093434664
:10036000381C0193072110222B1CFFF7F9FA0028F3
:1003700000D08BE6D5E605AB271C00931F2318376A
:1003800006AD98460193381C142102222B1CFFF75E
:10039000E7FA002800D079E605AB00934346381C05
:1003A0000193152110222B1CFFF7DAFA002800D048
:1003B0006CE6BAE6A76A002F00D166E6BB88023376
:1003C000FE2B00D95FE602AA9089002290461632E1
:1003D00091461632924606AD4A4601332B54431CD1
:1003E0009BB2EA54831C9BB202AA93813A88EB1811
:1003F0001A700430120A5A7080B202AB9881BA881F
:10040000002A0FD0B968002900D13EE6281800F074
:100410008DFC02AB9B89B888C01880B202AB988172
:100420005346E15C43460133DBB298468B4200D32E
:10043000FBE643465F00A36A47449C46BF0067440F
:10044000BB880233FE2BC7D90C201FE602201C27D5
:10045000591C06AD89B2E8546F54191889B282420A
:100460000CD010D9032A0CD0042A00D00DE60322A8
:100470006A5403339BB202AA9381F5E501226A54C0
:10048000F7E76854F5E7012A00D0FEE500226D1871
:100490002A70EEE77FF3FFFF7DF30000FFFF00000F
:1004A00075DF704776DF70477ADF70477BDF704714
:1004B00010B5184B82B01888174B984214D0174AC1
:1004C000174C13780133DBB21370217B99420DD2A4
:1004D00000231370237C002B12D16369002B03D0FF
:1004E000002201A80270984702B010BD0D49FFF725
:1004F000D7FF0028F8D0A369002BF5D09847F3E781
:100500003B21FFF7CFFF0028E7D0A369002BE4D001
:100510009847E2E7B42D0020FFFF0000742D002073
:10052000782D0020B82D002030B51B4B1B4A5B886E
:10053000118883B099420FD852889A420CD3184B35
:100540005B69002B03D0012201A802709847154C6B
:100550000023237003B030BD124C2378002B08D049
:100560000F4B5B69002BF3D0002201A80270984763
:10057000EEE70D4B0A4D1B78002B0BD0A9680B48FA
:100580000022FCF7DBFD0028E2D0AB69002BDFD0B6
:100590009847DDE76968F2E76C2D0020B82D002050
:1005A000782D0020682D0020742D0020942D00202F
:1005B000164938B5021C0B1C32CA32C332CA32C3C8
:1005C00012681A600022124B01681A70002916D0B6
:1005D000104C0832201C00F0A9FB201CFFF764FF20
:1005E00000280BD101220C4B52421A8000220B4BE7
:1005F0000B481A7000210B4AFCF786FD38BD0548F0
:10060000FFF754FF0028EDD0F8E7C046782D002012
:10061000682D0020B82D0020B42D0020742D00205E
:10062000500F0200B104020010B50388112B31D025
:100630001FD9122B16D0502B1AD11F4CC288E38918
:100640009A4215D1038A022B12D1837CDB070DD489
:100650001A48FCF7EFFD00280AD0A369002B07D049
:10066000984705E0164B083006C806C3FFF75CFF45
:1006700010BD102BFCD18288124B18301A80104B01
:1006800006C806C30022104B1A700B4BDB89002BE7
:10069000EED1EBE701220B4B52421A8000220A4BAB
:1006A00006481A70FCF7C6FD0028E1D0024B9B6992
:1006B000002BDDD09847DBE7782D0020942D00201B
:1006C0006C2D0020B42D0020742D0020304B1B78A1
:1006D000012B00D070472F4B1B681B07FAD1F0226B
:1006E0002D4B1B68134027D12C4B1B68134229D07C
:1006F000284B1B681B07EDD1F022274B1B681340CA
:10070000402B32D0244B1A68F0231340A02B01D089
:10071000D02BDFD1214B1A68F0231A42DAD1204ABC
:100720001368012B04D01F4B13601368012BFCD1FD
:10073000C0221D4B1A60CDE7102B0FD1174B1B6841
:100740001342D9D1194A1A4B1A608022194B12024E
:100750001A600F4B1B78012BCAD0BBE7302BCBD1D3
:100760000E4B1B681342C7D1ECE70C4B1B681342BE
:10077000C8D1C12380220121DB00D205D150044B16
:100780001B78012BA6D1034B1B681B07BAD0A1E72E
:10079000E00F00F0E40F00F0E80F00F0EC0F00F0C5
:1007A00000EC06407593000014EC0640DFFF07C024
:1007B00004050040186C004052DF704710DF70479E
:1007C00060DF704761DF704708B5FCF74FF908BD7F
:1007D000F0B557464E464546E0B42F4B2F4E1D68A8
:1007E00099466B425D412E4BB2461C689846634267
:1007F0005C412C4F82B0EDB2E4B2002D08D0002C49
:1008000023D002B01CBC90469946A246F0BD0124FC
:1008100001A8FFF7D1FF05282DD0002826D0FCF72E
:1008200015F9002CF3D16A461C4B01A91B88938053
:100830001C4B1C68201CFFF7C5FF0528E7D00028CB
:100840000ED0FCF703F90024D7E73C68338801A9F0
:10085000201C0B80FFF7B6FF0528D2D00028F0D16E
:100860004346201C1B6898470024C6E74B46019866
:100870001B689847D5E7002CC3D153466A461B88AE
:1008800001A99380074B01251C68201CFFF79AFFE4
:100890000528D4D1B5E7C046C82D0020C22D0020C0
:1008A000CC2D0020C42D002038B5041C07200029C1
:1008B00001D08D0700D038BD124801601249201CBC
:1008C0000A80124A12491360FFF778FF0028F2D11C
:1008D0000122104B1A70C5220F4B92009A585202F7
:1008E00007D50E4A5068002805D18022D2031A602D
:1008F000E1E70B48DFE780211368C9030B4313606E
:100900000020D8E7C42D0020C22D0020D02D0020CB
:10091000C9070200C02D002000E100E0482E0020A1
:1009200002200000002803D0024B1860002070470E
:100930000E20FCE7CC2D0020002803D0024B1860CD
:10094000002070470E20FCE7C82D002008B5094B99
:100950001B68002B06D09847002800D108BDFCF783
:1009600075F8FBE7044B1B78002BF7D0FFF730FF3F
:10097000F4E7C046D02D0020C02D002070B5141C17
:10098000051C0E1C101C00211422FAF741FC002348
:1009900001222361237B2280934323732672657295
:1009A000002D01D00123A372002070BD0020034B55
:1009B00082B00193019B02B07047C046002800201E
:1009C00000B5054B83B00193019B69460093FFF787
:1009D000F7FE03B000BDC0460028002003210A48EE
:1009E00002680A430260094802680A430260084933
:1009F000084A094B9B1A03DD043BC858D050FBDC66
:100A0000FFF764FEFAF78CFB240500405405004014
:100A1000600F02000028002074280020FEE7FEE797
:100A2000FEE7FEE7FEE7FEE7002243088B4274D3B1
:100A300003098B425FD3030A8B4244D3030B8B42DF
:100A400028D3030C8B420DD3FF22090212BA030CE8
:100A50008B4202D31212090265D0030B8B4219D3C9
:100A600000E0090AC30B8B4201D3CB03C01A5241E9
:100A7000830B8B4201D38B03C01A5241430B8B4231
:100A800001D34B03C01A5241030B8B4201D30B031A
:100A9000C01A5241C30A8B4201D3CB02C01A524141
:100AA000830A8B4201D38B02C01A5241430A8B4204
:100AB00001D34B02C01A5241030A8B4201D30B02ED
:100AC000C01A5241CDD2C3098B4201D3CB01C01A07
