:020000021000EC
:10B0000000800020053D0200453D0200473D020052
:10B010000000000000000000000000000000000030
:10B02000000000000000000000000000493D020098
:10B0300000000000000000004B3D02004D3D0200FA
:10B040004F3D02004F3D0200C5EE01004F3D0200A2
:10B050004F3D020000000000A5F801004F3D020036
:10B0600095010200B5010200D50102004F3D02002A
:10B070004F3D02004F3D02004F3D02004F3D020098
:10B080004F3D0200A1E601004F3D02004F3D02008E
:10B09000EDE601004F3D0200113C02004F3D020071
:10B0A0004F3D02004F3D0200000000000000000084
:10B0B0000000000000000000000000000000000090
:10B0C00010B5064C2378002B07D1054B002B02D07E
:10B0D000044800E000BF0123237010BD7828002041
:10B0E00000000000BC42020008B5084B002B03D052
:10B0F0000748084900E000BF07480368002B00D15B
:10B1000008BD064B002BFBD09847F9E70000000074
:10B11000BC4202007C2800207428002000000000AF
:10B12000164B002B00D1144B9D46402292029A1AD6
:10B13000924600218B460F461348144A121A00F01B
:10B1400067F80F4B002B00D098470E4B002B00D018
:10B1500098470020002104000D000D48002802D06F
:10B160000C4800E000BF00F02DF82000290000F09E
:10B1700071F800F011F8C0460000080000800020BF
:10B18000000000000000000078280020802E002031
:10B190000000000000000000084B10B5041C002B4C
:10B1A00002D0002100E000BF054B1868836A002B25
:10B1B00000D09847201C00F033F8C0460000000083
:10B1C000B04002000E4B70B500251E1C0D4CE41A59
:10B1D000A410A54204D0AB00F35898470135F8E716
:10B1E00008F058FF084B00251E1C084CE41AA41058
:10B1F000A54204D0AB00F35898470135F8E770BD7D
:10B200006C2800206C2800206C280020702800206A
:10B21000031C8218934202D019700133FAE7704779
:10B22000FEE7C04648DF7047181CC04680B582B0B4
:10B2300000AFFFF7F7FF031C7B607B683B603B6858
:10B24000002B03D03B68181C02F08AFBBD4602B0FD
:10B2500080BDC04680B582B000AF0C4B00200521F8
:10B260001A1C002303F048FA031C7B607B683B60D8
:10B270003B68002B03D03B68181C02F071FB00F008
:10B2800049F800F077F8FFF7D1FFFAE7942800209B
:10B2900080B582B000AF786000F09AFB00F066FBEA
:10B2A000BD4602B080BDC04680B582B000AF094B3C
:10B2B000181C03F02DFB031C7B607B683B603B6824
:10B2C000002B03D03B68181C02F04AFBBD4602B0BD
:10B2D00080BDC0465C2A002080B582B000AF00F07F
:10B2E0005DFB0B4AA023DB02101C191C002203F09B
:10B2F000D7FA031C7B607B683B603B68002B03D064
:10B300003B68181C02F02CFBBD4602B080BDC04655
:10B310005C2A002080B582B000AF00F01BFB124B0E
:10B32000181C00F0D9FD031E04D0C04600F06CFDCF
:10B33000031EFBD100F026FF00F030FB0B4A0C4B44
:10B34000101C00211A1C03F05BFA031C7B607B6855
:10B350003B603B68002B03D03B68181C02F000FBED
:10B36000BD4602B080BDC046B8400200B4400200F5
:10B3700091B2010080B500AF01F008F8BD4680BD74
:10B3800073DF7047181CC04674DF7047181CC04636
:10B3900076DF7047181CC04678DF7047181CC0461F
:10B3A0007ADF7047181CC0467CDF7047181CC04607
:10B3B0007FDF7047181CC0468ADF7047181CC046E4
:10B3C000A9DF7047181CC04680B582B000AF786016
:10B3D000002000F03BFFBD4602B080BD80B588B0C4
:10B3E00000AF3B1D1A780F218A43111C01220A432A
:10B3F0001A703B1D1A780F210A40111C10220A43B3
:10B400001A70294B181C08F03DFE031C9BB2391D15
:10B41000254A081C111C1A1CFFF7C6FF031CFB6100
:10B42000FB69BB61BB69002B03D0BB69181C02F030
:10B4300097FAC0239B00181CFFF7AEFF031CFB61AB
:10B44000FB697B617B69002B03D07B69181C02F0D0
:10B4500087FA0823FB18181C00210822FFF7D8FEE2
:10B460000823FB1850221A800823FB18A0225A80B8
:10B470000823FB1800229A800823FB18C8225200D8
:10B48000DA800823FB18181CFFF78AFF031CFB61F6
:10B49000FB693B613B69002B03D03B69181C02F040
:10B4A0005FFABD4608B080BDF840020080B584B0A8
:10B4B00000AF3B1D181C00210422FFF7A9FE0B4B17
:10B4C0007B600B4A3B1D101C191C00F00BFC031C7D
:10B4D000FB60FB68BB60BB68002B03D0BB68181C1B
:10B4E00002F03EFABD4604B080BDC046C9B30100BB
:10B4F000942A002080B584B000AF78607B681B7808
:10B50000002B10D1094B1B88181C3B21FFF740FF73
:10B51000031CFB60FB68BB60BB68002B03D0BB68EF
:10B52000181C02F01DFABD4604B080BD6228002040
:10B5300080B582B000AF78607B68181C02F010FA0A
:10B54000BD4602B080BDC04680B58AB000AF3B1D8D
:10B55000181C00211C22FFF75BFE3B1D00221A6015
:10B560003B1DA02292025A603B1DF02212039A60FA
:10B570003B1D03221A733B1D0022DA813B1D002272
:10B580001A743B1D0B4A5A613B1D0B4A9A613B1DC5
:10B59000181C07F00FFF031C7B627B6A3B623B6A4F
:10B5A000002B03D03B6A181C02F0DAF9BD460AB042
:10B5B00080BDC046F5B4010031B5010080B584B04E
:10B5C00000AF78600A1CFB1C1A70FB1C1B781B2B3D
:10B5D00023D17A68124B101C191C0C2208F03AFD7A
:10B5E000031E1AD10F23FB187A68127C1A700F23DE
:10B5F000FB181B78062B10D80A4B1B780F22BA18A1
:10B6000012789A4209D0074B0F22BA1812781A7092
:10B61000044B1B78181C00F019FEBD4604B080BD19
:10B62000EC4002006028002080B58AB000AF78604E
:10B630007B6804337B627B681B88103B452B00D9F9
:10B640007AE09A003E4BD3181B689F467B6A04330E
:10B650003B623B6A1B7A01221340DBB2002B0BD109
:10B660003B6A09331A1C3B6A1B7A1B06DB0EDBB2F2
:10B67000101C191CFFF7A2FF5FE07B6A1B79002BEF
:10B680000FD1304B181CFFF77BFE031CFB61FB69DD
:10B69000BB61BB69002B04D0BB69181C02F060F9C8
:10B6A000FFE77B6A1A88284B1A80FFF7FDFD44E00C
:10B6B000254B012252421A80FFF70EFE3DE0224B3D
:10B6C0001B88181C852100220023FFF771FE031C34
:10B6D000FB61FB697B617B69002B04D07B69181CD3
:10B6E00002F03EF929E028E0174B1B88181C0021C6
:10B6F00000220023FFF764FE031CFB61FB693B6132
:10B700003B69002B04D03B69181C02F029F914E0B6
:10B7100013E00D4B1B88181C1321FFF739FE031C87
:10B72000FB61FB69FB60FB68002B04D0FB68181C05
:10B7300002F016F901E000E0C046BD460AB080BD47
:10B74000044102007C2A00206228002080B582B0DB
:10B7500000AF78607B68181C07F06EFF064A7B68B4
:10B76000101C191C00F090FA7B68181CFFF75CFF96
:10B77000BD4602B080BDC046942A002080B58EB080
:10B7800000AF1423FA18304B111C1A1C0423081C98
:10B79000111C1A1C08F06DFC1423FA182B4B101CFA
:10B7A000191C4822002308F0C5F9031C7B637B6B3E
:10B7B0003B633B6B002B03D03B6B181C02F0D0F8B3
:10B7C0003B1C012001211A1C08F040FA031CFB62FB
:10B7D000FB6ABB62BB6A002B03D0BB6A181C02F079
:10B7E000BFF81B4B7B627B6A181C08F05FFA031CD6
:10B7F000FB62FB6A3B623B6A002B03D03B6A181C6E
:10B8000002F0AEF83B1C181C08F064FA031CFB6243
:10B81000FB6AFB61FB69002B03D0FB69181C02F07B
:10B820009FF80C4B181C08F0CBF9031CFB62FB6A59
:10B83000BB61BB69002B03D0BB69181C02F090F8F8
:10B84000BD460EB080BDC04600410200B82A0020AF
:10B85000182400204DB7010080B58AB000AF1F2327
:10B86000FB18F8221A70354B7B60354B181C0021F1
:10B870003822FFF7CDFC324B02221A70304B0122E6
:10B880009A702F4B0522DA702D4B1F22BA185A607E
:10B890000823FA183B1D101C191C042208F0E9FBB0
:10B8A0000823FB1801221A711023FB1805229A8025
:10B8B0001023FB180822BA189A601023FB18214A9B
:10B8C0001A801F4B1022BA185A621F4B181C0021F5
:10B8D0003822FFF79DFC1C4B01221A821A4B1B4A8F
:10B8E0005A61174A184B101C191C07F03BFC031C2B
:10B8F0007B627B6A3B623B6A002B03D03B6A181C6D
:10B9000002F02EF8124B181C00211822FFF780FCC1
:10B910000F4B00221A700E4B00225A600C4B002273
:10B920001A720B4B0022DA60094B64221A82084B10
:10B93000B4225A82BD460AB080BDC04678895612EC
:10B94000002B0020FE0F0000382B00206428002070
:10B950007C2A002080B500AFFFF710FFFFF73EFD07
:10B96000FFF7A4FDFFF7F0FDBD4680BD80B582B0B6
:10B9700000AF094B181CFFF71FFD031C7B607B68A1
:10B980003B603B68002B03D03B68181C01F0E8FFCC
:10B99000BD4602B080BDC046DC40020080B582B02A
:10B9A00000AFFFF759FF094B181CFFF7E9FC031C18
:10B9B0007B607B683B603B68002B03D03B68181CB6
:10B9C00001F0CEFFBD4602B080BDC0467C2A0020FB
:10B9D00080B582B000AFFFF7D7FC031C7B607B68AB
:10B9E0003B603B68002B03D03B68181C01F0B8FF9C
:10B9F000BD4602B080BDC04680B500AFBFF34F8FDB
:10BA0000034B044ADA60BFF34F8FC046FDE7C046E0
:10BA100000ED00E00400FA05A0DF7047181CC046E6
:10BA2000A2DF7047181CC04663DF7047181CC04671
:10BA300080B582B000AF786039603B689A887B68D7
:10BA40009A83BD4602B080BD80B582B000AF7860F9
:10BA500039607B68012252429A83BD4602B080BDA4
:10BA600080B584B000AF786039603B680633FB6016
:10BA7000FB680C33002B41D0FB685B89002B3DD069
:10BA8000FB681A887B689B889A4210D1FB680C334C
:10BA90001A1CFB685B89DBB20020111C1A1C00F029
:10BAA000C9F97B681B6A7A68101C984726E0FB6816
:10BAB0001A887B689B899A420BD1FB680C331A1C4D
:10BAC000FB685B89DBB20520111C1A1C00F0B2F97F
:10BAD00014E0FB681A887B689B8A9A420ED1FB6847
:10BAE0001B7BA92B0AD1FB685B89012B06D1802324
:10BAF000DB05044AB1219950FFF77EFFBD4604B033
:10BB000080BDC0461C05000080B592B000AFF86053
:10BB1000B960191CFB1D1A70BB1D0A1C1A702C235E
:10BB2000FB18181C00211C22FFF772FBFB1D1B7861
:10BB3000002B05D02C23FB181A7802210A431A7017
:10BB40002C23FB181A7808210A431A702C23FB189F
:10BB50001A7804210A431A702C23FB1800225A6019
:10BB60002C23FB180022DA602C23FB1800221A6118
:10BB70002C23FB1800225A612C23FB1800229A6107
:10BB8000FB681A781423FB189A701423FB185022B0
:10BB9000BA1812881A801023FB18181C00210322DF
:10BBA000FFF736FB1023FB181A780F218A43111C6C
:10BBB00001220A431A701023FB181A780F210A4039
:10BBC000111C10220A431A701023FB185A780F21F7
:10BBD0008A43111C01220A435A701023FB185A7819
:10BBE0000F210A40111C10220A435A701023FB181F
:10BBF0009A7806218A43111C04220A439A70102362
:10BC0000FB189A7808218A439A701023FB189A78B7
:10BC100010218A439A701023FB189A7801218A43D5
:10BC20009A701823FB18181C00211422FFF7F0FA51
:10BC30001823FB181422BA181A601823FB181022B4
:10BC4000BA185A60BB1D1B789AB21823FB181A81C8
:10BC50001823FB1800225A81BB1D1B789AB21823A7
:10BC6000FB189A811823FB187A6D1A61FB685888B3
:10BC70002C23F9181823FA18BB68FFF7D1FE031C10
:10BC8000181CBD4612B080BD80B582B000AF786090
:10BC900039607B68002B02D03B68002B00D11DE08F
:10BCA0003B681B88112B0BD0502B10D0102B00D0D1
:10BCB00014E07A683B68101C191CFFF7B9FE0DE010
:10BCC0007A683B68101C191CFFF7BEFE06E07A6814
:10BCD0003B68101C191CFFF7C3FEC046BD4602B0EE
:10BCE00080BDC04680B58AB002AF78603960082355
:10BCF000FA18414B111C1A1C1023081C111C1A1C89
:10BD000008F0B7F97B68002B02D03B68002B01D10B
:10BD10000E236DE07B68012252429A833B681A68C9
:10BD20007B681A627B680822BA18101C191CFFF77E
:10BD30007BFE031CFB61FB69002B01D0FB6957E014
:10BD40007B681A781823FB189A701823FB180122B5
:10BD50001A807B6802331822BA180120111C1A1CA1
:10BD6000FFF75AFE031CFB61FB69002B01D0FB6946
:10BD70003EE07B681A1D7968052300931F4B0193F1
:10BD8000081C111C01220523FFF7BEFE031CFB61EA
:10BD9000FB69002B01D0FB692AE07B680C331A1C7D
:10BDA00079680A230093164B0193081C111C012289
:10BDB0001E23FFF7A9FE031CFB61FB69002B01D0CA
:10BDC000FB6915E07B6814331A1C79680F23009314
:10BDD0000C4B0193081C111C01220123FFF794FE58
:10BDE000031CFB61FB69002B01D0FB6900E0002311
:10BDF000181CBD4608B080BD1C420200042E002065
:10BE0000092E0020272E002080B582B000AFFB1D38
:10BE100000221A70064B1B78012B02D0FB1D012259
:10BE20001A70FB1D1B78181CBD4602B080BDC046B1
:10BE30006828002080B584B000AF3960111CFB1D5C
:10BE4000021C1A70BB1D0A1C1A700F23FB1801225A
:10BE50001A700E23FB1800221A7014E00E23FB1830
:10BE60001A78FB1D1B78D3180E22BA18127839687D
:10BE70008A181178154AD1540E23FB181A780E230C
:10BE8000FB1801321A700E23FA18BB1D12781B78AA
:10BE90009A42E3D30E4B05221A700E4A0B4B101C2C
:10BEA000191C2822002305F0B9FF031CBB60BB68E6
:10BEB000002B03D00F23FB1800221A700F23FB184E
:10BEC0001B78181CBD4604B080BDC046842B0020E2
:10BED00068280020742B002080B588B000AF7860FF
:10BEE0001F23FB1801221A70334B181C07F07CFE2D
:10BEF000031CBB61BB697B617B69002B03D07B6941
:10BF0000181C01F02DFD05F037FD031C3B613B695A
:10BF1000002B45D10823FB1828229A800823FB1800
:10BF20000122DA800823FB18244A1A600823FA1831
:10BF3000234B101C191C05F081FD031C3B613B6960
:10BF4000002B28D11E4A1F4B101C00211A1C05F083
:10BF500037FE031C3B613B69002B17D11A4B7A68F3
:10BF60001A601A4B02221A70194A164B101C191C1F
:10BF70000422242306F004F8031C3B613B69002BD8
:10BF800012D01F23FB1800221A700DE01F23FB188C
:10BF900000221A7008E01F23FB1800221A7003E029
:10BFA0001F23FB1800221A701F23FB181B78181C74
:10BFB000BD4608B080BDC046D5BF0100EDBF010041
:10BFC000742B00207C2B0020AC2B00206828002044
:10BFD000702B002080B582B000AF78607B68181CA1
:10BFE00005F054FBBD4602B080BDC04680B586B0AA
:10BFF00000AFF8607A603B600B23FB180A1C1A70D4
:10C000000B23FB181B78022B19D002DC012B06D066
:10C01000A1E0032B00D16FE0042B5DD09BE07B6897
:10C02000002B07D14D4B1B78042B07D14B4B012222
:10C030001A7003E0494B00221A708CE08BE07B6899
:10C04000002B44D1454B1B78022B31D1444B1B684C
:10C05000444A934213D1414B03221A70424A434B44
:10C06000101C191C2822002305F08AFF031C7B6189
:10C070007B69002B2FD0394B00221A702BE03C4BF0
:10C080001B683C4A101C191C242207F0F2FF334B9A
:10C0900006221A70384B181C282106F037F8031CAA
:10C0A0007B617B69002B16D02C4B00221A7052E06A
:10C0B0002A4B1B78032B0ED12E4A2B4B101C191C1C
:10C0C000242207F0D6FF254B01221A7003E0234BF0
:10C0D00000221A703FE03EE07B68002B07D11F4B27
:10C0E0001B78052B07D11D4B01221A7003E01B4B57
:10C0F00000221A702FE02EE07B68002B26D1174B10
:10C100001B78062B26D11A4B1B68174A101C191CCA
:10C11000242207F0AEFF194A194B101C191C0422E7
:10C1200007F0A7FF0D4B04221A70104A0E4B101C8B
:10C13000191C2822002305F0BFFD031C7B617B69CD
:10C14000002B07D0054B00221A7003E0034B00229E
:10C150001A70FFE7C046BD4606B080BD68280020C3
:10C16000702B002066442200842B00207C2B0020B2
:10C17000AC2B0020042E0020742B0020A82B0020C4
:10C180002C42020090B58FB000AF1823FB18284A4C
:10C1900013CA13C303CA03C33B1D264A13CA13C3DE
:10C1A00003CA03C31823FB1800221A721823FB18B2
:10C1B00000225A723B1D00221A723B1D00225A7245
:10C1C0001D491823FA181D4B081C111C1A1C01F0DC
:10C1D000F7F9031C7B637B6B3B633B6B002B03D04A
:10C1E0003B6B181C01F0BCFB15493A1D134B081C96
:10C1F000111C1A1C01F0E4F9031C7B637B6BFB62CE
:10C20000FB6A002B03D0FB6A181C01F0A9FB0A4B48
:10C21000181C01F041FB0A4B181C01F03DFB094BB7
:10C2200001221A70084B01221A70BD460FB090BD52
:10C23000504202006442020038420200E1C40100A0
:10C2400048420200B02B0020B12B002080B584B002
:10C2500000AF021CFB1D1A700F23FA18FB1D1B7880
:10C26000191C8900CB1813700F23FB181B781A1D9B
:10C270000E23FB183B498A5C1A700E23FB181B78AF
:10C280006420191C07F0F4FD031CDAB2364B1A7057
:10C290000F23FB181B78334AD35C9AB2334B1B78BD
:10C2A0009BB2D31A9BB29BB21BB20E22BA18127861
:10C2B0005343181C642107F0DBFD031CDAB22C4B3E
:10C2C0001A700F23FB181B780133264AD35C9AB2ED
:10C2D000284B1B789BB2D31A9BB29BB21BB20E2287
:10C2E000BA1812785343181C642107F0C1FD031CCF
:10C2F000DAB2214B1A700F23FB181B780233194A4C
:10C30000D35C9AB21D4B1B789BB2D31A9BB29BB2E3
:10C310001BB20E22BA1812785343181C642107F07E
:10C32000A7FD031CDAB2164B1A700F23FB181B78FB
:10C3300003330C4AD35C9AB2124B1B789BB2D31ACC
:10C340009BB29BB21BB20E22BA1812785343181C30
:10C35000642107F08DFD031CDAB20B4B1A70BD4649
:10C3600004B080BD042E0020B62B0020B22B00208C
:10C37000B72B0020B32B0020B82B0020B42B0020BB
:10C38000B92B0020B52B0020BA2B002080B500AFC0
:10C3900084E0464B1A78464B1B78DBB2D318DAB2EE
:10C3A000424B1A70C046434B1B78DBB2012253400C
:10C3B000DBB2002BF7D1C0463C4B1B789BB23E4A08
:10C3C000101C00211A1C00F0DBFF031E112BF3D000
:10C3D0003A4B1A783A4B1B78DBB2D318DAB2374BA8
:10C3E0001A70C046334B1B78DBB201225340DBB2DC
:10C3F000002BF7D1C046314B1B789BB22E4A101C44
:10C4000001211A1C00F0BCFF031E112BF3D02D4B91
:10C410001A782D4B1B78DBB2D318DAB2294B1A707D
:10C42000C0462A4B1B78DBB201225340DBB2002B03
:10C43000F7D1C046234B1B789BB2254A101C002124
:10C440001A1C00F09DFF031E112BF3D0214B1A780C
:10C45000214B1B78DBB2D318DAB21E4B1A70C046E0
:10C460001A4B1B78DBB201225340DBB2002BF7D111
:10C47000C046184B1B789BB2154A101C01211A1C90
:10C4800000F07EFF031E112BF3D0642002F020FD8C
:10C49000124B1B78013BDAB2104B1A700F4B1B7812
:10C4A000002B00D075E7BD4680BDC046B22B0020F2
:10C4B000B72B0020B02B002038420200B32B002005
:10C4C000B82B0020B42B0020B92B0020B12B00206A
:10C4D00048420200B52B0020BA2B0020B62B0020CA
:10C4E00080B582B000AF78607B68002B03D1064B2B
:10C4F00001221A7005E07B68012B02D1034B012257
:10C500001A70BD4602B080BDB02B0020B12B0020B8
:10C5100080B582B000AF78600A1CFB1C1A70FB1C4F
:10C520001B787A68D318181CBD4602B080BDC0467F
:10C5300080B582B000AF78600A1CBB1C1A80BB1C9F
:10C540001B887A68D318181CBD4602B080BDC0464F
:10C5500080B582B000AF78607A68A223DB00D35840
:10C56000DBB2181CBD4602B080BDC04680B582B0AB
:10C5700000AF78600A1CFB1C1A70FB1C1A787B68E1
:10C580005132FF329200D358181CBD4602B080BD14
:10C5900080B582B000AF78607B68DBB21033DBB26D
:10C5A0009B00DBB2181CBD4602B080BD80B582B0D6
:10C5B00000AF78607B689BB250339BB29B009BB20C
:10C5C000181CBD4602B080BD80B584B000AF786055
:10C5D0000A1CFB1C1A70FB1C1B78FB607B681A0191
:10C5E000FB68DA40131C181CBD4604B080BDC04671
:10C5F00090B583B000AF786039607B681C683B6899
:10C60000181CFFF7C5FF031C201C191CFFF780FF37
:10C61000031C181CBD4603B090BDC04690B583B046
:10C6200000AF786039607B681C683B68181CFFF7B6
:10C63000BDFF031C201C191CFFF77AFF031C181CEC
:10C64000BD4603B090BDC04680B582B000AF7860F3
:10C650000A1CFB1C1A707B681A68FB1C1B78101CD8
:10C66000191CFFF783FF031C181CBD4602B080BDD8
:10C6700080B582B000AF786039607B681B68181C99
:10C68000FFF766FF031C1A1C3B68181C111CFFF700
:10C690009BFF031C181CBD4602B080BD80B582B054
:10C6A00000AF021CFB1D1A70FB1D1B78DB00034A48
:10C6B00094466344181CBD4602B080BD00F00140A2
:10C6C00080B582B000AF021CFB1D1A70FB1D1B78E9
:10C6D000DB000433034A94466344181CBD4602B091
:10C6E00080BDC04600F0014080B582B000AF021CA2
:10C6F000FB1D1A70FB1D1B7801229A40131C181C8D
:10C70000BD4602B080BDC04680B582B000AF021CFD
:10C71000FB1D1A70BB1D0A1C1A70FB1D1B78181C10
:10C72000FFF7E2FF021CBB1D1B78101C191C04F054
:10C730002FF9031C181CBD4602B080BD80B582B025
:10C7400000AF021CFB1D1A70054AFB1D1B78101C54
:10C75000191C04F01DF9031C181CBD4602B080BD55
:10C76000FF3F000080B582B000AF021CFB1D1A70B5
:10C77000FB1D1B78181CFFF791FF031C181CBD46FE
:10C7800002B080BD80B582B000AF021CFB1D1A70E4
:10C79000FB1D1B78181CFFF793FF031C181CBD46DC
:10C7A00002B080BD80B582B000AF7860A023DA050A
:10C7B0007B6801219940A123DB00D150BD4602B026
:10C7C00080BDC04680B582B000AF7860A023DB0595
:10C7D0007A68012191400A1C02495A50BD4602B0B4
:10C7E00080BDC0460C05000080B582B000AF786007
:10C7F0000A1CFB1C1A707B680E4A934204D10E4B34
:10C80000FA1C12781A6010E07B680C4A934204D13B
:10C810000B4BFA1C12781A6007E07B68094A9342B6
:10C8200003D1094BFA1C12781A60C046BD4602B00B
:10C8300080BDC046008000400C8C0040009000404D
:10C840000C9C004000A000400CAC004080B584B0BF
:10C8500000AF78607B685B681B79191C0E23FB189E
:10C860001D4A525C1A700F23FB1801221A700E2306
:10C87000FB181B78FF2B23D00E23FB181B78FE2BF5
:10C8800022D07B685A680E23FB181B78101C191CD9
:10C89000FFF7DAFE011C7B685B681B791A1C0F4BE3
:10C8A0009200D35899420FD17B685B681B791A1CA0
:10C8B000094BFF2199540F23FB1800221A7003E043
:10C8C0000F23FB1800221A700F23FB181B78181C6B
:10C8D000BD4604B080BDC046BC2B0020C02B00204C
:10C8E00080B582B000AF78607B685B68181C02215D
:10C8F00003F0CCFBBD4602B080BDC04680B582B01F
:10C9000000AF78607B685B68181C022103F0DCFBD9
:10C91000BD4602B080BDC04680B584B000AF78602F
:10C920000A1CFB1C1A707B681B68FB60FB1C1A78D6
:10C93000F968131C5B009B189B00CB1808331B780D
:10C94000181C03F025FFFB1C1A78F968131C5B0008
:10C950009B189B00CB1809331B78181C03F018FF99
:10C96000BD4604B080BDC04680B584B000AF7860DD
:10C970007B681B68FB60FB6820229B5C181C03F033
:10C9800007FFFB6821229B5C181C03F001FFBD46DA
:10C9900004B080BD80B586B000AF021C3960BB1DFD
:10C9A0001A803B683B611723FB1801221A7016237B
:10C9B000FB1800221A703DE01623FB181A78274B4B
:10C9C000396949008A18D35CDBB2002B2BD01623BF
:10C9D000FB181B78214A39694900C9188A5CD2B210
:10C9E000013AD0B21D4A39694900CB18011C99544B
:10C9F0001623FB181A78194B396949008A18D35C39
:10CA0000DBB2002B0BD1164B3A699200D3581B684E
:10CA1000FB60FB68DB693A69101C984703E0172349
:10CA2000FB1800221A701623FB181622BA18127867
:10CA300001321A701623FB181B78012BBCD917235F
:10CA4000FB181B78002B06D0054B3A699200D3588F
:10CA5000181CFFF753FFBD4606B080BD702E0020A6
:10CA6000CC2B002080B584B000AF78607B681B6859
:10CA7000BB600F23FB1800221A701BE00F23FB186A
:10CA80001B78BA682021D3185B181B78FF2B0AD0BB
:10CA90000F23FB181B78BA682021D3185B181B786A
:10CAA000181C03F0CFFD0F23FB180F22BA181278C1
:10CAB00001321A700F23FB181B78012BDED9BB68DB
:10CAC00022229B5CFF2B05D0BB6822229B5C181C9A
:10CAD00003F0F2FE0E23FB1800221A7078E00D23FB
:10CAE000FB1800221A7039E00E23FB181A780D2368
:10CAF000FB181978B868131C5B009B189B00C318BF
:10CB00005B1808331B78FF2B21D00E23FB181A78F3
:10CB10000D23FB181978B868131C5B009B189B0049
:10CB2000C3185B1808331B78181C03F08BFD0E2309
:10CB3000FB181A780D23FB181978B868131C5B00D2
:10CB40009B189B00C3185B180833FF221A700D2333
:10CB5000FB180D22BA18127801321A700D23FB1837
:10CB60001B78012BC0D90E23FB181A78B968131C47
:10CB70005B009B189B005B58013316D00E23FB18FB
:10CB80001A78B968131C5B009B189B005B58181C33
:10CB900002F012FE0E23FB181A78B968131C5B0012
:10CBA0009B189B00012252425A500E23FB181A7800
:10CBB000B968131C5B009B189B00CB18083300223C
:10CBC000DA700E23FB180E22BA18127801321A708E
:10CBD0000E23FB181B78012B81D97B685B68181C1E
:10CBE00003F06AF9C046BD4604B080BDB0B586B05A
:10CBF00000AF7860081C111CFB1C021C1A703B1C47
:10CC00000A1C1A807B681B687B61FB1C1A78131C4A
:10CC10005B009B189B007A69D3183B610F23FB18BC
:10CC20007A692221525C1A707B68181CFFF79CFEFF
:10CC30000F23FB181B78181CFFF780FD3B691B7A3C
:10CC4000181CFFF751FD041C3B695B7A181CFFF7A9
:10CC50004BFD031C221C1A430F23FB181B78101CCE
:10CC6000191C03F0E1FE3B1C1B88002B48D17B699B
:10CC700020229C5C7B685A68FB1C1B78101C191CCA
:10CC8000FFF7CCFC051C0F23FB181B78181CFFF7C3
:10CC900079FD031C201C291C1A1C03F005FD7B6870
:10CCA0005B68181C03210022002303F07DF97B68D8
:10CCB0005B681B791C1C7B685A68FB1C1B78101C6A
:10CCC000191CFFF7C1FC011C3A4BA200D1507B6933
:10CCD00021229C5C7B685A68FB1C1B78101C191C69
:10CCE000FFF79CFC051C7B685B68181C0321FFF7A1
:10CCF0007FFC031C201C291C1A1C03F0D5FC3FE000
:10CD00007B699A693B1C1A807B6920229C5C7B684A
:10CD10005B68181C0221FFF781FC051C0F23FB1820
:10CD20001B78181CFFF72EFD031C201C291C1A1C45
:10CD300003F0BAFC7B685B68181C03210122002306
:10CD400003F032F97B685B681B791A1C194B92005F
:10CD50000021D1507B6921229C5C7B685B68181C98
:10CD60000221FFF75BFC051C7B685B68181C032134
:10CD7000FFF73EFC031C201C291C1A1C03F094FC2A
:10CD80007B6920229B5C181C03F0CEFC7B6921226E
:10CD90009B5C181C03F0C8FC3B1C1A883B695A605A
:10CDA0007B685B681B791A1C034B03219954BD46B1
:10CDB00006B0B0BDC02B0020BC2B0020B0B586B0A3
:10CDC00000AF7860081C111CFB1C021C1A703B1C75
:10CDD0000A1C1A807B681B687B61FB1C1A78131C79
:10CDE0005B009B189B007A69D3183B610F23FB18EB
:10CDF0007A692221525C1A707B68181CFFF7B4FD17
:10CE00000F23FB181B78181CFFF798FC7B69202266
:10CE10009B5C181CFFF768FC041C7B6921229B5C4F
:10CE2000181CFFF761FC031C221C1A430F23FB187C
:10CE30001B78101C191C03F0F7FD7B6920229C5CF9
:10CE40007B685B68181C0321FFF7E8FB051C7B6807
:10CE50005A68FB1C1B78101C191CFFF7C9FB031C2C
:10CE6000201C291C1A1C03F01FFC3B1C1C887B681F
:10CE70005B681B68181CFFF76BFB031C5A4253418D
:10CE8000DBB2E3181A1E3B695B689A4215D27B69D4
:10CE900021229C5C7B685B68181C0321FFF7BEFBAA
:10CEA000051C3B691B68181C02F0C0FC031C201CFD
:10CEB000291C1A1C03F0F8FB09E07B6921229A5C0B
:10CEC0000F23FB181B78101C191CFFF71DFC3B1CC3
:10CED0001A883B695A607B685A683B1C1B88101C87
:10CEE00003211A1C002303F05FF80F23FB181B78A3
:10CEF000181C03F021FD7B685B681B791A1C3B1C26
:10CF00001988074B9200D1507B685B681B79191C0C
:10CF1000044BFA1C12785A54BD4606B0B0BDC04648
:10CF2000C02B0020BC2B0020B0B586B000AF7860CD
:10CF3000081C111CFB1C021C1A703B1C0A1C1A80CA
:10CF40007B681B687B61FB1C1A78131C5B009B18B9
:10CF50009B007A69D3183B610F23FB187A69222161
:10CF6000525C1A700E23FB18FA1C12781A707B6838
:10CF7000181CFFF7F9FC7A68FB1C1B78101C191CA5
:10CF8000FFF7CAFC7B6859683B1C1A880E23FB1804
:10CF90001B78081C191C002303F006F80F23FB184C
:10CFA0001B78181CFFF7CAFB3B691B7A181CFFF79C
:10CFB0009BFB041C3B695B7A181CFFF795FB031C69
:10CFC000221C1A430F23FB181B78101C191C03F09A
:10CFD0002BFD3B695B68002B48D17B6920229C5C60
:10CFE0007B685A68FB1C1B78101C191CFFF716FB8A
:10CFF000051C0F23FB181B78181CFFF7B3FB031C41
:10D00000201C291C1A1C03F04FFB7B685B68181C52
:10D0100003210022002302F0C7FF7B685B681B79B5
:10D020001C1C7B685A68FB1C1B78101C191CFFF722
:10D030000BFB011C384BA200D1507B6921229C5C68
:10D040007B685A68FB1C1B78101C191CFFF7E6FA5A
:10D05000051C7B685B68181C0321FFF7C9FA031CD9
:10D06000201C291C1A1C03F01FFB3BE07B692022BB
:10D070009C5C7B685B68181C0221FFF7CFFA051CDB
:10D080000F23FB181B78181CFFF76CFB031C201CDC
:10D09000291C1A1C03F008FB7B685B68181C032121
:10D0A0000122002302F080FF7B685B681B791A1C59
:10D0B000194B92000021D1507B6921229C5C7B6836
:10D0C0005B68181C0221FFF7A9FA051C7B685B68E6
:10D0D000181C0321FFF78CFA031C201C291C1A1CA6
:10D0E00003F0E2FA7B6920229B5C181C03F01CFB16
:10D0F0007B6921229B5C181C03F016FB3B1C1A88E1
:10D100003B695A607B685B681B791A1C034B0321DF
:10D110009954BD4606B0B0BDC02B0020BC2B0020EA
:10D1200080B586B000AF7860081C111CFB1C021C87
:10D130001A703B1C0A1C1A807B681B687B61FB1CF5
:10D140001A78131C5B009B189B007A69D3183B610B
:10D150000F23FB18FA1C12781A707B68181CFFF753
:10D1600003FC7A68FB1C1B78101C191CFFF7D4FB0E
:10D170003B1C1B88002B13D13B6918687B6819681E
:10D18000FB1C1A78131C5B009B189B00CB18083300
:10D190009B785A425341DBB2191C02F061FB1CE040
:10D1A0003B1C1A887B699B699A4216D37B699A69F2
:10D1B0003B1C1A803B6918687B681968FB1C1A784D
:10D1C000131C5B009B189B00CB1808339B785A1EDE
:10D1D0009341DBB2191C02F043FB7B6859683B1C8E
:10D1E0001A880F23FB181B78081C191C002302F057
:10D1F000DBFE3B1C1A883B695A607B685B681B79C5
:10D200001A1C034BFF219954C046BD4606B080BD91
:10D21000BC2B002080B584B000AF7860081C111CC6
:10D22000FB1C021C1A703B1C0A1C1A807B681B68C2
:10D23000FB60FB1C1A78131C5B009B189B00FA68B0
:10D24000D318BB60FB6823229B5C022B01D0082310
:10D250007FE03B1C1A88BB685B689A420CD1FB6874
:10D26000DB69002B06D0FB68DA697B685B681B7999
:10D27000181C904700236CE07B68181CFFF7E6FA47
:10D28000031E01D0112364E07B685B681B791A1CC4
:10D29000324BFE219954BB685B68002B05D0BB68FC
:10D2A0005A68FB689B699A421FD33B1C1B88002B62
:10D2B00005D03B1C1A88FB689B699A420AD379689F
:10D2C000FB1C1A783B1C1B88081C111C1A1CFFF73E
:10D2D00027FF29E07968FB1C1A783B1C1B88081C77
:10D2E000111C1A1CFFF720FE1EE03B1C1B88002BA4
:10D2F00005D03B1C1A88FB689B699A420AD379685F
:10D30000FB1C1A783B1C1B88081C111C1A1CFFF7FD
:10D310006DFC09E07968FB1C1A783B1C1B88081C13
:10D32000111C1A1CFFF74AFD7B681B68DB69002B88
:10D330000ED07B685B681B79191CFB1C1A78084BA4
:10D3400049008A180221D1547B68181CFFF7C8FADB
:10D350000023181CBD4604B080BDC046BC2B002075
:10D36000702E002080B584B000AF78607B681B68A9
:10D37000FB60FB689B699BB2181CBD4604B080BD76
:10D3800080B584B000AF7860081C111CFB1C021C27
:10D390001A703B1C0A1C1A807B68181CFFF7E2FFFE
:10D3A000031C1A1C3B1C1B885343181C642106F0E9
:10D3B000CFFC031CFB60FB689AB27968FB1C1B78EE
:10D3C000081C191CFFF726FF031C181CBD4604B0DF
:10D3D00080BDC046B0B58AB000AFF860081C7A6066
:10D3E000191C0B23FB18021C1A700A23FB180A1CB9
:10D3F0001A70FB681B683B620B23FB181A78131C1E
:10D400005B009B189B003A6AD318FB613B6A23229E
:10D410009B5C002B01D00823ABE0FB6900225A6023
:10D42000FB690A22BA1812789A721423FB18032295
:10D430001A70FB6819680B23FB181A78131C5B0021
:10D440009B189B00CB1808339B785A425341DBB2A0
:10D450001A1C1423FB185A701423FB1801229A700B
:10D460007A681423FB18101C191C02F055F9031CD0
:10D47000BB61BB69002B01D004237AE00B23FB18AE
:10D480001A78396A131C5B009B189B007A685A5003
:10D490000A23FB181B78002B04D07B68181CFFF7AD
:10D4A00091F903E07B68181CFFF77CF92723FB1830
:10D4B00000221A7013E02723FB181B780833FA693F
:10D4C000D318181C03F05CF8031E01D0042350E0AD
:10D4D0002723FB182722BA18127801321A70272343
:10D4E000FB181B78012BE6D9FB691B7A181C03F08B
:10D4F0004FF9FB695B7A181C03F04AF9FB691C7A47
:10D50000FB685A680B23FB181B78101C191CFFF7CB
:10D5100085F8051CFB691B68181C02F087F9031CC1
:10D52000201C291C1A1C03F0BFF8FB695C7AFB68FD
:10D530005B68181C0221FFF771F8051CFB691B686A
:10D54000181C02F073F9031C201C291C1A1C03F080
:10D55000ABF8FB690122DA72FB685B681B79191C66
:10D560000B23FB181A78054B49008A180021D15467
:10D570000023181CBD460AB0B0BDC046702E002066
:10D5800080B584B000AF78600023FB600923BB60E6
:10D5900005E07B685B087B60FB680133FB607B68B0
:10D5A000064A934203D9FA68BB689A42F1D3FB68F2
:10D5B000DBB2181CBD4604B080BDC046FF0F0000A2
:10D5C000B0B58EB002AFF860B9607A60BB68002B6E
:10D5D00001D10B2355E1FB681B68BB62BB6A2322A8
:10D5E0009B5C002B01D008234BE102F0B3FF031C2E
:10D5F0007B627B6A002B04D07B6A852B01D00423DD
:10D600003FE102F07BF8031C1A1C01235340DBB2FC
:10D61000002B08D002F030F8031C7B627B6A002BE1
:10D6200001D003232DE1BB6A2022FF219954BB6A5C
:10D630002122FF219954BB6A2222FF2199542F23D2
:10D64000FB1800221A7035E02F23FB181A78B96AEC
:10D65000131C5B009B189B00CB1808330022DA7068
:10D660002F23FB181A78B96A131C5B009B189B00C8
:10D67000CB180833FF221A702F23FB181A78B96AC7
:10D68000131C5B009B189B00CB180933FF221A70F8
:10D690002F23FB181A78B96A131C5B009B189B0098
:10D6A000012252425A502F23FB182F22BA18127807
:10D6B00001321A702F23FB181B78012BC4D92E239B
:10D6C000FB1800221A7017E02E23FB181B7820335A
:10D6D000BA6AD318181C02F053FF031E05D0FB686A
:10D6E000181CFFF7BFF90423CBE02E23FB182E22D2
:10D6F000BA18127801321A702E23FB181B78012BEE
:10D70000E2D9BB6A2233181C03F076F8031E05D059
:10D71000FB68181CFFF7A6F90423B2E02D23FB18C1
:10D7200000221A7038E02D23FB181A78BB6892008B
:10D73000D358013329D02D23FB181A78BB689200E7
:10D74000D5582D23FB181B78BA68D3181C7AFA68B1
:10D750002D23FB181B78101C191C2A1C231CFFF7F7
:10D7600039FE031C7B627B6A002B05D0FB68181C0A
:10D77000FFF778F97B6A84E0FA682D23FB181B78A1
:10D78000101C191C0022FFF745FD2D23FB182D222C
:10D79000BA18127801321A702D23FB181B78012B4E
:10D7A000C1D9BB681B692322BC18181CFFF7E8FE0F
:10D7B000031C23701423FB182322BA1812781A7042
:10D7C0001423FB1800225A701423FB1800229A70AD
:10D7D0001423FB180322DA70FB685B681B791A1CA0
:10D7E0001423FB185A60FB6859681423FA18274B56
:10D7F000081C111C1A1C02F0E3FA031C7B627B6AF2
:10D80000002B05D0FB68181CFFF72CF97B6A38E069
:10D81000FB685A68BB681B69101C191CFEF728FFBF
:10D82000031CFB61BB6AFA699A61FB685B68181CA0
:10D8300002F0ACFBFB685968FA6901230093081CED
:10D840000221042302F0EAFBFB685B68181C02213A
:10D8500002F03AFCBB6A7A68DA61FB685B681B79A4
:10D860001A1C0B4B9200F968D150FB685B681B795E
:10D870001A1C084BFF219954BB6A23220121995499
:10D880000023181CBD460CB0B0BDC04695C90100B0
:10D89000CC2B0020BC2B002080B586B000AF786078
:10D8A0007B681B683B6100237B6132E07A69131C53
:10D8B0005B009B189B003A69D318FB607B685B6830
:10D8C0001B791A1C244B51007A698A180021D15403
:10D8D000FB68DB7A002B19D0FB6818687B68196835
:10D8E0007A69131C5B009B189B00CB1808339B784C
:10D8F0005A425341DBB2191C01F0B2FFFB681B68AE
:10D90000181C01F07FFFFB6800225A607B6901331D
:10D910007B617B69012BC9D97B685B681B791A1C09
:10D920000E4BFF2199547B685B681B68181C012112
:10D93000FEF75AFF7B685B68181C02F027FB7B68C8
:10D940005B68181C02F0EAFA3B6923220221995411
:10D95000C046BD4606B080BD702E0020BC2B002006
:10D9600080B586B000AF78600C23FB1800221A80C7
:10D970000C23FB1800225A600C23FB187A689A606B
:10D980000C23FB18044A101C00211A1C00F016F886
:10D99000BD4606B080BDC0460140000080B500AF66
:10D9A000BFF34F8F034B044ADA60BFF34F8FC0467B
:10D9B000FDE7C04600ED00E00400FA0580B584B044
:10D9C00000AFF860B9607A60FFF7E8FFBD4604B0C9
:10D9D00080BDC04680B582B000AF021CFB1D1A702E
:10D9E000064BFA1D1278111C1F220A40012191409A
:10D9F0000A1C1A60BD4602B080BDC04600E100E0CE
:10DA000080B582B000AF021CFB1D1A700649FB1DD9
:10DA10001B781A1C1F23134001229A40131C8022DA
:10DA20008B50BD4602B080BD00E100E080B582B001
:10DA300000AF021CFB1D1A700649FB1D1B781A1C47
:10DA40001F23134001229A4080235B00CA50BD4629
:10DA500002B080BD00E100E080B582B000AF021CE2
:10DA6000FB1D1A700649FB1D1B781A1C1F2313404F
:10DA700001229A40C0235B00CA50BD4602B080BD5F
:10DA800000E100E0B0B582B000AF021C3960FB1DC0
:10DA90001A70FB1D1B787F2B2FD92D4CFB1D1B787B
:10DAA0001A1C0F231340083B9908294AFB1D1B78B9
:10DAB000181C0F230340083B9B0806339B00D31818
:10DAC0005B68FA1D1278101C03220240D200101C61
:10DAD000FF228240D2431A403B689B01FF20034053
:10DAE000F81D0078051C03202840C00083401A431D
:10DAF0008B1D9B00E3185A6026E0164CFB1D1B781B
:10DB00005BB29B081349FA1D127852B29208C032D8
:10DB100092005258F91D0978081C03210140C900E0
:10DB2000081CFF218140C94311403A689201FF203F
:10DB30000240F81D0078051C03202840C0008240E8
:10DB40000A43C0339B001A51BD4602B0B0BDC04667
:10DB500000ED00E000E100E080B582B000AF021C03
:10DB6000FB1D1A70FB1D1B787F2B16D9164AFB1D57
:10DB70001B78191C0F230B40083B9B0806339B00A6
:10DB8000D3185B68FA1D1278111C03220A40D200D8
:10DB9000D340FF2213409B0911E00C4AFB1D1B7868
:10DBA0005BB29B08C0339B009B58FA1D1278111C76
:10DBB00003220A40D200D340FF2213409B09181CC5
:10DBC000BD4602B080BDC04600ED00E000E100E0CF
:10DBD00080B582B000AF78607B68032213405A4260
:10DBE0005341DBB2181CBD4602B080BD80B584B085
:10DBF00000AFEFF305837B607B68DB05DB0DFB602B
:10DC0000FB68002B0BD0FB68103BBB60BB68DBB232
:10DC10005BB2181CFFF7A0FF031CDBB200E004237B
:10DC2000181CBD4604B080BD80B582B000AF7860DE
:10DC30000549A123DB007A68CA5011200321FFF7B0
:10DC400021FFBD4602B080BD0010014080B582B00A
:10DC500000AF1649D1239B0080225202CA501349BB
:10DC6000C1239B0080225202CA501120FFF7F4FE0C
:10DC70001120FFF7AFFE0D4B01221A602F237B60AE
:10DC80007B68181C0138C046C046C046C046C04626
:10DC9000C046C046C046C046C046C046C046F1D198
:10DCA000034B01221A70BD4602B080BD0010014036
:10DCB000F82B002080B582B000AF1120FFF7A0FE46
:10DCC0001F49D2239B0080225202CA501C49C22302
:10DCD0009B0080225202CA50194B01225A602F2306
:10DCE0003B603B68181C0138C046C046C046C04671
:10DCF000C046C046C046C046C046C046C046C046F4
:10DD0000F1D10F4B01229A600E4B00221A602F2393
:10DD10007B607B68181C0138C046C046C046C046C0
:10DD2000C046C046C046C046C046C046C046C046C3
:10DD3000F1D1054B00221A70BD4602B080BDC0462D
:10DD400000100140E42B0020F82B002080B500AF2C
:10DD5000024A034BD358181CBD4680BD0010014039
:10DD60000405000080B582B000AF786039607A6841
:10DD70003B68D31A1B021B0A181CBD4602B080BDAB
:10DD800080B582B000AF78600349A823DB007A68D1
:10DD9000CA50BD4602B080BD0010014080B586B0BB
:10DDA00000AF7860284B1B68002B03D1264B7A68A4
:10DDB0001A6045E07B681A68234B1B681B689A420F
:10DDC00010D8214B1B68204A126811687A681268C3
:10DDD0008A1A1A601C4B1A687B68DA611A4B7A68D7
:10DDE0001A602DE07B681B68FB60174B1B687B612A
:10DDF000154B1B683B6109E03B691B68FA68D31A45
:10DE0000FB603B697B613B69DB693B613B69002BE4
:10DE100004D03B691A68FB689A42EDD33B69002B3A
:10DE200005D03B691A68FB68D21A3B691A607B68A7
:10DE3000FA681A607B683A69DA617B697A68DA6144
:10DE4000BD4606B080BDC046E02B002080B586B040
:10DE500000AF7860214B1B687B617B693B6109E007
:10DE60003A697B689A4200D107E03B697B613B6974
:10DE7000DB693B613B69002BF2D13B69002B00D190
:10DE800028E07A693B699A4211D1144B1B68DA6920
:10DE9000124B1A60114B1B68002B08D1104B01224A
:10DEA0009A60104B00221A600F4B01221A703B69D6
:10DEB0001B68FB603B69DA697B69DA617B69DB6956
:10DEC0003B613B69002B05D03B691A68FB68D2189F
:10DED0003B691A60BD4606B080BDC046E02B0020FD
:10DEE00000100140E42B0020F92B002080B500AF8A
:10DEF0001120FFF79BFDBD4680BDC04680B500AF39
:10DF00001420FFF793FDBD4680BDC04680B584B0A8
:10DF100000AF7860114B1B68002B15D00F4B1A68AF
:10DF20007B6859697B689B69081C191C9047031C16
:10DF3000FB60FB68BB60BB68002B04D0BB68181C8F
:10DF4000FFF70EFD06E005E07B685A697B689B6978
:10DF5000181C9047BD4604B080BDC046F42B00207D
:10DF600080B584B000AF2B4B1B68002B4FD0002333
:10DF70007B60FFF7EBFE021C274B1B68101C191C73
:10DF8000FFF7F0FE031CBB60224B1B68FB601FE029
:10DF9000FB681A68BB689A4200D91CE0FB681B68E2
:10DFA000BA68D31ABB60FB681B687A68D3187B60B9
:10DFB000FB683B60FB68DB69FB603B681B7C002BFC
:10DFC00006D03B6800221A743B68181CFFF79EFFBE
:10DFD000FB68002BDCD1114B1A78114B1B789A424D
:10DFE0000CD10F4B1B780133DAB20D4B1A700C4B6E
:10DFF0001B78022B02D10A4B00221A70084B1B78A7
:10E000001A1C084B92007968D150FFF777FFBD4684
:10E0100004B080BDE02B0020E42B0020F02B00207A
:10E02000F12B0020E82B002080B582B000AF786093
:10E03000184B1A78184B1B789A4223D0154B1B7833
:10E040000133DAB2134B1A70124B1B78022B02D138
:10E05000104B00221A700F4B1B781A1C0F4B9200AA
:10E06000D2587B681A607B681A680D4B1B68D218FF
:10E070000B4B1A600A4B1B681B021A0A084B1A60EA
:10E08000012303E07B6800221A600023181CBD46B0
:10E0900002B080BDF02B0020F12B0020E82B0020E7
:10E0A000E42B002080B586B000AF364B1B683B6187
:10E0B0001723FB18344A12781A704EE0334B1A6853
:10E0C0001723FB181B78DB00D318FB601623FB1803
:10E0D000FA6812781A7039E0FB6859681623FB1841
:10E0E0001A78131C5B009B18DB00CB18BB6016234F
:10E0F000FB181A781623FB1801321A70FB689B78FC
:10E100001622BA1812789A4203D11623FB1800225D
:10E110001A70BB681B78022B02D0032B10D014E0BE
:10E12000BB685B68181CFFF791FE0FE0154B1B687E
:10E130007B607B6800221A747B68DA69114B1A6075
:10E14000104B1B68002BF1D100E0C046FB685B78E8
:10E150001622BA1812789A42BED11723FB181B78E0
:10E160001722BA18591E1170002BA7D1054B1A6837
:10E170003B69D31A5A1E9341DBB2181CBD4606B048
:10E1800080BDC046E02B0020D82B0020DC2B0020D7
:10E1900080B588B000AFF860B9607A600023FB6199
:10E1A00038E0204B1B68BB61BB691A68FB689A4268
:10E1B00006D9BB691A68FB68D21ABB691A602DE0E0
:10E1C000BB691B68FA68D31AFB60BB691B68FA69F4
:10E1D000D318FB61BB6900221A60124B1B687B617C
:10E1E000BB69DA690F4B1A60BB69DB68002B11D081
:10E1F000BA68FB69D3181B021A0ABB695A60BB696B
:10E20000DA68BB699A607B681A68BB69DA617B6807
:10E210007A691A60034B1B68002BC2D1BD4608B057
:10E2200080BDC046E02B002080B588B000AF78608C
:10E230005C4B1B687B611F23FB185B4A12781A70CA
:10E240009BE05A4B1A681F23FB181B78DB00D3187E
:10E250003B6187E07B68002B05D07B68BB61BB69B5
:10E26000DB697B603CE03B695A683B691B78191CA1
:10E270000B1C5B005B18DB00D318FB603B691B7851
:10E280000133DAB23B691A703B691A783B699B78B3
:10E290009A4202D13B6900221A70FB685B68BB613D
:10E2A000FB681B78012B03D1BB691B7C002B00D0C2
:10E2B00058E0FB689A68BB695A60FB68DA68BB691A
:10E2C0009A60FB681A69BB69DA60FB685A69BB69C6
:10E2D0009A61374B1B78002B02D0BB6900225A6031
:10E2E000BB695A68334B1B68D31A1B021B0A324A9C
:10E2F00093420ED8BB695A682E4B1B68101C191C20
:10E30000FFF730FD021CBB699B68D218BB691A601D
:10E3100018E0284B1A68BB695B68101C191CFFF7D2
:10E3200021FD031CBB60BB699A68BB689A4206D991
:10E33000BB699A68BB68D21ABB691A6002E0BB6904
:10E3400000221A60BB6900225A60BB6900229A60F1
:10E35000BB6901221A74BB690022DA61BB69181C0F
:10E36000FFF71CFD7B68002B00D073E73B691A7830
:10E370003B695B789A4200D06CE71F23FB181B783F
:10E380001F22BA18591E1170002B00D059E7054BF7
:10E390001A687B69D31A5A1E9341DBB2181CBD461A
:10E3A00008B080BDE02B0020D82B0020DC2B002003
:10E3B000F92B0020E42B0020FEFF7F0090B589B0F0
:10E3C00000AF7860334B1B68002B5DD0314B1B686E
:10E3D0001B68FB61FFF7BAFC031CBB612E4B1B687B
:10E3E0007B61BA697B69101C191CFFF7BBFC031C1D
:10E3F00003333B61294B1B7801225340DBB2002BD6
:10E4000001D0FFF723FCFA693B69934200D2131C49
:10E410007A69D3187B617B691B021B0A7B617B696C
:10E42000181CFFF7ADFCFFF791FC031CFB60FA68BA
:10E43000BB69101C191CFFF795FC031CDC1C7A69D6
:10E44000BB69101C191CFFF78DFC031C9C421AD9D8
:10E45000FFF77CFC031C181CFFF792FC2F23BB600A
:10E46000BB68181C0138C046C046C046C046C046FE
:10E47000C046C046C046C046C046C046C046F1D1B0
:10E48000FFF734FD02E001E0FFF714FCBD4609B0E0
:10E4900090BDC046E02B0020E42B0020F82B00208C
:10E4A00090B587B000AF00237B601F4B1B683B61BA
:10E4B0001E4B1B68FB600B23FC183B1C181CFFF752
:10E4C000B3FD031C23701723FC18FFF7EBFD031C9F
:10E4D00023700B23FB181B78002B0BD039683A698B
:10E4E0003B1D081C111C1A1CFFF752FE1723FB18BA
:10E4F00001221A707B68181CFFF796FE031E03D0DA
:10E500001723FB1801221A701723FB181B78002B06
:10E5100003D0FB68181CFFF751FF054B00221A704F
:10E52000BD4607B090BDC046E42B0020E02B002084
:10E53000F92B002080B582B000AF78600A1CFB1C6C
:10E540001A707B68FA1C12785A70BD4602B080BD02
:10E5500080B584B000AF786039607B685A780F234B
:10E56000FB1801321A707B689B780F22BA18127858
:10E570009A4203D10F23FB1800221A707B681B7884
:10E580000F22BA1812789A4201D1002310E03B689A
:10E590000F22BA1812781A707B685A687B685B7809
:10E5A000191C0B1C5B005B18DB00D318BB60BB683D
:10E5B000181CBD4604B080BD80B586B000AFF860C1
:10E5C000B9607A603B601C4B1A68FB68DB00D218AC
:10E5D0001323FB18101C191CFFF7BAFF031C7B61E7
:10E5E0007B69002B01D1042322E07B6901221A7090
:10E5F0007B69BA685A60FFF7A9FB021C7B699A60C5
:10E600007B697A68DA607B693A681A617B693A6A81
:10E610005A61094B1A68FB68DB00D2181323FB18F8
:10E620001B78101C191CFFF785FFFFF767FC002300
:10E63000181CBD4606B080BDDC2B002080B584B020
:10E6400000AF78603960154B1A687B68DB00D21820
:10E650000B23FB18101C191CFFF77AFF031CFB602F
:10E66000FB68002B01D1042314E0FB6802221A701E
:10E67000FB683A685A60094B1A687B68DB00D2185D
:10E680000B23FB181B78101C191CFFF753FFFFF717
:10E6900035FC0023181CBD4604B080BDDC2B0020D7
:10E6A00080B500AF104AA0235B000021D1500E4A74
:10E6B000A2235B000021D1500B4AA4235B00002160
:10E6C000D150094AA6235B000021D150064A80237D
:10E6D0005B000021D150044A82235B000021D1500D
:10E6E000FFF73EFCBD4680BD0010014080B500AF85
:10E6F000FFF7D6FEBD4680BD80B586B000AFF8609E
:10E700007A603B600B23FB180A1C1A707B68181C8C
:10E71000FFF75EFA031C1A1C01235340DBB2002BE7
:10E7200001D007235AE07B68002B04D12D4B002237
:10E730001A60072352E0FFF7BDFA2B4B3A681A60C4
:10E740002A4B03221A70274B7A681A607B681833A9
:10E750007B6000237B6121E0224B1A687B69DB0030
:10E76000D3183B613B6900221A703B6900225A7042
:10E770003B690B22BA1812789A703B697A685A6022
:10E780000B23FB181A78131C5B009B18DB001A1C68
:10E790007B689B187B607B6901337B617B69022B03
:10E7A000DADD134B00221A60124B00221A70124B52
:10E7B00000221A701420FFF74FF914200321FFF7ED
:10E7C00061F91420FFF706F9FB68181CFFF72CFA13
:10E7D000FFF7BCFA021C094B1A600023181CBD4647
:10E7E00006B080BDDC2B0020F42B0020D82B0020AD
:10E7F000E02B0020F02B0020F12B0020E42B002048
:10E8000080B586B000AFF8607A600B23FB180A1C55
:10E810001A70154B1B68002B01D108231FE07B6881
:10E82000002B01D107231AE0FB68002B01D107233D
:10E8300015E0FB681B681B7C002B01D008230EE051
:10E84000FB681B687B617B6900221A747B690B2261
:10E85000BA1812785A747B697A685A610023181CB6
:10E86000BD4606B080BDC046DC2B002080B582B01E
:10E8700000AFFFF7BBF9031E012B02D0032B03D01F
:10E8800005E000237B6005E001237B6002E00223BA
:10E890007B60C0467B68181CBD4602B080BDC04688
:10E8A00090B589B002AFF860B9607A60FB687B61AF
:10E8B000164B1B68002B01D1082322E0FB68002BBC
:10E8C00001D108231DE0BB68042B01D8072318E001
:10E8D0007B695B69002B01D1082312E07B695B7CBB
:10E8E000012B01D1BB6800E000233B61FFF7BEFFB5
:10E8F0007969BA683C697B680093231CFFF75CFE6A
:10E90000031C181CBD4607B090BDC046DC2B002080
:10E9100080B584B000AF78607B68FB600F4B1B68EC
:10E92000002B01D1082314E07B68002B03D0FB6887
:10E930005B69002B01D108230BE0FB6800221A74ED
:10E94000FFF794FF021CFB68101C191CFFF776FEF2
:10E95000031C181CBD4604B080BDC046DC2B002043
:10E9600080B582B000AFEFF310833B603B687B6003
:10E9700072B67B68181CBD4602B080BD80B500AF82
:10E9800062B6BD4680BDC04680B584B000AF786039
:10E99000FFF7E6FF031CFB60114B5B68002B11D1F6
:10E9A0000F4B01225A600F4A8023D3580E4A1A4057
:10E9B0000B4B1A600B4A80230B49D1507B68002215
:10E9C0001A7002E07B6801221A70FB68002B01D1EB
:10E9D000FFF7D4FF0023181CBD4604B080BDC0461D
:10E9E000782E002000E100E0FC06FFBC80B584B07A
:10E9F00000AF021CFB1D1A700E4B5B68002B13D07E
:10EA0000FB1D1B78002B0FD1FFF7AAFF031CFB6037
:10EA1000094A084B1B681360064B00225A60FB68CA
:10EA2000002B01D1FFF7AAFF0023181CBD4604B03C
:10EA300080BDC046782E002000E100E080B582B0A5
:10EA400000AF78607B68181CFFF79EFFBD4602B0E0
:10EA500080BDC04680B582B000AF021CFB1D1A709D
:10EA6000FB1D1B78181CFFF7C1FFBD4602B080BD1F
:10EA700080B582B000AF78600A1CBB1C1A80BB1C3A
:10EA80001B887A68D31800221A60BD4602B080BD88
:10EA900080B582B000AF78600A1CBB1C1A80BB1C1A
:10EAA0001B887A68D3181B685A1E9341DBB2181C66
:10EAB000BD4602B080BDC04680B582B000AF786070
:10EAC00039607A68C1239B00D3583A6813405A1EB4
:10EAD0009341DBB2181CBD4602B080BD80B582B048
:10EAE00000AF786039607A68C2239B003968D150E2
:10EAF000BD4602B080BDC04680B584B000AF78602E
:10EB00007A689023DB00D358FB607A689023DB009F
:10EB1000F968D150FB68181CBD4604B080BDC046E2
:10EB200080B582B000AF78607A68A323DB00D35849
:10EB3000DBB2181CBD4602B080BDC04680B582B0B5
:10EB400000AF78600A1CFB1C1A70FB1C1A787B68EB
:10EB500002495A50BD4602B080BDC0461C050000A7
:10EB600080B582B000AF78600A1CFB1C1A70FB1CD9
:10EB70001B787A68D31801221A60BD4602B080BDA6
:10EB800080B582B000AF104A8E235B00101C191CA8
:10EB9000FFF76EFF0D4B9B680C4A928A92B29A184F
:10EBA000FB1D12781A70094B9B8A9BB201339AB2F3
:10EBB000064B9A82044AFB1D1B78101C191CFFF798
:10EBC000BDFFBD4602B080BD00200040FC2B0020F0
:10EBD00098B500AF154BDB7D002B0BD1144A842375
:10EBE0005B00101C191CFFF743FF114B181CFFF7AB
:10EBF00097FF19E00E4A84235B00101C191CFFF7D5
:10EC000037FF0A4BDB68094A527ED2B29C18084B88
:10EC1000181CFFF785FF031C2370044B5B7EDBB2DF
:10EC20000133DAB2014B5A76BD4698BDFC2B002069
:10EC30000020004080B586B000AF021C3960FB1D8B
:10EC40001A700823FB1801221A700823FB18FA1DFA
:10EC500012781A720823FB183A685A60054B5A68F2
:10EC6000044B1B6808217918081C191C9047BD46E5
:10EC700006B080BDFC2B002080B586B000AF021C22
:10EC8000FB1D1A700823FB1800221A700823FB18BA
:10EC9000FA1D12781A720A4B9A680823FB185A60F8
:10ECA000074B00229A75064B5A68054B1B680821D2
:10ECB0007918081C191C9047BD4606B080BDC04697
:10ECC000FC2B002080B586B000AF7C4A80239B00DF
:10ECD000101C191CFFF7F0FE031E43D0774A922345
:10ECE0005B00101C191CFFF7D3FE031E3AD0734AB9
:10ECF00092235B00101C191CFFF7BAFE6F4A812398
:10ED00009B00101C191CFFF7E9FE6D4B9B7E012236
:10ED10005340DBB2002B04D0684B181C0421FFF7D2
:10ED20001FFF3B1C02221A70644B181CFFF7E4FE05
:10ED3000021C3B1CDA60624BDA7D3B1C1A72604B92
:10ED4000DA683B1C5A605E4B0022DA755C4B00228D
:10ED50001A765B4B5A685A4B1B68391C081C191CE5
:10ED600090475AE0554B181C0421FFF7A5FE031EDF
:10ED700053D0524A84235B00101C191CFFF788FEF5
:10ED8000031E4AD0FFF724FF4D4BDA7D4C4B5B7ED0
:10ED9000DBB29A4241D14A4B1B7E002B1ED0484B1E
:10EDA000DB687B611323FB18454A527E1A70444B83
:10EDB0001A7E434BDA75424B1A69414BDA60404B7D
:10EDC00000221A763E4B00225A761323FB181A783B
:10EDD0007B69101C191CFFF72DFF1EE0384B9B7E32
:10EDE00001225340DBB2002B04D0344B181C042109
:10EDF000FFF7B6FE314A81239B00101C191CFFF758
:10EE00006DFE2F4B0022DA752D4B5B7EDAB22C4B58
:10EE1000DB68101C191CFFF70DFF284A8E235B00CE
:10EE2000101C191CFFF734FE031E1AD0244B9B8ABA
:10EE30009AB2234B9B7D9BB29A4202D2FFF7A0FE6F
:10EE40000FE01E4A8E235B00101C191CFFF710FEFA
:10EE50001B4B9B7D002B04D0194B9B7D181CFFF78F
:10EE60000BFF164AA2235B00101C191CFFF710FEB3
:10EE7000031E1FD0114AA2235B00101C191CFFF7B0
:10EE8000F7FD0F4B9B7E002B04D00C4B181C002170
:10EE9000FFF766FE0A4BDB7D002B0BD0084B0022F0
:10EEA000DA75074B5B7EDAB2054BDB68101C191C68
:10EEB000FFF7C0FEBD4606B080BDC0460020004042
:10EEC000FC2B002080B500AFFFF7FCFEBD4680BDE7
:10EED00080B584B000AF786014E07B68013B7B6054
:10EEE0000B4BFB60FB68181C0138C046C046C0468F
:10EEF000C046C046C046C046C046C046C046C046E2
:10EF0000C046F1D17B68002BE7D1BD4604B080BD7F
:10EF1000E703000080B582B000AF021CFB1D1A7031
:10EF2000064BFA1D1278111C1F220A400121914044
:10EF30000A1C1A60BD4602B080BDC04600E100E078
:10EF400080B582B000AF021CFB1D1A700649FB1D84
:10EF50001B781A1C1F23134001229A40C0235B0018
:10EF6000CA50BD4602B080BD00E100E0B0B582B03D
:10EF700000AF021C3960FB1D1A70FB1D1B787F2B34
:10EF80002FD92D4CFB1D1B781A1C0F231340083B57
:10EF90009908294AFB1D1B78181C0F230340083BC6
:10EFA0009B0806339B00D3185B68FA1D1278101C6F
:10EFB00003220240D200101CFF228240D2431A409A
:10EFC0003B689B01FF200340F81D0078051C0320CF
:10EFD0002840C00083401A438B1D9B00E3185A60F1
:10EFE00026E0164CFB1D1B785BB29B081349FA1DEB
:10EFF000127852B29208C03292005258F91D097824
:10F00000081C03210140C900081CFF218140C9439D
:10F0100011403A689201FF200240F81D0078051C5B
:10F0200003202840C00082400A43C0339B001A518D
:10F03000BD4602B0B0BDC04600ED00E000E100E01A
:10F0400080B582B000AF021CFB1D1A70BB1D0A1CEC
:10F050001A70BB1D1A78FB1D1B785BB2181C111CA3
:10F06000FFF784FFFB1D1B785BB2181CFFF768FFDE
:10F07000FB1D1B785BB2181CFFF74CFFBD4602B0AE
:10F0800080BDC04680B582B000AF021CFB1D1A7067
:10F09000FB1D1B78034A94466344181CBD4602B00E
:10F0A00080BDC0460060004080B582B000AF021C49
:10F0B000BB1D1A80BB1D1B88181C00F01DF8031C0B
:10F0C0001B68013B5A425341DBB2181CBD4602B0DB
:10F0D00080BDC04680B582B000AF021CBB1D1A8047
:10F0E000BB1D1B88181C00F007F8031C00221A60C7
:10F0F000BD4602B080BDC04680B582B000AF021CE4
:10F10000BB1D1A80BB1D1B88034A94466344181C10
:10F11000BD4602B080BDC0460060004080B582B0F0
:10F1200000AF78600349C1239B007A68CA50BD468E
:10F1300002B080BD0060004080B582B000AF786052
:10F14000044AC1239B00D3587A681340181CBD465B
:10F1500002B080BD0060004080B582B000AF786032
:10F16000064A7B684533FF339B009A58F8235B01BE
:10F1700013401B0A181CBD4602B080BD0060004051
:10F1800080B582B000AF7860074A7B684533FF33B3
:10F190009B009A58C0239B0213401B0CDBB2181C27
:10F1A000BD4602B080BDC0460060004080B584B05E
:10F1B00000AF78600F4A7B684533FF339B009B5854
:10F1C00003221343FB600B49FB68F82252011A43E8
:10F1D0007B684533FF339B005A50C046C046C0464B
:10F1E00004497B684533FF339B00FA685A50BD469B
:10F1F00004B080BD0060004090B585B000AFF860FD
:10F20000B960191CFB1D1A70BB1D0A1C1A70194924
:10F21000184AFB684533FF339B009B58164A1A4037
:10F22000FB684533FF339B005A501248114AFB6874
:10F230004533FF339B009A58BB681902F8235B01E2
:10F240001940FB1D1B781B041C1CC0239B02234080
:10F250001943BB1D1B781B051C1C80235B0323402B
:10F260000B431A43FB684533FF339B001A50BD46DE
:10F2700005B090BD00600040FFE0ECFF80B582B0BB
:10F2800000AF78600A1CFB1C1A700C490B4A7B68A3
:10F290004533FF339B009B58094A1A40FB1C1B78DF
:10F2A0001B05181C80235B0303401A437B6845330E
:10F2B000FF339B005A50BD4602B080BD0060004045
:10F2C000FFFFEFFF80B582B000AF7860044A7B6833
:10F2D0004533FF339B0000219950BD4602B080BDED
:10F2E0000060004090B583B000AF78600C1C101C2B
:10F2F000191CFB1C221C1A70BB1C021C1A707B1CE4
:10F300000A1C1A70A023DB05FA1C1178BA1C1278AB
:10F31000520011437A1C1278920011431822BA1835
:10F320001278120211431C22BA18127812041143E7
:10F330007A68C132FF329200D150BD4603B090BD11
:10F3400080B584B002AF78607A6800230093002310
:10F350000193101C012101220023FFF7C3FFBD46CA
:10F3600002B080BD80B584B002AF78607A680023B7
:10F37000009300230193101C002101220023FFF7BA
:10F38000B1FFBD4602B080BD80B582B000AF7860ED
:10F390000A1CFB1C1A70A023DB05A022D205796889
:10F3A000C131FF3189008A580D4911407A68C13254
:10F3B000FF329200D150A023DB05A022D20579684C
:10F3C000C131FF3189008A58F91C097809041143B9
:10F3D0007A68C132FF329200D150BD4602B080BD82
:10F3E000FFFFFCFF80B582B000AF7860A023DA0594
:10F3F0007B6801219940A123DB00D150BD4602B0BA
:10F4000080BDC04680B582B000AF7860A023DB0528
:10F410007A68012191400A1C02495A50BD4602B047
:10F4200080BDC0460C05000080B500AFA023DA0502
:10F43000A223DB00D358181CBD4680BD80B582B026
:10F4400000AF7860A023DB057A68C132FF329200FA
:10F45000D258C0239B0213401B0CDBB2181CBD46C4
:10F4600002B080BD80B582B000AF7860074A282125
:10F470007B68D3185B181B785BB201335A1E93412B
:10F48000DBB2181CBD4602B080BDC046182C00205F
:10F4900080B582B000AF78600E4A28217B68D3180F
:10F4A0005B181B785BB2002B0ADB0A4A28217B68B9
:10F4B000D3185B181B785BB2032B01DC012300E03F
:10F4C00000231A1C01231340DBB2181CBD4602B0F6
:10F4D00080BDC046182C002080B584B000AFF86015
:10F4E000B9607A601A1CFB1C1A70BB68D8B2104A4B
:10F4F0002821FB68D3185B18021C1A700C4BBA68E1
:10F5000092007968D150FB1C1B7801225340DBB27A
:10F51000002B09D0BB68043BFA68D0B2044A4821EA
:10F52000D3185B18021C1A70BD4604B080BDC046DB
:10F53000182C002080B582B000AF7860044A2821E2
:10F540007B68D3185B18FE221A70BD4602B080BDDE
:10F55000182C002080B582B000AF7860044A2821C2
:10F560007B68D3185B18FF221A70BD4602B080BDBD
:10F57000182C002080B582B000AF7860054A2821A1
:10F580007B68D3185B181B785BB2181CBD4602B0B1
:10F5900080BDC046182C002080B582B000AF7860D6
:10F5A000034B7A689200D358181CBD4602B080BD48
:10F5B000182C002080B588B000AFF860B960FB1D42
:10F5C0001A701F23FB18FF221A70FB1D1B78002BDB
:10F5D00001D0002300E004237B61FB1D1B78002B7E
:10F5E00001D0042300E00A233B617B69BB6114E086
:10F5F000104BBA699200D35801330BD1F868B9693E
:10F60000BA68FB1D1B78FFF767FF1F23FB18BA6959
:10F610001A7006E0BB690133BB61BA693B699A4263
:10F62000E6D31F23FB181B785BB2181CBD4608B03D
:10F6300080BDC046182C002080B582B000AF021CEF
:10F64000FB1D1A70FB1D1A780A4B920001214942DA
:10F65000D150FB1D1B78032B08D9FB1D1B78043BE5
:10F66000044A4821D3185B18FF221A70BD4602B025
:10F6700080BDC046182C002080B582B000AF1E4B64
:10F680004E229B5C002B01D0082331E0FB1D0022A1
:10F690001A7009E0FB1D1B78181CFFF75BFFFB1DB0
:10F6A0001A78FB1D01321A70FB1D1B781F2BF1D934
:10F6B000FB1D00221A7009E0FB1D1B78181CFFF7C8
:10F6C000BBFFFB1D1A78FB1D01321A70FB1D1B7856
:10F6D000092BF1D906200121FFF7B2FC80231B067C
:10F6E000181CFFF71BFD044B4E22012199540023E7
:10F6F000181CBD4602B080BD182C002080B500AF9C
:10F70000044B4E229B5C5A1E9341DBB2181CBD4633
:10F7100080BDC046182C002090B585B000AF786041
:10F7200039600023FB607B68181CFFF79BFE031EFB
:10F7300002D00823FB603AE03B689B78002B1ED088
:10F740000B23FC187B68181C00210122FFF732FFF5
:10F75000031C23700B23FB181B785BB201330BD007
:10F760000B23FB18002018563B681A783B685B781F
:10F770007968FFF741FD06E00423FB6003E07B6846
:10F78000181CFFF7D7FEFB68002B10D13B685B7895
:10F79000012B04D17B68181CFFF724FE03E07B6873
:10F7A000181CFFF72FFE7B68181CFFF7C9FDFB68CC
:10F7B000181CBD4605B090BD80B582B000AF786022
:10F7C0007B68181CFFF764FE031E10D07B68181CB2
:10F7D000FFF7D0FE031CDBB2181CFFF72DFF7B6880
:10F7E000181CFFF7C7FE031C181CFFF76BFD7B6896
:10F7F000181CFFF7AFFE7B68181CFFF7B3FDBD4672
:10F8000002B080BD80B582B000AF7860064A282182
:10F810007B68D3185B181B785BB2181CFFF7C6FC1B
:10F82000BD4602B080BDC046182C002080B584B013
:10F8300000AF78607B68181CFFF79CFE031CDAB2EF
:10F840000F23FB1892001A700F23FB181B78181C4B
:10F85000FFF718FC031C181CBD4604B080BDC04651
:10F8600080B584B000AF78600A1CFB1C1A70FB1CCA
:10F870001B785A1E9341DAB20F23FB181A70084AFC
:10F8800028217B68D3185B181B785AB20F23FB180A
:10F890001B78101C191CFFF7F1FCBD4604B080BD9D
:10F8A000182C002090B593B000AF00237B64002398
:10F8B0003B643A23FB18802252001A8001237B63A9
:10F8C0000023FB6324E03A23FB181B88181CFFF776
:10F8D000EBFB031E0FD07B6B181CFFF72DFC031EE8
:10F8E00009D03A23FB181B88181CFFF7F3FB7A6C2E
:10F8F0007B6B13437B647B6B5B007B633A23FB185E
:10F900003A22BA18128804321A80FB6B0133FB6367
:10F91000FB6B032BD7D9BE235B00181CFFF7C4FB7E
:10F92000031E0DD0BE235B00181CFFF7D3FB7B6CBE
:10F930008022120613437B64FFF776FD031C3B64B1
:10F940007B6C0F2213402DD001237B630023FB63CC
:10F9500025E07B6B7A6C13401BD0FB6B181CFFF708
:10F96000FBFB031C7B622323FC18FB6B181CFFF7BB
:10F9700007FC031C2370FB6B181CFFF70DFE031C18
:10F98000FB61796A2323FB181A78FB69081C111C98
:10F9900098477B6B5B007B63FB6B0133FB63FB6B0B
:10F9A000032BD6D97B6C002B00DBBEE03323FB1886
:10F9B00000221A700023FB6201235B42BB623323E7
:10F9C000FB1800221A700023FB638EE0584A48217E
:10F9D000FB6BD3185B181A781B23FB181A701B23B8
:10F9E000FB181B78C02293437B61514A4821FB6B73
:10F9F000D3185B181B785BB2013300D172E07B69CE
:10FA0000BA6ADA40131C0122134000D16AE01323C2
:10FA1000FB181B22BA18127892091A707B69181CFD
:10FA2000FFF7A8FD031C181CFFF7B6FD031CFB60C5
:10FA3000FB68002B04D11323FB181B78032B51D137
:10FA40007B6901229A40131C7B631323FB181B78EC
:10FA5000032B03D1FA6A7B6B1343FB620B23FC1865
:10FA60007B69181CFFF7EAFC031C23707B6B3A6C64
:10FA7000134004D00B23FB181B78022B08D07B6BA0
:10FA80003A6C13402ED10B23FB181B78032B29D182
:10FA90001323FB181B78032B19D10B23FB181B789E
:10FAA000022B01D1032200E002220A23FB181A7064
:10FAB0007A690A23FB181B78101C191CFFF764FCD9
:10FAC0003323FB183322BA18127801321A70FB68FC
:10FAD000002B07D079691323FB181A78FB68081CE0
:10FAE000111C9847FB6B0133FB63FB6B052B00D8A4
:10FAF0006CE73323FB181B78002B10D0FFF794FC26
:10FB0000031C7B607A683B6C9A4204D13323FB1858
:10FB100000221A7003E07B683B64FB6ABB623323FC
:10FB2000FB181B78002B00D049E7BD4613B090BDF1
:10FB3000182C002080B582B000AF021CFB1D1A708B
:10FB40000649FB1D1B781A1C1F23134001229A40F3
:10FB5000131C80228B50BD4602B080BD00E100E046
:10FB600080B582B000AF78600A1CFB1C1A70FB1CC9
:10FB70001B787A68D31801221A60BD4602B080BD96
:10FB800080B582B000AF78600A1CBB1C1A80BB1C19
:10FB90001B887A68D31800221A60BD4602B080BD67
:10FBA00080B582B000AF78600A1CBB1C1A80BB1CF9
:10FBB0001B887A68D3181B685A1E9341DBB2181C45
:10FBC000BD4602B080BDC04680B582B000AF78604F
:10FBD00039607A6880239B00D2583B681A43111C15
:10FBE0007A6880239B00D150BD4602B080BDC046DC
:10FBF00080B582B000AF786039607A6880239B005E
:10FC0000D3583A68D2431A40111C7A6880239B006B
:10FC1000D150BD4602B080BD80B582B000AF7860E3
:10FC200039607A68C1239B003968D150BD4602B063
:10FC300080BDC04680B582B000AF786039607A6818
:10FC4000C2239B003968D150BD4602B080BDC0467A
:10FC500080B582B000AF786039607A68C1239B00BC
:10FC6000D3583A6813405A1E9341DBB2181CBD4664
:10FC700002B080BD80B582B000AF78600A1CFB1C6A
:10FC80001A707B68074A9B58012293431A1CFB1C7D
:10FC90001B7801210B401A437B6802495A50BD462C
:10FCA00002B080BD0405000080B582B000AF78606E
:10FCB0000A1CFB1C1A707A68A123DB00D3580322AC
:10FCC00093431A1CFB1C1B7803210B401A43111C85
:10FCD0007A68A123DB00D150BD4602B080BDC0468A
:10FCE00080B582B000AF78600A1CFB1C1A707A687D
:10FCF000A223DB00D3580F2293431A1CFB1C1B7852
:10FD00000F210B401A43111C7A68A223DB00D1504B
:10FD1000BD4602B080BDC04680B584B000AFF8607B
:10FD20007A600B23FB180A1C1A700B23FB181A7835
:10FD3000FB685132FF3292007968D150BD4604B061
:10FD400080BDC04680B582B000AF78607B689BB252
:10FD500050339BB29B009BB2181CBD4602B080BDC5
:10FD600080B582B000AF78607B68802252029A40F2
:10FD7000131C181CBD4602B080BDC04680B582B0C1
:10FD800000AF021CFB1D1A70FB1D1B785BB2181C18
:10FD9000FFF7D0FEBD4602B080BDC04680B584B03E
:10FDA00000AF78607B681A0B0F23FB181A700F23C3
:10FDB000FB181B785BB2181CBD4604B080BDC04662
:10FDC00090B587B000AFF860B9607A60FB681B79C6
:10FDD0001A1C131C5B009B189B00354A9B183B6147
:10FDE0003B691B7A002B01D008235DE07B68002B68
:10FDF00001D1072358E0BB68002B05D1FB681B79B4
:10FE0000DA002C4BD318BB603B697A681A60BB6878
:10FE10005A683B695A601723FB1800221A7013E0D6
:10FE2000FB681C681723FB181B78181CFFF78AFF58
:10FE3000031C201C191CFFF7A3FE1723FB18172215
:10FE4000BA18127801321A70FB685B791722BA1857
:10FE500012789A42E4D3FB681B68181CFFF79EFFD8
:10FE6000031C1A1CBB68DB78101C191CFFF7E8F890
:10FE7000FB681A68BB685B78101C191CFFF7FAFE58
:10FE8000FB681A68BB689B78101C191CFFF70CFFF5
:10FE9000FB681A68BB681B78101C191CFFF720FF51
:10FEA0003B6901221A720023181CBD4607B090BDA1
:10FEB000682C00207842020080B582B000AF7860E4
:10FEC0007B681B68181CFFF769FF031C181CFFF7F1
:10FED00055FF7B681A6801235B42101C191CFFF751
:10FEE00087FE7B681A6801235B42101C191CFFF710
:10FEF000A1FE7B68181C00F02DF87B681B79191C8B
:10FF0000054A0B1C5B005B189B00D31808330022CA
:10FF10001A70BD4602B080BD682C002080B582B04A
:10FF200000AF78607B681B68181C0021FFF718FE83
:10FF30007B681B79191C064A0B1C5B005B189B0035
:10FF4000D318083302221A70BD4602B080BDC046E5
:10FF5000682C002080B582B000AF78607B681B6899
:10FF6000181C1021FFF7FCFD7B681B79191C064A41
:10FF70000B1C5B005B189B00D318083301221A701E
:10FF8000BD4602B080BDC046682C002080B582B05E
:10FF900000AF78607B681B68181C0C21FFF7E0FD40
:10FFA000BD4602B080BDC04680B586B000AFF860E7
:10FFB000081C7A60191C0B23FB18021C1A700A23F8
:10FFC000FB180A1C1A700B23FB181B78181CFFF770
:10FFD000C7FE031C7B610A23FB181B78002B07D08C
:10FFE000FB681A687B69101C191CFFF715FE06E0F8
:10FFF000FB681A687B69101C191CFFF71BFEFB6865
:020000022000DC
:1000000019680B23FB181A787B68081C111C1A1C32
:10001000FFF782FEBD4606B080BDC04680B584B005
:1000200000AFF860081C7A60191C0B23FB18021C37
:100030001A700823FB180A1C1A80FB6818680B2327
:10004000FB181B78802252009A400B23FB181B7868
:10005000012199400B1C1343191CFFF7C9FDFB68D4
:100060001A680823FB181B88101C191CFFF7ACFD2D
:10007000F8680B23FB1819787A681823FB181B788B
:10008000FFF792FFBD4604B080BDC04690B583B077
:1000900000AF786039607B681C683B68181CFFF70C
:1000A00051FE031C201C191CFFF76AFD7B681C68AD
:1000B0003B68181CFFF754FE031C201C191CFFF79B
:1000C000ABFDBD4603B090BD90B583B000AF786086
:1000D00039607B681C683B68181CFFF741FE031CF5
:1000E000201C191CFFF7A6FDBD4603B090BDC046FD
:1000F00090B587B000AFF860B960FB1D1A70172388
:10010000FB1800221A703BE01723FB181B781422FF
:10011000BC18181CFFF716FE031C23801723FB18BE
:100120001B78181CFFF71CFE031C3B61FA681423A4
:10013000FB181B88101C191CFFF732FD031E18D07A
:10014000FA683B69101C191CFFF782FD031E10D0D2
:10015000FA681423FB181B88101C191CFFF710FDEC
:10016000BB681A68BB6859681423FB181B88181CE5
:1001700090471723FB181722BA18127801321A7009
:100180001723FA18FB1D12781B789A42BCD3BD4680
:1001900007B090BD80B500AF044A054B101C191C78
:1001A0000422FFF7A5FFBD4680BDC0460080004089
:1001B000682C002080B500AF044A054B101C191CA8
:1001C0000422FFF795FFBD4680BDC0460090004069
:1001D000742C002080B500AF044A054B101C191C7C
:1001E0000422FFF785FFBD4680BDC04600A0004049
:1001F000802C002080B582B000AF021CFB1D1A705D
:100200000549FB1D1B7801229A40131C034A8B50A1
:10021000BD4602B080BDC04600F0014004050000AC
:1002200080B582B000AF021CFB1D1A700549FB1D92
:100230001B7801229A40A123DB00CA50BD4602B0C0
:1002400080BDC04600F0014080B584B000AFB96009
:100250007A600F23FB18021C1A700A490F23FB183F
:100260001B78A233DB00BA685A50064A0F23FB18EA
:100270001B78A233DB00D3187A685A60BD4604B0FD
:1002800080BDC04600F0014090B583B000AF7860FB
:100290000A1CFB1C1A700B48FB1C1B780949FA1C32
:1002A00012788024A400A4466244920051587A68CF
:1002B0000A43802189008C4663449B001A50BD4646
:1002C00003B090BD00F0014090B583B000AF7860FE
:1002D0000A1CFB1C1A700C48FB1C1B780A49FA1CF0
:1002E00012788024A400A44662449200525879688F
:1002F000C9430A40802189008C4663449B001A5000
:10030000BD4603B090BDC04600F0014080B582B04C
:1003100000AF021CFB1D1A70044AFB1D1B78DB009A
:1003200001219950BD4602B080BDC04600F0014099
:1003300080B582B000AF021CFB1D1A70044AFB1D81
:100340001B78DB00D31801225A60BD4602B080BD85
:1003500000F0014080B582B000AF021CFB1D1A7096
:10036000FB1D1B7801229A40131C181CBD4602B0CD
:1003700080BDC04680B582B000AF021CFB1D1A7064
:10038000FB1D1B7801229A40131C181CBD4602B0AD
:1003900080BDC04680B582B000AF021CFB1D1A7044
:1003A000FB1D1B78181CFFF7D5FF031C9B049B0C3F
:1003B0005A1E9341DBB2181CBD4602B080BDC04638
:1003C00080B582B000AF78607B689B0B9B035A427C
:1003D0005341DBB2181CBD4602B080BD80B582B06F
:1003E00000AF021CFB1D1A70FB1D1B78181CFFF7C9
:1003F000B1FF031C181CFFF7E3FF031C181CBD46CC
:1004000002B080BD80B582B000AF021CFB1D1A7027
:10041000FB1D1B78181CFFF7ADFF021C03231340C4
:100420005A1E9341DBB2181CBD4602B080BDC046C7
:1004300080B582B000AF021CFB1D1A70FB1D1B783B
:10044000181CFFF787FF021C044B1B6813405A1E41
:100450009341DBB2181CBD4602B080BD902C002039
:1004600080B582B000AF021CFB1D1A70FB1D1B780B
:10047000181CFFF76FFF021C034B1B681A43024B4B
:100480001A60BD4602B080BD902C002080B582B0BD
:1004900000AF021CFB1D1A70FB1D1B78181CFFF718
:1004A00059FF031CDA43044B1B681A40024B1A60C5
:1004B000BD4602B080BDC046902C002090B583B0F0
:1004C00000AF021CFB1D1A70084B1B781C1CFB1D87
:1004D0001B78181CFFF74EFF031C23405A1E934144
:1004E000DBB2181CBD4603B090BDC046942C002062
:1004F00080B582B000AF021CFB1D1A70FB1D1B787B
:10050000181CFFF737FF031CDAB2044B1B781343A8
:10051000DAB2024B1A70BD4602B080BD942C0020A6
:1005200080B582B000AF021CFB1D1A70FB1D1B784A
:10053000181CFFF71FFF031CDB43DBB2044A1278D1
:100540001340DAB2024B1A70BD4602B080BDC046FD
:10055000942C002080B582B000AF084B1B78002B94
:1005600005D1064B01221A7000237B6001E0852330
:100570007B607B68181CBD4602B080BD8C2C0020BF
:1005800080B586B000AF78600023FB6004237B61F8
:100590002B4BFB601323FB1800221A7048E00B233F
:1005A000FB1800221A700B23FB18181CFEF746FAE2
:1005B0001323FB181B78181CFFF7CCFE021CFB68EA
:1005C000134019D01323FB181B78181CFFF730FFBA
:1005D000031C1A1C01235340DBB2002B0CD0132345
:1005E000FB181B78181CFFF73BFF7B681322BA1817
:1005F00012781A7000237B610B23FB181B78181CE0
:10060000FEF728FA7B69002B00D114E01323FB18B6
:100610001B78181CFFF79EFE031CDA43FB6813408F
:10062000FB601323FB181A781323FB1801321A708E
:10063000FB68002BB3D17B69181CBD4606B080BD9A
:10064000FF3F000080B584B000AF021CFB1D1A7094
:10065000FB1D1B78181CFFF79DFE031C1A1C0123B1
:100660005340DBB2002B01D0072319E0FB1D1B78A0
:10067000181CFFF7D5FD0F23FB1800221A700F235B
:10068000FB18181CFEF7DAF9FB1D1B78181CFFF786
:10069000FDFE0F23FB181B78181CFEF7DBF9002367
:1006A000181CBD4604B080BD80B584B000AFB960F1
:1006B0007A600F23FB18021C1A70BB68002B01D153
:1006C0000E232DE07B68002B01D10E2328E00F23A1
:1006D000FB181B78181CFFF75DFE031C1A1C012376
:1006E0005340DBB2002B01D0072319E00F23FB1886
:1006F0001B78181CFFF79CFE031C1A1C0123534097
:10070000DBB2002B01D008230AE00F23FB18197875
:10071000BA687B68081C111C1A1CFFF795FD0023A2
:10072000181CBD4604B080BD80B582B000AF021C6D
:10073000FB1D1A70FB1D1B78181CFFF74FFE031CD6
:100740001A1C01235340DBB2002B01D007231AE00F
:10075000FB1D1B78181CFFF71DFE031E0DD0FB1D93
:100760001B78181CFFF764FE031C1A1C012353405E
:10077000DBB2002B01D0082305E0FB1D1B78181C01
:10078000FFF738FD0023181CBD4602B080BDC046EF
:1007900080B582B000AF021CFB1D1A70FB1D1B78D8
:1007A000181CFFF71BFE031C1A1C01235340DBB26D
:1007B000002B01D007231AE0FB1D1B78181CFFF744
:1007C000E9FD031E0DD0FB1D1B78181CFFF730FE42
:1007D000031C1A1C01235340DBB2002B01D0082359
:1007E00005E0FB1D1B78181CFFF71AFD0023181CE1
:1007F000BD4602B080BDC04680B586B000AF78600F
:1008000000233B6104237B6103233B610F23FB181F
:1008100000221A7048E00E23FB1800221A700E23E3
:10082000FB18181CFEF70AF90F23FB181B78181C7D
:10083000FFF7A0FD021C3B69134019D00F23FB18E2
:100840001B78181CFFF73AFE031C1A1C01235340A7
:10085000DBB2002B0CD00F23FB181B78181CFFF702
:1008600047FE7B680F22BA1812781A7000237B614A
:100870000E23FB181B78181CFEF7ECF87B69002B85
:1008800000D114E00F23FB181B78181CFFF772FD32
:10089000031CDA433B6913403B610F23FB181A78B2
:1008A0000F23FB1801321A703B69002BB3D17B690F
:1008B000181CBD4606B080BD80B584B000AF021CD8
:1008C000FB1D1A70FB1D1B78181CFFF79BFD031CFA
:1008D0001A1C01235340DBB2002B01D0072327E071
:1008E000FB1D1B78181CFFF7E9FD031C1A1C0123D4
:1008F0005340DBB2002B01D0082319E0FB1D1B780D
:10090000181CFFF715FD0F23FB1800221A700F2388
:10091000FB18181CFEF792F8FB1D1B78181CFFF73C
:10092000FFFD0F23FB181B78181CFEF793F800231C
:10093000181CBD4604B080BD80B582B000AF021C5B
:10094000FB1D1A70FB1D1B78181CFFF75BFD031CB9
:100950001A1C01235340DBB2002B01D0072313E004
:10096000FB1D1B78181CFFF7A9FD031C1A1C012393
:100970005340DBB2002B01D0082305E0FB1D1B78A0
:10098000181CFFF7C3FC0023181CBD4602B080BD35
:1009900080B584B000AF78600A1CFB1C1A70FB1C89
:1009A0001B78181CFFF72EFD031C1A1C0123534053
:1009B000DBB2002B01D0072331E0FB1C1B78181C95
:1009C000FFF77CFD031C1A1C01235340DBB2002BF4
:1009D00001D0082323E07B68181CFFF7F1FC031CFF
:1009E0001A1C01235340DBB2002B01D0072316E071
:1009F0000F23FB1800221A700F23FB18181CFEF798
:100A00001DF87A68FB1C1B78101C191CFFF75CFC96
:100A10000F23FB181B78181CFEF71CF80023181C6A
:100A2000BD4604B080BDC04680B584B000AF7860DC
:100A30000A1CFB1C1A70FB1C1B78181CFFF7E2FC3D
:100A4000031C1A1C01235340DBB2002B01D00723E7
:100A500031E0FB1C1B78181CFFF730FD031C1A1C2F
:100A600001235340DBB2002B01D0082323E07B6835
:100A7000181CFFF7A5FC031C1A1C01235340DBB212
:100A8000002B01D0072316E00F23FB1800221A7059
:100A90000F23FB18181CFDF7D1FF7A68FB1C1B788D
:100AA000101C191CFFF7F0FB0F23FB181B78181CF8
:100AB000FDF7D0FF0023181CBD4604B080BDC04622
:100AC00080B500AF80235B051B699BB2181CBD4637
