:020000021000EC
:10C00000008000201906020061060200630602009B
:10C010000000000000000000000000000000000020
:10C0200000000000000000000000000065060200A3
:10C030000000000000000000670602006906020020
:10C040006B0602006B06020099DB01006B06020022
:10C050006B06020000000000FDDF01006B0602001D
:10C0600069E4010029E50100E9E501006B06020031
:10C070006B0602006B0602006B0602006B060200F4
:10C080006B0602008DD501006B0602006B060200F4
:10C090006DD601006B060200E50502006B0602008A
:10C0A0006B0602006B0602000000000000000000AA
:10C0B0000000000000000000000000000000000080
:10C0C00010B5064C2378002B07D1054B002B02D06E
:10C0D000044800E000BF0123237010BD6C2800203D
:10C0E000000000008C0A020008B5084B002B03D0AA
:10C0F0000748084900E000BF07480368002B00D14B
:10C1000008BD064B002BFBD09847F9E70000000064
:10C110008C0A0200702800206C280020000000001B
:10C12000164B002B00D1144B9D46402292029A1AC6
:10C13000924600218B460F461348144A121A00F00B
:10C1400067F80F4B002B00D098470E4B002B00D008
:10C1500098470020002104000D000D48002802D05F
:10C160000C4800E000BF00F02DF82000290000F08E
:10C1700063F800F011F8C0460000080000800020BD
:10C1800000000000000000006C280020382D002076
:10C190000000000000000000084B10B5041C002B3C
:10C1A00002D0002100E000BF054B1868836A002B15
:10C1B00000D09847201C00F033F8C0460000000073
:10C1C000BC0902000E4B70B500251E1C0D4CE41A74
:10C1D000A410A54204D0AB00F35898470135F8E706
:10C1E00004F0DEFB084B00251E1C084CE41AA410CA
:10C1F000A54204D0AB00F35898470135F8E770BD6D
:10C20000642800206428002064280020682800207A
:10C21000031C8218934202D019700133FAE7704769
:10C22000FEE7C04608B5031C0A1C0248191C01F0B1
:10C2300065F908BDEFBEADDE08B500200521114A45
:10C24000002301F037FC002816D100F045F80E4815
:10C2500000F010F9002806D100F064F900F072F83F
:10C2600000F0DEF9FCE700F0FBF80028F4D000F065
:10C27000F7F80028F7D1EFE70021002201F03EF99E
:10C28000E3E7C04688280020C009020086DF704727
:10C2900060DF704710B503881B2B02D1837BDA0760
:10C2A00000D510BDDB081B2BFBD1041C08490F3047
:10C2B0000C2204F05DFB0028F3D1E07F0628F0D8C3
:10C2C000044B1A788242ECD0187000F073F9E8E75A
:10C2D000E40902006028002000B5112083B017494E
:10C2E0004822002304F044F9002821D1082268469E
:10C2F0000021FFF78DFF002301936B4601221B787D
:10C30000684693436A461370FFF7C2FF00280AD1BC
:10C310000B4804F053F9002803D00021002201F05B
:10C32000EDF803B000BD0021002201F0E7F8EFE7CF
:10C330000021002201F0E2F8D8E7C046502A002090
:10C3400095C2010008B50548FFF7A0FF002803D0FB
:10C350000021002201F0D2F808BDC046F009020019
:10C3600038B502291CD012D903290AD004290DD1CD
:10C37000002A08D12F4C2378052B07D101232370E5
:10C3800004E0002A1AD02B4C0023237038BD012969
:10C39000FCD1284C002AF7D12378042BF6D1EDE705
:10C3A000002AF0D1234C2378022B23D0032BEDD18C
:10C3B00021492322214804F0EAFADFE71D4C2378C3
:10C3C000062BE3D11C4D1E4B23221968281C04F0B8
:10C3D000DEFA281C1B490422243004F0D8FA042376
:10C3E00019482370291C2822002303F013FF00287A
:10C3F000CAD1CBE7154B1A68154B9A420ED0104B99
:10C400000E481968232204F0C2FA06231148282195
:10C41000237003F097FF0028B6D1B7E7032306483F
:10C42000237009492822002303F038FF0028ABD1EC
:10C43000ACE7C04661280020982A0020C42C0020C8
:10C44000D02A0020000A0200C02A0020D42A00209E
:10C4500055332211C82A002008B503F0AFFC08BDEF
:10C46000034B18780138431E9841C0B27047C0464C
:10C470006128002070B5041C82B01B4804F0A8F8A5
:10C4800000282BD103F080FD002802D0002002B04C
:10C4900070BD28236A46154D9380273BD380144BEB
:10C4A0006846291C009303F015FE0028EED1114EBA
:10C4B000281C0021321C03F085FE0028E6D1022250
:10C4C0000D4B0E481C600E4B311C1A702423023297
:10C4D00003F0E4FE43425841C0B2D8E700210022F5
:10C4E00001F00CF8CEE7C04659C40100C82A00206C
:10C4F00061C30100C02A0020D02A0020D42A0020D5
:10C5000061280020002805D0012800D07047034B87
:10C510001870FBE70122024B1A70F7E7DD2A0020B2
:10C52000E22A0020F0B51D4B8BB0181C6A4670C87B
:10C5300070C230C830C205AC221C143361CB61C25A
:10C54000694621CB21C20023154E164F301C3A1CE0
:10C550000B724B722372637200F016FD002818D123
:10C56000114D211C281C3A1C00F00EFD002803D0A0
:10C570000021002200F0C2FF301C00F059FF281CEF
:10C5800000F056FF0123094A1370094A13700BB0DB
:10C59000F0BD0021002200F0B1FFE1E7040A020033
:10C5A0003C0A020005C50100440A0200E22A0020FC
:10C5B000DD2A0020F8B58300C418134FE4B23E19F9
:10C5C00035796420291C04F0E1F8104B64211870BF
:10C5D000385D684304F0DAF80D4B64211870707808
:10C5E000684304F0D3F80B4B64211870B0786843AB
:10C5F00004F0CCF8084B64211870F078684304F01C
:10C60000C5F8064B1870F8BDC42C0020E12A0020A4
:10C61000D82A0020DC2A0020DE2A0020D92A002087
:10C62000F8B55F4656464D464446F0B44A4B1B7833
:10C63000002B00D18AE0494B494F9846494B4A4E5E
:10C6400099464A4B4A4D9A464A4B4B4C9B464B4B5C
:10C650001A7843461B78D2184346D2B21A703B78F8
:10C66000002BFCD092B2301C002100F0ABFB112853
:10C6700008D143461A78301C92B2002100F0A2FB88
:10C680001128F6D03E4B1A784B461B78D2184B46F1
:10C69000D2B21A703B78002BFCD092B2301C012130
:10C6A00000F090FB112808D14B461A78301C92B24A
:10C6B000012100F087FB1128F6D0324B1A7853463F
:10C6C0001B78D2185346D2B21A702B78002BFCD0AC
:10C6D00092B2201C002100F075FB112808D15346AE
:10C6E0001A78201C92B2002100F06CFB1128F6D0C1
:10C6F000254B1A785B461B78D2185B46D2B21A706B
:10C700002B78002BFCD092B2201C012100F05AFBA8
:10C71000112808D15B461A78201C92B2012100F042
:10C7200051FB1128F6D0642001F0ECFA0A4B0A4ABA
:10C730001B78013BDBB21370002B88D1424613708B
:10C740004A461370524613705A4613703CBC9046CA
:10C750009946A246AB46F8BDE12A0020DB2A00201C
:10C76000E22A0020DA2A00203C0A0200DF2A002008
:10C77000DD2A0020E02A0020440A0200D82A0020F6
:10C78000DC2A0020DE2A0020D92A0020F0B5474606
:10C7900080B4234D4C002B5D0E1C002B20D02B5D54
:10C7A000013BDBB22B552B5D002B12D02C1963788B
:10C7B000002B22D06378013BDBB263706378002BDF
:10C7C0001BD1184BB200D358301C1B68DB6998474B
:10C7D00013E0144B8F00DB59081C1B68DB6998477A
:10C7E0002C196378002B0BD10E4BB70098464346AB
:10C7F000DB590221586801F02DFE04BC9046F0BDC3
:10C800006378013BDBB263706378002BF5D1054B95
:10C81000B7009846DB59301C1B68DB699847E6E790
:10C82000302D0020E42A0020F8B55F4656464D46DC
:10C8300044462223F0B40668051CF75C023BF05C1A
:10C84000884692469B4602F087F82123F05C02F06E
:10C8500083F843465C002B6844449946A400A144F5
:10C860004B46187A02F078F84B46587A02F074F882
:10C87000524600236868414601F090FD391C40484B
:10C8800002F0A8F901231A1C3419607A391C82407D
:10C89000101C227A9340184302F018FA6368002BA8
:10C8A0003FD05B46F35C02216868984601F06AFD60
:10C8B000344BFF00FA18011C404602F00FF868687C
:10C8C00003210122002301F069FD00216B682E4A3B
:10C8D0005B799B0099502123F35C0231686898468C
:10C8E00001F050FD0321071C686801F045FD391C6B
:10C8F000021C404601F0F2FF2023F05C02F012F827
:10C900002123F05C02F00EF85346032163606B684C
:10C910001E4A5B79D1543CBC90469946A246AB4630
:10C92000F8BD5B46F35C41466868994601F02AFD14
:10C93000144BFF00FA18011C484601F0CFFF0022FB
:10C9400068680321002301F029FD6B684146181C2B
:10C950005F7901F01DFD0C4BBF00F8502123F35C03
:10C9600041466868994601F00DFD0321071C68687F
:10C9700001F002FD391C021C484601F0AFFFBBE785
:10C98000FF3F000000F00140F42A0020F02A0020C0
:10C99000F8B55F4656464D4644462223F0B4056836
:10C9A000061CEF5C023BE85C0C1C93469A4601F0C7
:10C9B000D3FF2123E85C994601F0CEFF391C46489D
:10C9C00002F008F963001A1998460123191C920015
:10C9D000AA18507A127A81409340081C391C1843D7
:10C9E00002F074F95B46002B46D0AB6902219B46EE
:10C9F0005346EB5C70689A4601F0C4FC374BFF006D
:10CA0000FA18011C504601F069FF706803210122E9
:10CA1000002301F0C3FC00217368314A5B799B005D
:10CA200099504B46EB5C02317068994601F0AAFCC4
:10CA30000321071C706801F09FFC391C021C48464A
:10CA400001F04CFF5B461F043F0C2023E85C01F023
:10CA500069FF2123E85C01F065FF03214444A40041
:10CA60002C19676073681F4A5B79D1543CBC9046AF
:10CA70009946A246AB46F8BD5346EB5C211C706854
:10CA80009A4601F07FFC154BFF00FA18011C504636
:10CA900001F024FF002270680321002301F07EFCD6
:10CAA0007368211C181C5F7901F072FC0C4BBF00ED
:10CAB000F8504B46EB5C211C7068994601F062FC13
:10CAC0000321071C706801F057FC391C021C484602
:10CAD00001F004FF0027B8E7FF3F000004F0014029
:10CAE000F42A0020F02A0020F0B55F4656464D4655
:10CAF00044462223F0B4046883B0E35C051C9946E5
:10CB00002023E05C0E1C171C9B4601F025FF21230F
:10CB10009A46E05C01F020FF4946334802F05AF89B
:10CB20005346E05C203B98468340181C5B464246D7
:10CB3000E35C49469A40104302F0C8F85B46E35C68
:10CB4000032168689B4601F01DFC311C0190686858
:10CB500001F012FC0199021C584601F0BFFEA2230D
:10CB60006868DB000268D3587200921992009346FD
:10CB7000DAB2A344534253415A465268FB189342D7
:10CB800022D35346E05C434683404946181C02F0DA
:10CB900021F85B465F603A1C68680321002301F0BE
:10CBA000FDFB484601F0FEFF6B68104A5B799B0075
:10CBB0009F506B680E4A5B79D65403B03CBC9046DC
:10CBC0009946A246AB46F0BD53460321E45C01F012
:10CBD000D9FB5B468046186801F0E4F94146021C27
:10CBE000201C01F07BFED4E7FF3F0000F42A002068
:10CBF000F02A0020F0B55F46444656464D462323B2
:10CC0000F0B40768041CFB5C83B00820022B06D03C
:10CC100003B03CBC90469946A246AB46F0BD4B00E3
:10CC200001935B189B009B46BB445B465B68161CEC
:10CC30000D1C91469A4207D1FB69002B3DD06268DA
:10CC4000507998470020E3E760685B49427988465D
:10CC5000895CC9B2FF290FD0FE2930D001F098FBC2
:10CC600063685A79554B9100CB58984227D1FF23DE
:10CC700041468B545B465B68FE2140468154002B45
:10CC80001FD0BA699A421CD9201C291C002E02D040
:10CC9000964200D28BE0321CFFF77AFE2368DB69F4
:10CCA000002B0AD00222636802215B795B005D19C8
:10CCB000434BEA54606801F0BBFB0020A8E7112059
:10CCC000A6E7002E45D0BB699E426AD323689A46E8
:10CCD00020235246D05C01F03FFE21235246D05C17
:10CCE00001F03AFE019B22685B199B009C4662445E
:10CCF0009346107A1F1C01F02FFE5B46587A01F014
:10CD00002BFE53469B699B469E420FD35246B85812
:10CD100022683B1C94466344997A4B1E9941C9B2E0
:10CD200001F050F95B461B041B0C9946291C4A462E
:10CD30000023606801F032FB019B4A465F19BF0087
:10CD40003B1C53445A604146FF2263685B79CA54D6
:10CD5000A4E723689A4620235246D05C01F0FCFDEC
:10CD600052462123D05C01F0F7FD019B5E19236838
:10CD7000B6009946B1444B46187A01F0EDFD4B469A
:10CD8000587A01F0E9FD5346985923689C46664459
:10CD9000B37A59425941C9B201F014F900239946B6
:10CDA000C4E7201C291C321CFFF73EFD76E7321C2D
:10CDB000FFF79AFE72E7C046F02A0020F42A00200E
:10CDC000302D0020F0B55F464D4644465646F0B43F
:10CDD00023270468051CE75D83B0A3690820022FA0
:10CDE00006D003B03CBC90469946A246AB46F0BD87
:10CDF000101C1B041B0C0E1C5843642103F036FC52
:10CE000003049A461B0C9B4673009F19BF00E71949
:10CE100098467B6881469B4507D1E369002B3ED04D
:10CE20006A68507998470020DBE76868534942797F
:10CE3000895CC9B2FF290ED0FE2932D001F0A8FAD0
:10CE40006B685A794E4B9100CB58984229D1FF23F9
:10CE50004A498B547B6868464946C180FE21C78891
:10CE600046488154002B1ED0A2699A421BD9281C27
:10CE7000311C002F01D093457CD33A1CFFF788FD6D
:10CE80002B68DB69002B0AD002226B6802215B79D8
:10CE90005B009E193B4BF254686801F0C9FA002010
:10CEA0009FE711209DE7002F2ED0A3699B455BD300
:10CEB00020232C68E05C01F04FFD2123E05C01F0B1
:10CEC0004BFD43469B199B0099462B684B441F1C06
:10CED000187A01F041FD787A01F03EFDA769BB4563
:10CEE00035D253461F0C311C3A1C0023686801F0F0
:10CEF00055FA4346FF229B199B00E41867606B6854
:10CF00001E495B79CA54BBE720232C68E05C01F022
:10CF100023FD2123E05C01F01FFD43469F192B6890
:10CF2000BF009946B9444B46187A01F015FD4B46AF
:10CF3000587A01F011FD2B68E0599C466744BB7A92
:10CF4000002759425941C9B201F03CF8CBE74B46A2
:10CF500018592B683F044B44997A3F0C4B1E99415A
:10CF6000C9B201F02FF8BEE7281C311C3A1CFFF7AC
:10CF70005BFC85E73A1CFFF7B7FD81E7F02A00204C
:10CF8000F42A0020302D0020F0B55F4656464D466D
:10CF90004446F0B48BB000290DD023230568082443
:10CFA000EB5C002B09D0201C0BB03CBC9046994692
:10CFB000A246AB46F0BD0B24F5E791468B46071C15
:10CFC00001F076FB002802D0043C8528EBD100F06C
:10CFD00031FF002800D169E1FF2321222026002112
:10CFE000281CAB55AB540132AB54233AE9722B7277
:10CFF0006B722A60E9752A756B75EA60203001F062
:10D0000063FB002800D095E1281C213001F05CFB77
:10D01000002800D08EE1281C223001F0B5FC002849
:10D0200000D00EE1002680465A46F3B20293B300C8
:10D03000D458631C00D1A0E093191B7A03933B687A
:10D040009A4623235246D35C002B00D1A4E15646D6
:10D0500008242023F05CFF2801D001F0D3FB21231A
:10D06000F05CFF2801D001F0CDFB2223F05CFF280B
:10D0700001D001F025FD18239946193B984600235D
:10D08000FF259A46B144307AFF2802D001F0BAFB5E
:10D090003572707AFF2802D001F0B4FB75723068E7
:10D0A000431C03D000F03EFF434633605346F37207
:10D0B0000C364E45E7D1786801F016F973E7049B0A
:10D0C0001C60039B002B00D19DE10123A340A02203
:10D0D0001C1CD14BD205D450059B9C19A400201CCC
:10D0E0000830504401F0F0FA002800D071E1201C13
:10D0F0000930504401F0E8FA0590002800D068E1BA
:10D1000008239C465444A4446346207A069301F0C5
:10D1100023FC607A01F020FC227A311C7868924668
:10D1200001F030F9049B03901A68101C079200F07C
:10D1300039FF0399021C504601F0D0FB02217868A8
:10D14000647A01F01FF9049B8246186800F02AFFF8
:10D150005146021C201C01F0C1FB01236946069ABE
:10D16000097DD3707B68AD4A5B79381C5B009B19E5
:10D17000995402990022FFF73DFD012E5FD15B46D5
:10D18000A74A1B694446934200D825E159089142B9
:10D1900000D829E19908914200D822E1D9089142AA
:10D1A00000D81BE11909914200D826E159099142A2
:10D1B00000D81FE19909914200D818E1D90991429C
:10D1C00000D81DE11B0A934200D8B0E094495B08E7
:10D1D00009228B4200D8ABE0002308A94B708B706A
:10D1E0000333CB707B680A705B7978688D4A4B603B
:10D1F00001F028F8061E60D15B467868196901F0D5
:10D2000009F901268046A861786801F0B1F8009616
:10D21000424604237868022101F0D6F8022178689A
:10D2200001F018F94B46EB617B687F4A5B79990006
:10D230008F50FF217D4AD1542323EE54B3E60126BB
:10D24000F2E63C68A05DFF2801D001F0DBFA212363
:10D25000E05CFF2801D001F0D5FA2223E05CFF2832
:10D2600001D001F02DFC18239946193BFF25984663
:10D270000026A144207AFF2802D001F0C3FA2572CB
:10D28000607AFF2802D001F0BDFA65722068431C65
:10D2900003D000F047FE43462360E6720C344C4551
:10D2A000E8D1786801F020F804247CE600F088FDDD
:10D2B0000324002800D076E68EE620233C68E05C5C
:10D2C000FF2801D001F09EFA2123E05CFF2801D065
:10D2D00001F098FA2223E05CFF2801D001F0F0FB76
:10D2E00018239A46E7339846013BFF3B99460025B1
:10D2F000A244207AFF2803D001F084FA4346237227
:10D30000607AFF2803D001F07DFA434663722068FB
:10D31000431C03D000F006FE4B462360E5720C343C
:10D320005445E6D1786800F0DFFF341C3BE6082264
:10D33000D2B251E720233C68E05CFF2801D001F025
:10D3400061FA2123E05CFF2801D001F05BFA22237F
:10D35000E05CFF2801D001F0B3FB18239946193B8C
:10D36000FF2698460025A144207AFF2802D001F02C
:10D3700049FA2672607AFF2802D001F043FA6672F9
:10D380002068431C03D000F0CDFD43462360E572C6
:10D390000C344C45E8D184E7720005929219920052
:10D3A000111C51444B606B461B7B04918B72032311
:10D3B00008A90B703B68201C9C466244927A534239
:10D3C00053414B7001238B7000F03EFD002800D1CB
:10D3D00075E63E6804243CE60022FDE60322D2B254
:10D3E000FAE60222D2B2F7E60122D2B2F4E606222F
:10D3F000D2B2F1E60522D2B2EEE60422D2B2EBE6D8
:10D400000722D2B2E8E60123A340A1221C1CA023DC
:10D41000D200DB059C505FE60C050000302D00209B
:10D42000FF0F00008DC70100E42A0020F02A002031
:10D43000F8B500274368294E5B7905685B00F7540F
:10D44000EB7A041C002B20D163685B795B00F31836
:10D4500000265E70EB7D002B24D1FF216068204AFE
:10D460004379D15403681F4A93422DD01E4A9342F8
:10D470002FD01E4A934222D000F07AFF606800F05D
:10D480006DFF02222323EA54F8BD036828689B7AC3
:10D4900059425941C9B200F095FD286800F066FD77
:10D4A0006F60D1E72368E8689B7D59425941C9B252
:10D4B00000F088FDE86800F059FD2E61CDE70122FB
:10D4C0000B4B1A606068D7E701220A4B1A6060684C
:10D4D000D2E70122084B1A606068CDE7302D0020AA
:10D4E000F02A0020008000400090004000A0004092
:10D4F0000CAC00400C8C00400C9C0040BFF34F8FE4
:10D50000024A034BDA60BFF34F8FFEE70400FA05CF
:10D5100000ED00E080218023184A8902D15080224A
:10D52000D221174B520289005A5040395A500122D9
:10D530002F205A600138C046C046C046C046C0468B
:10D54000C046C046C046C046C046C046C046F1D1EF
:10D550009A6000230B4A2F2013600138C046C04652
:10D56000C046C046C046C046C046C046C046C0468B
:10D57000C046C046F1D1044A1370704700E100E094
:10D5800000100140002B0020202B0020A021F0B52E
:10D59000002347462C4A490080B45350043153506D
:10D5A00004315350043153504C39535004315350CB
:10D5B000264B1B68002B37D0254900265258254999
:10D5C000254F0C68141B00222402240A904602E016
:10D5D000002D1AD02B1C1A68A24216D8A41AB6180D
:10D5E0001A7CDD69002AF3D0424699691A745A6997
:10D5F0003B68002B1BD0101C98470028E8D0002166
:10D600000022FFF77BFF002DE4D1144B14491A7858
:10D610000B789A420ED0134A9B009E5080218023A3
:10D62000114A49035B00D15004BC9046F0BD081C70
:10D630009047CDE70132D3B2022B01D00B70EAE75D
:10D6400000230B70E7E7C04600100140042B0020C8
:10D6500004050000002B0020082B0020142B0020C4
:10D66000152B0020182B002000E100E0F0B55F46EC
:10D6700056464D464446F0B4B44BB54A1B68B549CE
:10D6800089B0019309781378994200D1B1E101334F
:10D69000DBB2022B00D100231370AF4A9B009B58D2
:10D6A000AA4A9946019B4B441B021B0A13600123A3
:10D6B0000493AA4B00241B689B46A94BD8461B78B1
:10D6C0001A1C0293A74B944607931B6803939F4B26
:10D6D0001B680693A44B1B7805935B466646013E88
:10D6E000F2B29446FF2A4FD06246D000039A924687
:10D6F000504401784578A942F0D04A005218877802
:10D7000001314668C9B27F1AB2467E1EB741D200C7
:10D710007F42524439401778022F0AD0032FEAD1B2
:10D72000002BE8D01C74DB69002BFBD145789846B0
:10D73000E1E75668002B25D09E421AD01F1C00E05E
:10D74000171CFA69002AD6D09642F9D1321C3D1C2A
:10D75000BE4200D1EBE01768D269EA61002A06D028
:10D7600013689A465744176045784346C3E745789F
:10D77000C1E7DE691A1C002E00D1DDE0B046331C83
:10D78000151CE8E70023B6E76946774A097D181CAF
:10D7900011706E4A06990393116041466F4A1160F9
:10D7A000049A002A00D028E15B461B1A5A1E9341B6
:10D7B0000025DBB20493079B00271B68039E06939A
:10D7C000624B1B689C46654B1B689A46664B1B78F0
:10D7D0000593664B019301239846029B013BDBB204
:10D7E0000293FF2B00D18FE0069ADB0093469B4407
:10D7F000002D27D06968AB68281CED696246019C42
:10D800008A1A1202120AA24250D8D3184246036062
:10D81000476087600274C761002E56D03168341C9F
:10D82000994204D35FE01168994263D2141CE26903
:10D830005B1A002AF7D10360331CC261E0611E1C31
:10D84000002DD7D15B465A461B7852789A42C4D0F5
:10D85000594649685A0089465946D2180133DBB205
:10D860000B708978D2004A4499424AD011785068A6
:10D87000331C0129E3D1037C99464946331C002916
:10D88000DDD191684160D36883601469C4605269D6
:10D890008261059A002AB1D04A4600214260624660
:10D8A000019C8A1A1202120AA242AED96246511A89
:10D8B0000902090A99420CD242465B1A036047608A
:10D8C00087600274C761002EA8D1031C82461E1C0B
:10D8D000B6E743460760476087600374C761002E60
:10D8E000F3D000233168CB1A3360031CC661824633
:10D8F0001E1CA5E7C91A11600360C261331CE061F8
:10D900009DE75B461D70B1E75246144B1A60039BBE
:10D91000B3422FD1049B002B2CD10023124A137049
:10D9200009B03CBC90469946A246AB46F0BDDE69C4
:10D930003A1C002E00D021E701250D4B9D600023ED
:10D94000069601369846151C059604E7002B002024
:10D95000142B0020152B0020182B0020042B002056
:10D960000C2B0020102B0020162B0020FEFF7F0028
:10D9700000100140002E63D0484B49493568CC580F
:10D98000484B494E1B683078E21A1202120A0332E1
:10D990009046002861D04246AA4200D22A1CA82004
:10D9A000D21812023E49130AC0003C4D0B504A598E
:10D9B0001B1B121B1202120A1B0203321B0A9A4281
:10D9C000ABD94B590B502F200138C046C046C0463A
:10D9D000C046C046C046C046C046C046C046C04617
:10D9E000C046F1D180218023304A89025B00D150AA
:10D9F00093E70023994604935BE600250021002469
:10DA00004846464613E01A6882421CD8DE68801AEF
:10DA100089181C60DF69002E07D0DD611D1C019A8A
:10DA20009E608A181202120A5A603B1C3E1C002B90
:10DA3000E9D11F4B1E600023039301330493BAE620
:10DA4000FFF768FD69E78146194903930E6049466F
:10DA5000521A1A6001230493ADE68020D1274002B8
:10DA6000BF00C851403FC851C02280270F48BF02A5
:10DA700052008750076001272F200F600138C046F1
:10DA8000C046C046C046C046C046C046C046C04666
:10DA9000C046C046C046F1D137707CE7040500009F
:10DAA00000100140002B0020202B002000E100E0AE
:10DAB000042B0020F8B54F464646C0B40326351C5B
:10DAC00080460F1C141C994615400720002D03D0DA
:10DAD0000CBC90469946F8BD002A44D0FFF71AFDC9
:10DAE0004A46224B80201A60221C214B18321E709D
:10DAF000204B62601C607B00DB19DB00D218E26007
:10DB0000D318C022636125706570A7702572657295
:10DB1000A77225746574A774C524FF21164B4003B2
:10DB20001D60164B52001D70154BA4001D70154B47
:10DB300098501A598A433F390A431A51A122186052
:10DB400040461149D2008850C42080001C580F4A1A
:10DB50002240C024240222431A500D4B0020CA58F0
:10DB60000C4B1A60B4E7034B1A60B1E7082B002096
:10DB70000C2B0020102B0020042B0020142B002045
:10DB8000152B002000E100E000100140FF00FFFF26
:10DB900004050000002B0020C12210B5514B92005B
:10DBA0009A5884B092054CD54F4A1168002948D044
:10DBB000002111608121C2228900920099504B4BB3
:10DBC0005A7D002A02D10121494A11600222694688
:10DBD0000A7090214348C900425842506946039256
:10DBE000DA7C68460A72DA68196801920022DA74EF
:10DBF0005B6898473F4A1368002B10D03B4B188A4C
:10DC0000997C814251D9002111601A8A9968895CF6
:10DC10001A8A013292B21A82374B324AD150374BAC
:10DC20001A68002A0BD000221A60304B5A7D002A55
:10DC300002D001212B4A1160DA7C002A44D104B0C1
:10DC400010BDC123274A9B00D3585B07D2D52C4B6C
:10DC500019680029CED00021A3241960234BE400C9
:10DC6000187DD96812590A541A7DD87C0132D2B273
:10DC70001A751A7D9042BDD15A7D002A02D1012029
:10DC80001B4A10608124C2221648A40092008450CE
:10DC90006C461A7D01202272002220700191DA74F4
:10DCA000196868465B689847A4E70020106000295F
:10DCB000B5D06A46107011729A689874196801920A
:10DCC0005B6868469847AAE768461A7D0121027298
:10DCD000DA680170019200221968DA745B6898476B
:10DCE000ADE7C0460020004024210040242B002046
:10DCF000042000401C2100401C050000442100407D
:10DD00000821004082B00190019B002B14D0019BA0
:10DD10000A48013B01930138C046C046C046C04690
:10DD2000C046C046C046C046C046C046C046C046C3
:10DD3000F1D1019B002BEAD102B07047E70300004C
:10DD4000F0B5002820DBFF271B4B03229C463B1C21
:10DD50008408C026C0B20240D2009340A4006444AC
:10DD6000B600A5599D438B013B409340191C2943A4
:10DD7000A1511F2318401E3B8340C022181C0E4B8C
:10DD8000520098501860F0BDFF260C4A03249446B8
:10DD9000321C0F23C0B20440E400A2400340083B01
:10DDA0009B089B006344DD6995438A013240A24091
:10DDB000111C2943D961DCE700E100E000ED00E03F
:10DDC00038B54E25194C0820635D002B00D038BDB6
:10DDD0004822FF21013BA3540132A1540132A35434
:10DDE0000132A3540132A354A3620132E3622363DC
:10DDF0006363A363E363236463640238FE39A3545B
:10DE000023606360A360E36023616361A361E361F6
:10DE100023626362FFF794FF8021C123044A9B00C1
:10DE20000906D150012300206355D0E73C2B002088
:10DE3000006000404E23034AD05C431E9841C0B2AC
:10DE40007047C0463C2B0020F0B50025314C021C29
:10DE5000231828335D570820013500D0F0BD88789D
:10DE6000002835D0236801334DD0636801334CD08E
:10DE7000A36801334BD0E36804200133EED10323C0
:10DE8000A018254D28300370AC460020A2279B0027
:10DE9000FF00E0506344DE59204D0C783540802669
:10DEA0004878DD51DD5976030005AC463040250445
:10DEB000C0262C1CB60234402043F824051C640103
:10DEC00010020440281C204364462043D85101E03E
:10DED000FE2018704B78012B0ED00123A020934018
:10DEE0000F49C0054350A0230321C132FF329200E5
:10DEF000DB05D1500020B1E7A121A0209340C9004B
:10DF0000C0054350EFE70023BAE70123B8E7022337
:10DF1000B6E7C0463C2B002000600040FFE0ECFF6D
:10DF20000C05000010B50F4B1A1828321278D1B228
:10DF300003290AD8012489006442CC50002452B23B
:10DF40004532FF32084992005450FF221B182833F3
:10DF50001A70A023C130FF308000FD3ADB05C250AB
:10DF600010BDC0463C2B0020006000400A4B10B59D
:10DF700018182823094AA2219446C35603209B005F
:10DF80006344C9005A58064C104322435A50C046B5
:10DF9000C046C046585010BD3C2B002000600040D9
:10DFA000031F0000054B1818054B28309C460078CD
:10DFB00040B28000C0B260447047C0463C2B002095
:10DFC000006000400A4B30B518182823C356081CBF
:10DFD000411E8841074AA22494460005011C9B006B
:10DFE0006344E4001D59044A2A401143195130BDCD
:10DFF0003C2B002000600040FFFFEFFFF0B54446DF
:10E000005F4656464D46F0B4844A83B013680024F8
:10E01000012B65D0824B1A68012A6DD0814B1A689A
:10E02000012A00D178E0804B1A68012A00D183E0F0
:10E030007E4B00261A68012A00D18EE023070BD000
:10E04000E30700D593E0A30700D5BBE0630700D545
:10E050009DE0230700D5A9E0002C06DB03B03CBC03
:10E0600090469946A246AB46F0BDC0239846C023D1
:10E070009B0200246E4D994605E0032B00D1B0E0D1
:10E080000134062CEAD0231C4833E95C4BB201333F
:10E09000F6D0C9B24346081C98432B1828331B7886
:10E0A0005BB29B00EA58002AEAD0A027FF05BC46D5
:10E0B0008B09019383009C44E0276346FF00DB59F2
:10E0C0004F463B40012787401B0C3E42D5D0022BD8
:10E0D000D6D1019B032B00D18BE001999047CFE76C
:10E0E000C1215448890041580B4293D04C4B1460D5
:10E0F0001A680134012A91D1C1224E4992008958EF
:10E1000002220A4200D189E700211960454B1443DD
:10E110001A68012A00D086E7C12246499200895830
:10E1200004220A4200D17EE7002119603E4B1443CD
:10E130001A68012A00D07BE7C1223E499200895823
:10E1400008220A4200D173E700211960374B1443BB
:10E150001A680026012A00D070E71E6080231B0683
:10E160001C43A022A223D205DB00D65866E7A223D7
:10E17000304ADB00D058D1582D4DC00489032B689C
:10E18000C00E890F9847A30700D45FE71AE0A323C6
:10E19000284ADB00D058D158254DC0048903AB680C
:10E1A000C00E890F9847230700D455E7214A224B18
:10E1B0001F4DD058D158C0048903C00E890FEB6899
:10E1C000984749E71D4B1B4A194DD058D158C004F8
:10E1D00089036B68C00E890F9847630700D438E73E
:10E1E000D5E7019B032B00D077E780239B029A465B
:10E1F00002E0C0239B029A46E0216346C9005B58B7
:10E200009B465F460E4B3B4067467B507B585746CC
:10E210001F433B1C67467B505FE7C04600610040E0
:10E2200004610040086100400C6100407C610040D6
:10E230003C2B0020006000401C050000140500007D
:10E24000FFFFFCFFF8B5224E4379171CF25C041C5B
:10E250000D1C0820002A00D0F8BD002934D01D4B29
:10E2600022689A422ED00420E9782056FFF768FDF4
:10E270006379194A69689B009950002F22D0174A88
:10E2800021689F500122164F6878CB591040934364
:10E290000343CB51032123680437DB59A8788B4310
:10E2A000084021680343CB510F2123680837DB590D
:10E2B00028788B43084021680343CB5163790020C1
:10E2C000F254C9E70720C7E7064DDB00ED18C6E7A3
:10E2D000A42B002000800040982B00208C2B0020D5
:10E2E000040500004C0A02001F22037970B5134098
:10E2F0001E3A111C99400B1C8021144C63500024C1
:10E30000437913499B005C50036812491A614379B1
:10E310000568CA5480229200AE580F4B3340AB5070
:10E32000C223802205689B005202EA5080220568C1
:10E330009202EA5080220568D202EA5080220568E3
:10E340001203EA504379CC5470BDC04600E100E0AE
:10E350008C2B0020A42B0020F0F0FFFF01220221D3
:10E3600003681A604379014AD1547047A42B0020F6
:10E3700001220368DA607047103100688900C9B271
:10E380004018704750310068890089B240187047C2
:10E3900051310368FF318900C858704730B5802477
:10E3A00064028C40002B09D1C22305689B00EC500D
:10E3B00051310368FF318900CA5030BDC12305685F
:10E3C0009B00EC50F4E7C046F0B5022605AC277878
:10E3D0008024FF368E400568A4002D59B543066899
:10E3E0003551066835592B43335180235B028B40EE
:10E3F000002F09D1C2240568A4002B5151310368B4
:10E40000FF318900CA50F0BD05340568FF342B5137
:10E41000F4E7C046A2230268FF20DB00D35818406F
:10E4200080239B00C340181C484340097047C046E6
:10E430000B1C02685033944600229B009BB263443D
:10E440001A6080235B028B40191CC12302689B0069
:10E45000D150704780235B028B40191CC223026895
:10E460009B00D1507047C04608B5284B1A68002A57
:10E4700005D0C122264992008A58D20328D4254BC0
:10E480001A68002A05D0C122214992008A589203B5
:10E4900028D4214B1A68002A05D0C1221C499200B9
:10E4A0008A58520328D41D4B1A68002A05D0C1226D
:10E4B000174992008A58120300D408BD0022A620F2
:10E4C0001A60174B40001968164B1B689847F4E711
:10E4D0000022A0201A60124B40001968114B1B68E3
:10E4E0009847CCE70022A2201A600D4B4000196823
:10E4F0000C4B1B689847CCE70022A4201A60084BFD
:10E5000040001968074B1B689847CCE740810040E2
:10E510000080004044810040488100404C81004020
:10E52000982B00208C2B002008B5284B1A68002A55
:10E5300005D0C122264992008A58D20328D4254BFF
:10E540001A68002A05D0C122214992008A589203F4
:10E5500028D4214B1A68002A05D0C1221C499200F8
:10E560008A58520328D41D4B1A68002A05D0C122AC
:10E57000174992008A58120300D408BD0022A62031
:10E580001A60174B40005968164B5B689847F4E7D0
:10E590000022A0201A60124B40005968114B5B68A2
:10E5A0009847CCE70022A2201A600D4B4000596822
:10E5B0000C4B5B689847CCE70022A4201A60084BFC
:10E5C00040005968074B5B689847CCE74091004092
:10E5D0000090004044910040489100404C91004020
:10E5E000982B00208C2B002008B5284B1A68002A95
:10E5F00005D0C122264992008A58D20328D4254B3F
:10E600001A68002A05D0C122214992008A58920333
:10E6100028D4214B1A68002A05D0C1221C49920037
:10E620008A58520328D41D4B1A68002A05D0C122EB
:10E63000174992008A58120300D408BD0022A62070
:10E640001A60174B40009968164B9B689847F4E78F
:10E650000022A0201A60124B40009968114B9B6861
:10E660009847CCE70022A2201A600D4B4000996821
:10E670000C4B9B689847CCE70022A4201A60084BFB
:10E6800040009968074B9B689847CCE740A1004041
:10E6900000A0004044A1004048A100404CA100401F
:10E6A000982B00208C2B002036DF704737DF704717
:10E6B000044B85201A78002A00D0704701321A7066
:10E6C0000020FAE7A72B0020F0B55F4656464D46DE
:10E6D00044460423F0B485B0994602ABDF1D002305
:10E6E0009A46434B0190434E00259B461DE0381C43
:10E6F000FFF7DAFF022842D000285BD10124AC40AA
:10E70000264241D14346012B0AD062B63878FFF742
:10E71000CDFF0223021C9A4351D14B46002B41D01E
:10E720000135A643EDB2002E3CD0534604223B7087
:10E73000314B90465B68DB05DB0DD8D0103BD9B27E
:10E740004AB2002A40DB03249208C0322B499200CF
:10E7500023405258DB00DA401406A40FE3B2984677
:10E76000012CC4D1AC402642DAD0214B1B68234295
:10E77000D6D11C431E4B1C60019B1D7010E072B66D
:10E780000124AC402642BDD05B461B682342B9D170
:10E790005A4623431360019B1D704346012B23D12E
:10E7A00000239946484605B03CBC90469946A2468F
:10E7B000AB46F0BD00210022FEF7A0FE9EE700213F
:10E7C0000022FEF79BFEA8E70F230D4A0324944680
:10E7D0000B40083B9B089B00634421405B68C900D9
:10E7E000CB401C06A40FB9E7002399468DE7C0462D
:10E7F000AC2B0020FF3F000000ED00E000E100E056
:10E8000018ED00E030B50124844083B0A304072054
:10E81000002B01D103B030BDA1232B4ADB00D45023
:10E8200000236A46D371294B04255B68DB05DB0DA9
:10E8300023D16B46D81DFFF737FF022836D00028BA
:10E8400016D1234A1368A3431360012D08D062B682
:10E850006B46D879FFF72AFF0223021C9A4301D1A5
:10E860000020D7E700210022FEF748FE0020D1E774
:10E8700000210022FEF742FEE3E7103BD9B24AB284
:10E88000002A15DB92081349C03292005258032126
:10E890000B40DB00DA4013069B0FDDB2012BC8D121
:10E8A0000B4A00201368A3431360B3E772B6C8E7AE
:10E8B0000F23094A0B409446083B9B089B00634486
:10E8C0005A680323E4E7C04600F0014000ED00E091
:10E8D000AC2B002000E100E018ED00E030B500298D
:10E8E00008D0002A06D00123834007249D0403D1C9
:10E8F000201C30BD0E24FBE7074C256808241D4270
:10E90000F6D0064BC0009C46A2236044DB00C150F9
:10E91000034B0024C250EBE7AC2B002000F0014079
:10E920001405000001238340980B800301D00720C9
:10E930007047002B05D0054A12681A4201D1082001
:10E94000F6E7034A03498B50F2E7C046AC2B0020A0
:10E950000405000000F0014001238340980B800370
:10E9600001D007207047002B05D0054A12681A42D3
:10E9700001D10820F6E7A1220249D2008B50F1E72D
:10E98000AC2B002000F00140F0B55F4656464D46E6
:10E9900044460423F0B485B0994602ABDF1D002342
:10E9A0009A46434B0190002503269B461DE0381CE8
:10E9B000FFF77AFE022842D000285BD10124AC4048
:10E9C000264241D14346012B0AD062B63878FFF780
:10E9D0006DFE0223021C9A4351D14B46002B41D0BD
:10E9E0000135A643EDB2002E3CD0534604223B70C5
:10E9F000304B90465B68DB05DB0DD8D0103BD9B2BD
:10EA00004AB2002A40DB03249208C0322A4992000D
:10EA100023405258DB00DA401406A40FE3B29846B4
:10EA2000012CC4D1AC402642DAD0214B1B781C42C9
:10EA3000D6D11C431E4B1C70019B1D7010E072B69A
:10EA40000124AC402642BDD05B461B782342B9D19D
:10EA50005A4623431370019B1D704346012B23D15B
:10EA600000239946484605B03CBC90469946A246CC
:10EA7000AB46F0BD00210022FEF740FD9EE70021DD
:10EA80000022FEF73BFDA8E70F230C4A032494461F
:10EA90000B40083B9B089B00634421405B68C90016
:10EAA000CB401C06A40FB9E7002399468DE7C0466A
:10EAB000A82B002000ED00E000E100E018ED00E0F0
:10EAC0000122F0B5141C0321844083B007232142A6
:10EAD00002D1181C03B0F0BD2D4E0133357825420C
:10EAE000F7D02C4BC0009C466044426000236A462D
:10EAF000D371294B04275B68DB05DB0D16D16B4610
:10EB0000D81DFFF7D1FD02282CD000282DD1A54318
:10EB10003570012F08D062B66B46D879FFF7C6FD75
:10EB20000223021C9A4317D10023D2E7103BD8B22C
:10EB300042B2002A1FDB9208C032184892001258D5
:10EB40000B40DB00DA4013069B0FDFB2012BD6D15E
:10EB5000A54335700023BCE700210022FEF7CEFC60
:10EB60000023B6E772B63578D1E700210022FEF720
:10EB7000C5FC3578CBE70F23094A03409446083B90
:10EB80009B089B0063445A680B1C0340D9E7C046AE
:10EB9000A82B002000F0014000ED00E000E100E0C3
:10EBA00018ED00E001210A1C824010B507239407EC
:10EBB00001D1181C10BD054B1C7808231442F8D055
:10EBC000034BC000C1500023F3E7C046A82B002030
:10EBD00000F00140012303228B40F0B5072483B0ED
:10EBE0001A4202D1201C03B0F0BD334C2578082412
:10EBF0001D42F7D0840BA40301D00724F2E76B4633
:10EC0000DC712E4B04255B68DB05DB0D21D16B46E7
:10EC1000071CD81D0E1CFFF747FD022835D0002821
:10EC200035D1274BB100CB18802109015A58BA437E
:10EC30005A50012DD6D062B66B46D879FFF736FD13
:10EC40000223021C9A43CDD000210022FEF756FC7D
:10EC5000C8E7103BDEB275B2002D1DDBAD08C03534
:10EC6000184EAD00AD591340DB00DD402B069B0F65
:10EC7000DDB2012BCBD1124B80229C46890061442E
:10EC800012018B5883438B50ACE772B6C9E7002161
:10EC90000022FEF733FCC4E70F230B4D3340AC4694
:10ECA000083B9B089B0063445D68331C1340934002
:10ECB000DD40EBB29B09DBE7A82B002000ED00E074
:10ECC00000F0014000E100E018ED00E00123032224
:10ECD0008B40F0B5072483B01A4202D1201C03B048
:10ECE000F0BD334C257808241D42F7D0840BA403D3
:10ECF00001D00724F2E76B46DC712E4B04255B68DC
:10ED0000DB05DB0D21D16B46071CD81D0E1CFFF760
:10ED1000CBFC022835D0002835D18022264BB1000B
:10ED2000CB181201985838439850012DD6D062B6AE
:10ED30006B46D879FFF7BAFC0223021C9A43CDD068
:10ED400000210022FEF7DAFBC8E7103BDEB275B205
:10ED5000002D1DDBAD08C035184EAD00AD59134078
:10ED6000DB00DD402B069B0FDDB2012BCBD1124B1C
:10ED700089009C46802361441B01CA581043C85037
:10ED8000ACE772B6C9E700210022FEF7B7FBC4E783
:10ED90000F230B4D3340AC46083B9B089B0063445C
:10EDA0005D68331C13409340DD40EBB29B09DBE709
:10EDB000A82B002000ED00E000F0014000E100E0A1
:10EDC00018ED00E029DF704728DF704730B583B0C9
:10EDD000002806D0112806D108230F4A11680B43DA
:10EDE000136003B030BD021C0C4801788B005B1827
:10EDF0009B00C518281CE9686B694C0064182979C8
:10EE0000074DA4002D680C300095064D6459A047AD
:10EE10000422054B1A70E4E7982C0020B02B002048
:10EE2000A02C0020842C00209D2C0020F0B55F46F3
:10EE30004D4644465646F0B45E4F85B03C785E4D34
:10EE4000012C00D188E0002C00D16DE0022C16D0FE
:10EE5000032C0DD1594B1868FFF7B6FF021E07D0DF
:10EE6000112800D080E00823554A11680B43136035
:10EE700005B03CBC90469946A246AB46F0BD504B0F
:10EE800099461B6803932B789E00F3189B00EE189D
:10EE90003369984680235B05196940460904090CCB
:10EEA0009B4601F0E3FB454B824618605B461969BF
:10EEB0004346581EF3880904C018090C01F0D6FB1C
:10EEC00082454CD00323039C9C434B461C603D4B26
:10EED0001B68002B02D10233234262D000223A4B3E
:10EEE0001A703A4B5869431C54D080235B0519694A
:10EEF0000904090C01F0BAFB031C802252051069B9
:10EF000011690004013B000C09045843090C01F08D
:10EF1000ADFBFFF759FF021EAAD0112824D1082308
:10EF20001C434B461C60A3E7294B1C60294B1C600B
:10EF30006B78002B9CD02B789A00D3189B00ED188F
:10EF4000EA88254B1A602B79032B27D0042B25D078
:10EF5000012B00D08CE73B7000F000FC88E7012318
:10EF6000039A9A431443B0E72B789800C0188000A6
:10EF70002E18301C184DF3682D685C00E4183179A8
:10EF800073690095154DA4000C306459A047042303
:10EF90003B706DE780235B055B69AEE700F020F80E
:10EFA00066E7094A50461370FFF70EFFFFF70EFFA2
:10EFB0005EE7C0469D2C0020B02B0020AC2C00202A
:10EFC000982C0020A82C00209C2C00200010001061
:10EFD000A42C00207C2C0020A02C0020842C0020BD
:10EFE000F0B55F4656464D464446F0B45B4B5C4830
:10EFF0001A78802791008A1892009B18DD681E6994
:10F000006A0052199200821814895089526860432C
:10F0100080469044DA881B89141C9946514B9246CD
:10F020009B4600235A467F05396983B009044C4446
:10F030001360090C301CA41901F09EFB002924D197
:10F040003B699BB29A4537D044456CD0022D33D0F2
:10F05000301C3969484489B201F08EFB424B890863
:10F0600019603969201C0904090C01F085FB00298D
:10F0700032D102223D4B1A70FFF7D8FE03B03CBCE0
:10F0800090469946A246AB46F0BD022D14D0301CE6
:10F09000396948440904090C01F06EFB324B8908B8
:10F0A000196039694445E4D00904090C201C01F0B9
:10F0B00063FB0029DDD00FE080235B051969301C5C
:10F0C0000904090C01F0D2FA0322294B1860274BDE
:10F0D0001A70FFF7ABFED1E780256D0529692B6912
:10F0E0006A4699464346D380D08889B201F0BEFA79
:10F0F0006A464B46A6B2D380071CD188301C01F06B
:10F10000B5FABFB280B287421DD02C692969301C84
:10F1100089B201F031FB5B462404240C89B2641AE5
:10F12000A4081C60A5E74B46002BC5D0022DC3D018
:10F13000301C3969484489B201F01EFB0A4B89082A
:10F1400019603B6995E7434624041B041A0C240C00
:10F15000131B5A469B0813608BE7C046B02B002058
:10F16000842C0020802C0020A82C00209D2C002026
:10F17000AC2C0020F8B546464F46C0B41D4D08AC37
:10F1800024886E78A44604240A2E2DD02C78A0461C
:10F19000A419092C00DD0A3C14277C432C19626158
:10F1A000221C20710C32B94681C981C2E3806346BA
:10F1B00023810024104B01361A786E70A24213D1BD
:10F1C00042464F465743ED190C4AE98811602A79A7
:10F1D000032A07D0042A05D0012A05D11A70FFF7A7
:10F1E00025FE01E0FFF7FCFE201C0CBC9046994672
:10F1F000F8BDC046B02B00209D2C0020A02C002084
:10F20000082170B50C1C244A82B013681C4009D038
:10F210008B431360214B224A1B789B009B589847D5
:10F2200002B070BD1F4D2B789800C3189B00EE18DC
:10F23000317904292AD0F268736950008218301C91
:10F24000194E920036680C300096184E96590022DE
:10F25000B04701202A7893009B189B00EB181C7183
:10F26000DC80D8601C615C611C816B780132013BE1
:10F27000D2B26B700A2A06D02A7000220C4B1A7088
:10F28000FFF7D4FDCCE700232B70F6E70122084BF3
:10F290001A70FFF7CBFDC3E7982C00209C2C0020B0
:10F2A000780A0200B02B0020A02C0020842C002023
:10F2B0009D2C002030B5244B83B05869431C3ED0B0
:10F2C00080235B0519690904090C01F0CFF9041CBE
:10F2D00080235B051869196900041A69000C631E14
:10F2E00058431A4B09041B68090C92B292085943FF
:10F2F000FFF768FD021E06D0112806D10823144A24
:10F3000011680B43136003B030BD12490B789800AD
:10F31000C01880000D18281CEB6829795C00E418DF
:10F320006B690D4DA4002D680C3000950B4D645990
:10F33000A04704220A4B1A70FFF778FDE3E7802309
:10F340005B055C69C4E7C04600100010AC2C0020CF
:10F35000982C0020B02B0020A02C0020842C002012
:10F360009D2C0020802230B55205146921492404C7
:10F37000230C0C6883B0013C5C431F4B5869431C51
:10F3800035D011690904090C01F070F980235B057F
:10F3900019691A4B09040138090C41431A68201CE9
:10F3A000FFF710FD021E06D0112806D10823144ACB
:10F3B00011680B43136003B030BD12490B789800FD
:10F3C000C01880000D18281CEB6829795C00E4182F
:10F3D0006B690D4DA4002D680C3000950B4D6459E0
:10F3E000A04704220A4B1A70FFF720FDE3E750699B
:10F3F000CCE7C046AC2C002000100010A82C002048
:10F40000982C0020B02B0020A02C0020842C002061
:10F410009D2C0020082330B51E4D83B02C6823425C
:10F4200014D1A30702D501231C432C6002221A4BDE
:10F430001A701A4B1868FFF7C7FC021E04D0112877
:10F440000DD108231C432C6003B030BD9C43124BEC
:10F45000134A1B782C609B009B589847F4E711498E
:10F460000B789800C01880000D18281CEB682979CB
:10F470005C00E4186B690C4DA4002D680C300095FD
:10F480000A4D6459A0470422094B1A70FFF7CEFCBD
:10F49000DAE7C046982C00209C2C0020AC2C0020E1
:10F4A000780A0200B02B0020A02C0020842C002021
:10F4B0009D2C0020F0B58027274C7F0523783969E3
:10F4C0009A00D3189B00E3181A89DD881B69AD18D0
:10F4D000ED18090483B0090C281C01F04DF91F4BED
:10F4E0000E1C5869431C35D039690904090C01F018
:10F4F000BDF880235B05196901380904090C4143F3
:10F50000174B89191A68281CFFF75CFC021E06D0ED
:10F51000112806D10823134A11680B43136003B066
:10F52000F0BD23789800C01880002618301C0E4CBF
:10F53000F36824685D003179ED18736900940B4C11
:10F54000AD000C302C59A0470422094B1A70FFF76C
:10F550006DFCE4E77869CCE7B02B002000100010C8
:10F56000802C0020982C0020A02C0020842C00202F
:10F570009D2C002030B5154B83B01868FFF724FC94
:10F58000021E06D0112806D10823114A11680B4328
:10F59000136003B030BD0F490B789800C01880008D
:10F5A0000D18281CEB6829795C00E4186B690A4D7A
:10F5B000A4002D680C300095084D6459A047042222
:10F5C000074B1A70FFF732FCE3E7C046AC2C002073
:10F5D000982C0020B02B0020A02C0020842C002090
:10F5E0009D2C0020082370B52A4D82B02C68234240
:10F5F00009D09C43284B294A1B782C609B009B58C0
:10F60000984702B070BD0122234B1A70244B5869F1
:10F61000431C3BD080235B0519690904090C01F0E8
:10F6200025F8061C80235B051869196900041A690E
:10F63000000C731E58431B4B09041B68090C92B243
:10F6400092085943FFF7BEFB021EDAD0112803D1FE
:10F6500008231C432C60D4E713490B789800C0188A
:10F6600080000D18281CEB6829795C00E4186B6990
:10F670000E4DA4002D680C3000950D4D6459A04727
:10F6800004220C4B1A70FFF7D1FBBAE780235B050D
:10F690005E69C7E7982C00209C2C0020780A0200A5
:10F6A00000100010AC2C0020B02B0020A02C00205B
:10F6B000842C00209D2C002030B5224B83B058694B
:10F6C000431C3AD080235B0519690904090C00F03A
:10F6D000CDFF031C80225205106911690004013B13
:10F6E000000C09045843090C00F0C0FFFFF76CFB45
:10F6F000021E06D0112806D10823134A11680B43B5
:10F70000136003B030BD11490B789800C018800019
:10F710000D18281CEB6829795C00E4186B690C4D06
:10F72000A4002D680C3000950A4D6459A0470422AE
:10F73000094B1A70FFF77AFBE3E780235B055B69EF
:10F74000C8E7C04600100010982C0020B02B002005
:10F75000A02C0020842C00209D2C0020F0B58027B8
:10F76000404D7F052C783969A60033199B00EB18B2
:10F77000DA8889B283B08A4218D8196918898C4608
:10F78000920860445969FFF71DFB021E06D011283C
:10F790002DD10823344A11680B4313603419A40097
:10F7A0002C19E288314B1A6003B0F0BD1969386931
:10F7B0008C460004000C121A18893C69596960448F
:10F7C00080188918A2B29208FFF7FCFA021E06D030
:10F7D000112827D10823244A11680B431360802382
:10F7E0005B051B69214A1B041B0C1360DCE72B78AB
:10F7F0009800C01880002918CB68081C5F00FF180B
:10F800000B79BF009C464B6919490C30096800917F
:10F8100018497F586146B8470422174B1A70FFF702
:10F8200005FBBBE72B789800C01880002E18301C11
:10F830000F4DF3682D685C003179E4187369009509
:10F840000C4DA4000C306459A04704220A4B1A70D6
:10F85000FFF7ECFA80235B051B69044A1B041B0CB1
:10F860001360A1E7B02B0020982C00207C2C0020F6
:10F87000A02C0020842C00209D2C00200823F0B513
:10F880004D4644465F4656461A1CF0B4774D85B047
:10F890002C68224091465FD1754F3E78B3000393A8
:10F8A0009B199B00FB181A69511EDA881B898A185C
:10F8B000D318029380235B059B4619696D4B1B6827
:10F8C0009846002B57D16C4B1B689A4680235B05EA
:10F8D000196902980904090C00F0C8FE824500D29B
:10F8E00085E0434600D17AE0002B00D079E0039B0D
:10F8F0009C466644B600BC192179042900D1AFE0CA
:10F90000201CE3680C305A00D21863695B4C9200EB
:10F91000246800945A4C14590022A0474146012003
:10F920003A7893009B189B00FB181971D8604146E8
:10F930004046D9801861586118817B780132013BBB
:10F94000D2B27B700A2A00D17BE03A7000224D4B84
:10F950001A70FFF76BFA07E09C434B4B4B4A1B783E
:10F960002C609B009B58984705B03CBC904699463C
:10F97000A246AB46F0BD404B09041B68090C029837
:10F980009A4600F073FE5045A0D14A46404B1A609B
:10F9900001234A4623432B603B4B1A703D4B586969
:10F9A000431C51D05B4619690904090C00F05EFE46
:10F9B000031C80225205106911690004013B000CF0
:10F9C00009045843090C00F051FEFFF7FDF9021E2F
:10F9D000CAD011283BD109231C432C60C4E7002B5B
:10F9E00005D00322284B1A70FFF764FDBCE7002204
:10F9F000274B50461A60244B02321A70FFF7E4F985
:10FA0000021EB1D0112818D03B789900CB189B006A
:10FA1000FD18E9684C006418281C29796B69174D9A
:10FA2000A4002D680C300095154D6459A0470422A0
:10FA3000144B1A70FFF7FAF996E708231C432C6061
:10FA400092E700233B7081E75B465B69B1E73B7857
:10FA50009800C01880003D18EB685C00E418DBE7F4
:10FA60000122084B1A70FFF7E1F97DE7982C00207E
:10FA7000B02B0020802C0020AC2C0020A02C0020DB
:10FA8000842C00209D2C00209C2C0020780A020051
:10FA9000A82C002000100010F0B54E4657464546F1
:10FAA0000823E0B48C4E82B03468234200D093E047
:10FAB0008A4B1A68571C1F60894B1D68002D50D156
:10FAC000884B802299461B7852059D00ED18AB00AB
:10FAD000984608234D469A464544AA4453469B6897
:10FAE0001169581EEB880904C0182B89090CC0182D
:10FAF00000F0BCFD874200D282E07B4B00D17BE06E
:10FB00001F68002F00D19CE001231A1C224000D066
:10FB10008DE023433360754B1A70754B5869431C55
:10FB200000D1BEE080235B0519690904090C00F0CF
:10FB30009DFD031C80225205106911690004013BE0
:10FB4000000C09045843090C00F090FDFFF73CF944
:10FB5000021E49D0112800D0A7E009231C433460BD
:10FB600042E00421614B197080235B051F693F044B
:10FB70003F0C57435E4A5069421C3BD01969090447
:10FB8000090C00F073FD80235B0519690138090435
:10FB9000090C41432A1C381CFFF714F9021E23D01C
:10FBA00011284AD04F4801788B005B189B00C5187C
:10FBB000281CE9684C006418A40029796B694D4D34
:10FBC0000C302D6800954C4D6459A04704224B4BD6
:10FBD0001A70FFF72BF907E09C43444B484A1B7807
:10FBE00034609B009B58984702B01CBC90469946D5
:10FBF000A246F0BD5869C6E71B68002B00D083E71A
:10FC000002223A4B381C1A70FFF7DEF8021EEBD0C6
:10FC1000112812D04B461B789900CB1849469B00FF
:10FC2000CD18E968281C4C006418A400C5E703221D
:10FC30002E4B1A70FFF73EFCD6E708231C433460B6
:10FC4000D2E7297904293DD053464046294C5B68C8
:10FC500024685A00D2186B690094274C92004844DB
:10FC60000C3014590022A0474B4601201A7849460F
:10FC700093009B189B004B441F71DF80D8601F616D
:10FC80005F611F814B465B780132013BD2B24B7002
:10FC90000A2A1DD00A700022184B1A70FFF7C6F806
:10FCA000A2E780235B055B6944E74B461B7898001D
:10FCB000C0184B4680001D18EB68281C5C00E41837
:10FCC000A4007AE701220D4B1A70FFF7AFF88BE71B
:10FCD00000230B70DFE7C046982C0020AC2C0020DE
:10FCE000A82C0020B02B0020802C00209C2C002071
:10FCF00000100010A02C0020842C00209D2C00203F
:10FD0000780A020070B5274C82B023789800C0189A
:10FD100080002518281CEB6829795A00D2186B69D5
:10FD2000214D92002E680C300096204E96590022EC
:10FD3000B04700210126227893009B189B00E3180E
:10FD40001971D980DE6019615961198163780132B6
:10FD5000013BDBB2D2B263700A2A0BD022700021C1
:10FD6000134E14483160144E01703160002B05D1E0
:10FD700002B070BD002222700022F0E793009A18B2
:10FD80009200A418E3882B602379032B07D0042B5F
:10FD900005D0012BECD10370FFF748F8E8E7FFF737
:10FDA0001FF9E5E7B02B0020A02C0020842C0020B8
:10FDB000A42C00209D2C00207C2C0020F0B5474670
:10FDC00080B4654D04262C7882B0231CB3430ED03A
:10FDD000022810D003280AD10821604A136819426A
:10FDE00058D0022C4FD0032C48D0012C46D002B062
:10FDF00004BC9046F0BD022C45D0032C59D0012CF8
:10FE0000F5D10821554A1368194237D1544F554945
:10FE10003B780E689A00D3189B00FA18D1888E1B85
:10FE2000B6B2D680002E6ED1D16813794800411841
:10FE30009846101C53694C4A890012680C30009295
:10FE40004A4A8A58414694460022E0473A7893004D
:10FE50009B189B00FB181E71DE80DC601E615E61DA
:10FE60001E817B780132013BD2B27B700A2A66D0B8
:10FE70003A7000232B70FEF7D9FFB8E78B4313606D
:10FE8000FEF7D4FFB3E73A4B3A4A1B789B009B58E6
:10FE90009847ACE7384A136801331360032B35D019
:10FEA000022CEDD1324B354A1B789B009B5898476A
:10FEB0009DE70821294A13681942DFD1304B284EAB
:10FEC0001A683478571C1F6080235B051969A300EA
:10FED00098461B199B00F3181A690904501EDA880A
:10FEE0001B898018C018090C00F0C0FB8742C7D3DB
:10FEF0002CD0231C43449B00F3181B79042B20D0E7
:10FF0000FFF700FF73E7FFF729FC70E7144802785A
:10FF100093009B189B00C418201CE2686369510081
:10FF20008A182179104C920024680C3000940F4CF0
:10FF300014590D22A0472E70FEF778FF57E73E7048
:10FF400097E701232B70FEF771FF50E70D4B1B68FD
:10FF5000002BCED194E7C0469D2C0020982C002089
:10FF6000B02B00207C2C0020A02C0020842C002012
:10FF70009C2C0020640A0200A42C0020780A0200B5
:10FF8000AC2C0020802C002010B500202C24002256
:10FF90000121464B18551434185502341A530234B3
:10FFA0001A531034185502341A530234D960187693
:10FFB000196259639964D9651A705A701A71DA8096
:10FFC0001A615A611A815A835A629A629A83DA854F
:10FFD0009A63DA631A86DA641A651A665A661A53DD
:10FFE0001034185502341A5302341A531034185569
:10FFF00002341A530634195104341A5104341A5174
:020000022000DC
:100000000C3C1A531034185502341A530634195143
:1000100004341A5104341A510C3C1A531034185534
:1000200002341A530634195104341A5104341A5143
:100030000C3C1A5310341855BA201A520630195075
:100040001967C3315A5004315A500C395A525A6701
:100050009A67174B1A80174B5869431C22D080238C
:100060005B0519690904090C00F000FB80235B059E
:100070001B6902381B041B0C58430F4B00211860EE
:1000800000230E4A002013600D4A13601381538130
:100090000C4A11700C4A13600C4A136004220C4B7A
:1000A0001A6010BD80235B055869DFE7B02B002084
:1000B000902C002000100010942C0020AC2C00206C
:1000C000842C00209D2C0020A42C00207C2C0020BF
:1000D000982C0020F0B557464E464546E0B4344BC8
:1000E0001A680823520705D4181C1CBC9046994670
:1000F000A246F0BD002857D0002955D00368002B38
:1001000052D080277F053A69868892B207239642AB
:10011000EAD80F2EE8D9C288002AE5D0254B7243D1
:1001200099461B68041C9846234B424458690D1C91
:100130009246431C3AD039690904090C00F096FA3A
:1001400080225205136901381B041B0C58430723F6
:100150008245C9D8B107C7D1184F033B3E88012E4D
:10016000C2D043466B600C232E604546734314484F
:100170000136C1184D6025681D50A5880D81E088A5
:1001800048816843136911699BB21469C01801382A
:1001900089B2A4B200F0FAFA231C4A46434343440E
:1001A00013603E8000239FE70E239DE77869C7E731
:1001B000982C0020942C002000100010902C00207F
:1001C000842C002030B5114B1C680823640701D42F
:1001D000181C30BD002806D0002A04D00368002B6C
:1001E00003D00723F4E70E23F2E7094C2568002D1E
:1001F000F7D02589406869430918608964686843B5
:1002000000198142EDD213605160E1E7982C002083
:10021000842C0020F0B5474680B41E4C051C246891
:1002200082B00820640703D402B004BC9046F0BD3D
:1002300000292CD0002D2AD02C680138002CF3D1B5
:10024000154C2668002EEFD06E686789B046268967
:100250007743B4466668BC19A045E5D2002AE3D0CE
:100260009445E1D3D418A445DEDB09308C07DBD1FB
:1002700003242342D8D146462642D5D1181C131C4C
:1002800000900A1C0120291CFEF774FFCCE70E2009
:10029000CAE7C046982C0020842C0020F0B54F46B9
:1002A0004646C0B4254C83B0256808246D0705D4A4
:1002B000201C03B00CBC90469946F0BD002906D026
:1002C000002804D00C68002C03D00724F0E70E248B
:1002D000EEE71B4D2E68002EF7D04E682F89B446EE
:1002E0006E897E43B1466E68B0464E464644B4457C
:1002F000EBD2002AE9D09742E7D3D618B742E4DB25
:10030000860701D01024D3E703263342FAD167468B
:100310003E40F7D188466344191C171C814600F003
:1003200036FB42460C231268009753434046ED5873
:100330000221321C4B46A847BAE7C046982C002041
:10034000842C0020F0B54F464646C0B4204A83B006
:1003500012680824530705D4201C03B00CBC904637
:100360009946F0BD002830D00368013C002BF3D142
:10037000184B1A68002AEFD01D895E895A686E43AF
:100380004768B618B742E7D20934BB07E4D18846BC
:100390008146291CB81A00F0EFF9093C0029DBD18D
:1003A0004046291C00F0E8F989B20029D4D143461F
:1003B000002BD1D04744BE42CED30022032000926E
:1003C0004946FEF7D7FE041CC6E70E24C4E7C04624
:1003D000982C0020842C00201F4B1B78012B00D070
:1003E00070471E4B1B681B07FAD1F0221C4B1B6881
:1003F000134018D11B4B1B6813421AD0174B1B68B4
:100400001B07EDD1F022164B1B681340402BE7D1A0
:10041000144B1B681342E3D1C12380220121DB006E
:10042000D205D150DCE7102B0FD10E4B1B681342C5
:10043000E8D10D4A0D4B1A6080220D4B12021A6052
:10044000054B1B78012BD9D0CAE7302BDAD1054BED
:100450001B681342D6D1ECE7E00F00F0E40F00F088
:10046000E80F00F0EC0F00F0DFFF07C004050040CC
:10047000186C00402EDF704751DF704710DF704767
:1004800061DF704708B5081C111CFBF7CBFE08BDE7
:10049000F0B557464E464546E0B4314B314E1D68E7
:1004A00099466B425D41304BB2461C6898466342A8
:1004B0005C412E4F82B0EDB2E4B2002D08D0002C8A
:1004C00027D002B01CBC90469946A246F0BD01243C
:1004D00001A8FFF7D1FF052831D000282AD000213C
:1004E0000022FDF70BF8002CF1D16A461D4B01A943
:1004F0001B8893801D4B1C68201CFFF7C1FF05283B
:10050000E5D0002810D000210022FCF7F7FF0024DE
:10051000D3E73C68338801A9201C0B80FFF7B0FFAC
:100520000528CED00028EED14346201C1B689847F2
:100530000024C2E74B4601981B689847D3E7002C7C
:10054000BFD153466A461B8801A99380074B0125FA
:100550001C68201CFFF794FF0528D2D1B1E7C046E4
:10056000B82C0020B22C0020BC2C0020B42C002081
:1005700038B5041C0720002901D08D0700D038BDF4
:10058000094801600949201C0A80094A0949136089
:10059000FFF774FF0028F2D10122074B16301A70C2
:1005A000FFF768FFEBE7C046B42C0020B22C002018
:1005B000C02C002085040200B02C0020002803D0AD
:1005C000024B1860002070470E20FCE7BC2C002076
:1005D000002803D0024B1860002070470E20FCE773
:1005E000B82C002008B50A4B1B68002B08D0984790
:1005F000002800D108BD00210022FCF77FFFF9E7A9
:10060000044B1B78002BF5D0FFF742FFF2E7C04602
:10061000C02C0020B02C002003210A4802680A43A5
:100620000260094802680A4302600849084A094B07
:100630009B1A03DD043BC858D050FBDC06488047BA
:10064000064800472405004054050040940A020073
:10065000002800206C280020D903020021C10100DD
:10066000FEE7FEE7FEE7FEE7FEE7FEE700224308BF
:100670008B4274D303098B425FD3030A8B4244D36A
:10068000030B8B4228D3030C8B420DD3FF220902AC
:1006900012BA030C8B4202D31212090265D0030B6B
:1006A0008B4219D300E0090AC30B8B4201D3CB0361
:1006B000C01A5241830B8B4201D38B03C01A5241A3
:1006C000430B8B4201D34B03C01A5241030B8B42A5
:1006D00001D30B03C01A5241C30A8B4201D3CB0290
:1006E000C01A5241830A8B4201D38B02C01A524175
:1006F000430A8B4201D34B02C01A5241030A8B4278
:1007000001D30B02C01A5241CDD2C3098B4201D38F
:10071000CB01C01A524183098B4201D38B01C01A0D
:10072000524143098B4201D34B01C01A5241030984
:100730008B4201D30B01C01A5241C3088B4201D333
:10074000CB00C01A524183088B4201D38B00C01AE0
:10075000524143088B4201D34B00C01A5241411A07
:1007600000D20146524110467047FFE701B5002014
:1007700000F0FCF802BDC0460029F7D003B5FFF732
:1007800075FF0EBC4243891A1847C04603460B4307
:100790007FD4002243088B4274D303098B425FD37A
:1007A000030A8B4244D3030B8B4228D3030C8B42A6
:1007B0000DD3FF22090212BA030C8B4202D312128C
:1007C000090265D0030B8B4219D300E0090AC30B61
:1007D0008B4201D3CB03C01A5241830B8B4201D30E
:1007E0008B03C01A5241430B8B4201D34B03C01AF7
:1007F0005241030B8B4201D30B03C01A5241C30A6F
:100800008B4201D3CB02C01A5241830A8B4201D3DF
:100810008B02C01A5241430A8B4201D34B02C01AC9
:100820005241030A8B4201D30B02C01A5241CDD26E
:10083000C3098B4201D3CB01C01A524183098B42B9
:1008400001D38B01C01A524143098B4201D34B01A2
:10085000C01A524103098B4201D30B01C01A524105
:10086000C3088B4201D3CB00C01A524183088B428C
:1008700001D38B00C01A524143088B4201D34B0075
:10088000C01A5241411A00D20146524110467047E7
:100890005DE0CA0F00D04942031000D340425340EC
:1008A00000229C4603098B422DD3030A8B4212D3AC
:1008B000FC22890112BA030A8B420CD389019211DE
:1008C0008B4208D3890192118B4204D389013AD01B
:1008D000921100E08909C3098B4201D3CB01C01AF0
:1008E000524183098B4201D38B01C01A5241430903
:1008F0008B4201D34B01C01A524103098B4201D3F1
:100900000B01C01A5241C3088B4201D3CB00C01A5D
:10091000524183088B4201D38B00C01A5241D9D275
:1009200043088B4201D34B00C01A5241411A00D2F6
:100930000146634652415B10104601D34042002BF2
:1009400000D54942704763465B1000D3404201B571
:10095000002000F00BF802BD0029F8D003B5FFF726
:1009600015FF0EBC4243891A1847C0467047C0465F
:1009700030B50024944208D0035D651C0C5DA34291
:1009800001D0181B02E02C1CF4E7002030BD00232E
:1009900010B5934203D0CC5CC4540133F9E710BDC9
:1009A000F8B5C046F8BC08BC9E467047F8B5C046CE
:1009B000F8BC08BC9E467047430000000028002099
:1009C00032323232321E1E1E1E645F5F5F5F14328F
:1009D00032323232323232323232323232323232F7
:1009E0003232320002010417FF59001302021001D3
:1009F00001000000000000004006E00100000000CF
:100A00005533221115000000160000000000000000
:100A1000020000008813000017000000180000000A
:100A20000000000002000000881300000090004059
:100A30000901000000A000400A020000E82C00208C
:100A40002C0A02000C2D0020340A020000000303CF
:100A5000000000000400000300000000000000038C
:100A600000000000E5F5010015F4010099FA01000D
:100A700001F201007DF80100B9F60100B5F20100B4
:0C0A800075F50100B5F4010065F30100FC
:080A8C0094B6FF7F0100000099
:100A94000000000000000000000000000000000052
:100AA4000000000000000000000000000000000042
:100AB400B80902000000000000000000000000006F
:100AC4000000000000000000000000000000000022
:100AD4000000000000000000000000000000000012
:100AE4000000000000000000000000000000000002
:0C0AF400FF010000E9C00100C1C00100CA
:0400000320000619BA
:00000001FF
